{
  "_format": "hh-sol-artifact-1",
  "contractName": "CoinToss",
  "sourceName": "contracts/games/Cointoss.sol",
  "abi": [
    {
      "inputs": [
        {
          "internalType": "address",
          "name": "bankAddress",
          "type": "address"
        },
        {
          "internalType": "address",
          "name": "chainlinkCoordinatorAddress",
          "type": "address"
        },
        {
          "internalType": "address",
          "name": "LINK_ETH_feedAddress",
          "type": "address"
        }
      ],
      "stateMutability": "nonpayable",
      "type": "constructor"
    },
    {
      "inputs": [],
      "name": "AccessDenied",
      "type": "error"
    },
    {
      "inputs": [],
      "name": "BetVRFCostRefundFailed",
      "type": "error"
    },
    {
      "inputs": [],
      "name": "ExcessiveHouseEdge",
      "type": "error"
    },
    {
      "inputs": [],
      "name": "ForbiddenToken",
      "type": "error"
    },
    {
      "inputs": [],
      "name": "InvalidAddress",
      "type": "error"
    },
    {
      "inputs": [
        {
          "internalType": "int256",
          "name": "linkWei",
          "type": "int256"
        }
      ],
      "name": "InvalidLinkWeiPrice",
      "type": "error"
    },
    {
      "inputs": [],
      "name": "NotFulfilled",
      "type": "error"
    },
    {
      "inputs": [],
      "name": "NotPendingBet",
      "type": "error"
    },
    {
      "inputs": [
        {
          "internalType": "address",
          "name": "have",
          "type": "address"
        },
        {
          "internalType": "address",
          "name": "want",
          "type": "address"
        }
      ],
      "name": "OnlyCoordinatorCanFulfill",
      "type": "error"
    },
    {
      "inputs": [],
      "name": "TokenHasPendingBets",
      "type": "error"
    },
    {
      "inputs": [
        {
          "internalType": "uint256",
          "name": "minBetAmount",
          "type": "uint256"
        }
      ],
      "name": "UnderMinBetAmount",
      "type": "error"
    },
    {
      "inputs": [],
      "name": "WrongGasValueToCoverFee",
      "type": "error"
    },
    {
      "anonymous": false,
      "inputs": [
        {
          "indexed": false,
          "internalType": "uint256",
          "name": "id",
          "type": "uint256"
        },
        {
          "indexed": false,
          "internalType": "address",
          "name": "user",
          "type": "address"
        },
        {
          "indexed": false,
          "internalType": "uint256",
          "name": "amount",
          "type": "uint256"
        },
        {
          "indexed": false,
          "internalType": "uint256",
          "name": "chainlinkVRFCost",
          "type": "uint256"
        }
      ],
      "name": "BetRefunded",
      "type": "event"
    },
    {
      "anonymous": false,
      "inputs": [
        {
          "indexed": true,
          "internalType": "address",
          "name": "token",
          "type": "address"
        },
        {
          "indexed": false,
          "internalType": "uint256",
          "name": "amount",
          "type": "uint256"
        }
      ],
      "name": "DistributeTokenVRFFees",
      "type": "event"
    },
    {
      "anonymous": false,
      "inputs": [
        {
          "indexed": true,
          "internalType": "address",
          "name": "previousOwner",
          "type": "address"
        },
        {
          "indexed": true,
          "internalType": "address",
          "name": "newOwner",
          "type": "address"
        }
      ],
      "name": "OwnershipTransferred",
      "type": "event"
    },
    {
      "anonymous": false,
      "inputs": [
        {
          "indexed": false,
          "internalType": "address",
          "name": "account",
          "type": "address"
        }
      ],
      "name": "Paused",
      "type": "event"
    },
    {
      "anonymous": false,
      "inputs": [
        {
          "indexed": false,
          "internalType": "uint256",
          "name": "id",
          "type": "uint256"
        },
        {
          "indexed": true,
          "internalType": "address",
          "name": "user",
          "type": "address"
        },
        {
          "indexed": true,
          "internalType": "address",
          "name": "token",
          "type": "address"
        },
        {
          "indexed": false,
          "internalType": "uint256",
          "name": "amount",
          "type": "uint256"
        },
        {
          "indexed": false,
          "internalType": "uint256",
          "name": "vrfCost",
          "type": "uint256"
        },
        {
          "indexed": false,
          "internalType": "bool",
          "name": "face",
          "type": "bool"
        }
      ],
      "name": "PlaceBet",
      "type": "event"
    },
    {
      "anonymous": false,
      "inputs": [
        {
          "indexed": false,
          "internalType": "uint256",
          "name": "id",
          "type": "uint256"
        },
        {
          "indexed": true,
          "internalType": "address",
          "name": "user",
          "type": "address"
        },
        {
          "indexed": true,
          "internalType": "address",
          "name": "token",
          "type": "address"
        },
        {
          "indexed": false,
          "internalType": "uint256",
          "name": "amount",
          "type": "uint256"
        },
        {
          "indexed": false,
          "internalType": "bool",
          "name": "face",
          "type": "bool"
        },
        {
          "indexed": false,
          "internalType": "bool",
          "name": "rolled",
          "type": "bool"
        },
        {
          "indexed": false,
          "internalType": "uint256",
          "name": "payout",
          "type": "uint256"
        }
      ],
      "name": "Roll",
      "type": "event"
    },
    {
      "anonymous": false,
      "inputs": [
        {
          "indexed": false,
          "internalType": "address",
          "name": "bank",
          "type": "address"
        }
      ],
      "name": "SetBank",
      "type": "event"
    },
    {
      "anonymous": false,
      "inputs": [
        {
          "indexed": false,
          "internalType": "uint16",
          "name": "requestConfirmations",
          "type": "uint16"
        },
        {
          "indexed": false,
          "internalType": "bytes32",
          "name": "keyHash",
          "type": "bytes32"
        }
      ],
      "name": "SetChainlinkConfig",
      "type": "event"
    },
    {
      "anonymous": false,
      "inputs": [
        {
          "indexed": true,
          "internalType": "address",
          "name": "token",
          "type": "address"
        },
        {
          "indexed": false,
          "internalType": "uint16",
          "name": "houseEdge",
          "type": "uint16"
        }
      ],
      "name": "SetHouseEdge",
      "type": "event"
    },
    {
      "anonymous": false,
      "inputs": [
        {
          "indexed": true,
          "internalType": "address",
          "name": "token",
          "type": "address"
        },
        {
          "indexed": false,
          "internalType": "uint32",
          "name": "callbackGasLimit",
          "type": "uint32"
        }
      ],
      "name": "SetVRFCallbackGasLimit",
      "type": "event"
    },
    {
      "anonymous": false,
      "inputs": [
        {
          "indexed": false,
          "internalType": "address",
          "name": "account",
          "type": "address"
        }
      ],
      "name": "Unpaused",
      "type": "event"
    },
    {
      "inputs": [],
      "name": "bank",
      "outputs": [
        {
          "internalType": "contract IBank",
          "name": "",
          "type": "address"
        }
      ],
      "stateMutability": "view",
      "type": "function"
    },
    {
      "inputs": [
        {
          "internalType": "uint256",
          "name": "",
          "type": "uint256"
        }
      ],
      "name": "bets",
      "outputs": [
        {
          "internalType": "bool",
          "name": "resolved",
          "type": "bool"
        },
        {
          "internalType": "address payable",
          "name": "user",
          "type": "address"
        },
        {
          "internalType": "address",
          "name": "token",
          "type": "address"
        },
        {
          "internalType": "uint256",
          "name": "id",
          "type": "uint256"
        },
        {
          "internalType": "uint256",
          "name": "amount",
          "type": "uint256"
        },
        {
          "internalType": "uint256",
          "name": "blockNumber",
          "type": "uint256"
        },
        {
          "internalType": "uint256",
          "name": "payout",
          "type": "uint256"
        },
        {
          "internalType": "uint256",
          "name": "vrfCost",
          "type": "uint256"
        }
      ],
      "stateMutability": "view",
      "type": "function"
    },
    {
      "inputs": [
        {
          "internalType": "uint256",
          "name": "",
          "type": "uint256"
        }
      ],
      "name": "coinTossBets",
      "outputs": [
        {
          "internalType": "bool",
          "name": "face",
          "type": "bool"
        },
        {
          "internalType": "bool",
          "name": "rolled",
          "type": "bool"
        }
      ],
      "stateMutability": "view",
      "type": "function"
    },
    {
      "inputs": [],
      "name": "getChainlinkConfig",
      "outputs": [
        {
          "internalType": "uint16",
          "name": "requestConfirmations",
          "type": "uint16"
        },
        {
          "internalType": "bytes32",
          "name": "keyHash",
          "type": "bytes32"
        },
        {
          "internalType": "contract IVRFCoordinatorV2",
          "name": "chainlinkCoordinator",
          "type": "address"
        }
      ],
      "stateMutability": "view",
      "type": "function"
    },
    {
      "inputs": [
        {
          "internalType": "address",
          "name": "token",
          "type": "address"
        }
      ],
      "name": "getChainlinkVRFCost",
      "outputs": [
        {
          "internalType": "uint256",
          "name": "",
          "type": "uint256"
        }
      ],
      "stateMutability": "view",
      "type": "function"
    },
    {
      "inputs": [
        {
          "internalType": "address",
          "name": "user",
          "type": "address"
        },
        {
          "internalType": "uint256",
          "name": "dataLength",
          "type": "uint256"
        }
      ],
      "name": "getLastUserBets",
      "outputs": [
        {
          "components": [
            {
              "components": [
                {
                  "internalType": "bool",
                  "name": "resolved",
                  "type": "bool"
                },
                {
                  "internalType": "address payable",
                  "name": "user",
                  "type": "address"
                },
                {
                  "internalType": "address",
                  "name": "token",
                  "type": "address"
                },
                {
                  "internalType": "uint256",
                  "name": "id",
                  "type": "uint256"
                },
                {
                  "internalType": "uint256",
                  "name": "amount",
                  "type": "uint256"
                },
                {
                  "internalType": "uint256",
                  "name": "blockNumber",
                  "type": "uint256"
                },
                {
                  "internalType": "uint256",
                  "name": "payout",
                  "type": "uint256"
                },
                {
                  "internalType": "uint256",
                  "name": "vrfCost",
                  "type": "uint256"
                }
              ],
              "internalType": "struct Game.Bet",
              "name": "bet",
              "type": "tuple"
            },
            {
              "components": [
                {
                  "internalType": "bool",
                  "name": "face",
                  "type": "bool"
                },
                {
                  "internalType": "bool",
                  "name": "rolled",
                  "type": "bool"
                }
              ],
              "internalType": "struct CoinToss.CoinTossBet",
              "name": "coinTossBet",
              "type": "tuple"
            }
          ],
          "internalType": "struct CoinToss.FullCoinTossBet[]",
          "name": "",
          "type": "tuple[]"
        }
      ],
      "stateMutability": "view",
      "type": "function"
    },
    {
      "inputs": [
        {
          "internalType": "address",
          "name": "token",
          "type": "address"
        }
      ],
      "name": "hasPendingBets",
      "outputs": [
        {
          "internalType": "bool",
          "name": "",
          "type": "bool"
        }
      ],
      "stateMutability": "view",
      "type": "function"
    },
    {
      "inputs": [
        {
          "internalType": "bytes[]",
          "name": "data",
          "type": "bytes[]"
        }
      ],
      "name": "multicall",
      "outputs": [
        {
          "internalType": "bytes[]",
          "name": "results",
          "type": "bytes[]"
        }
      ],
      "stateMutability": "nonpayable",
      "type": "function"
    },
    {
      "inputs": [],
      "name": "owner",
      "outputs": [
        {
          "internalType": "address",
          "name": "",
          "type": "address"
        }
      ],
      "stateMutability": "view",
      "type": "function"
    },
    {
      "inputs": [],
      "name": "pause",
      "outputs": [],
      "stateMutability": "nonpayable",
      "type": "function"
    },
    {
      "inputs": [],
      "name": "paused",
      "outputs": [
        {
          "internalType": "bool",
          "name": "",
          "type": "bool"
        }
      ],
      "stateMutability": "view",
      "type": "function"
    },
    {
      "inputs": [
        {
          "internalType": "uint256",
          "name": "requestId",
          "type": "uint256"
        },
        {
          "internalType": "uint256[]",
          "name": "randomWords",
          "type": "uint256[]"
        }
      ],
      "name": "rawFulfillRandomWords",
      "outputs": [],
      "stateMutability": "nonpayable",
      "type": "function"
    },
    {
      "inputs": [
        {
          "internalType": "uint256",
          "name": "id",
          "type": "uint256"
        }
      ],
      "name": "refundBet",
      "outputs": [],
      "stateMutability": "nonpayable",
      "type": "function"
    },
    {
      "inputs": [],
      "name": "renounceOwnership",
      "outputs": [],
      "stateMutability": "nonpayable",
      "type": "function"
    },
    {
      "inputs": [
        {
          "internalType": "contract IBank",
          "name": "_bank",
          "type": "address"
        }
      ],
      "name": "setBank",
      "outputs": [],
      "stateMutability": "nonpayable",
      "type": "function"
    },
    {
      "inputs": [
        {
          "internalType": "uint16",
          "name": "requestConfirmations",
          "type": "uint16"
        },
        {
          "internalType": "bytes32",
          "name": "keyHash",
          "type": "bytes32"
        }
      ],
      "name": "setChainlinkConfig",
      "outputs": [],
      "stateMutability": "nonpayable",
      "type": "function"
    },
    {
      "inputs": [
        {
          "internalType": "address",
          "name": "token",
          "type": "address"
        },
        {
          "internalType": "uint16",
          "name": "houseEdge",
          "type": "uint16"
        }
      ],
      "name": "setHouseEdge",
      "outputs": [],
      "stateMutability": "nonpayable",
      "type": "function"
    },
    {
      "inputs": [
        {
          "internalType": "address",
          "name": "token",
          "type": "address"
        },
        {
          "internalType": "uint32",
          "name": "callbackGasLimit",
          "type": "uint32"
        }
      ],
      "name": "setVRFCallbackGasLimit",
      "outputs": [],
      "stateMutability": "nonpayable",
      "type": "function"
    },
    {
      "inputs": [
        {
          "internalType": "address",
          "name": "",
          "type": "address"
        }
      ],
      "name": "tokens",
      "outputs": [
        {
          "internalType": "uint16",
          "name": "houseEdge",
          "type": "uint16"
        },
        {
          "internalType": "uint64",
          "name": "pendingCount",
          "type": "uint64"
        },
        {
          "internalType": "uint32",
          "name": "VRFCallbackGasLimit",
          "type": "uint32"
        },
        {
          "internalType": "uint256",
          "name": "VRFFees",
          "type": "uint256"
        }
      ],
      "stateMutability": "view",
      "type": "function"
    },
    {
      "inputs": [
        {
          "internalType": "address",
          "name": "newOwner",
          "type": "address"
        }
      ],
      "name": "transferOwnership",
      "outputs": [],
      "stateMutability": "nonpayable",
      "type": "function"
    },
    {
      "inputs": [
        {
          "internalType": "bool",
          "name": "face",
          "type": "bool"
        },
        {
          "internalType": "address",
          "name": "token",
          "type": "address"
        },
        {
          "internalType": "uint256",
          "name": "tokenAmount",
          "type": "uint256"
        }
      ],
      "name": "wager",
      "outputs": [],
      "stateMutability": "payable",
      "type": "function"
    },
    {
      "inputs": [
        {
          "internalType": "address",
          "name": "token",
          "type": "address"
        }
      ],
      "name": "withdrawTokensVRFFees",
      "outputs": [],
      "stateMutability": "nonpayable",
      "type": "function"
    }
  ],
  "bytecode": "0x60c06040523480156200001157600080fd5b5060405162002f0e38038062002f0e8339810160408190526200003491620002ad565b82826001838262000045336200015c565b6000805460ff60a01b191690556001600160a01b0390811660805260018055811615806200007a57506001600160a01b038316155b15620000995760405163e6c4247b60e01b815260040160405180910390fd5b61ffff821615801590620000b357506101f48261ffff1611155b620001055760405162461bcd60e51b815260206004820152601e60248201527f57726f6e6720436861696e6c696e6b204e756d52616e646f6d576f726473000060448201526064015b60405180910390fd5b6200011084620001ac565b600480546001600160a01b039485166001600160a01b03199091161790556002805461ffff909316620100000263ffff000019909316929092179091551660a05250620002f792505050565b600080546001600160a01b038381166001600160a01b0319831681178455604051919092169283917f8be0079c531659141344cd1fd0a4f28419497f9722a3daafe3b4186f6b6457e09190a35050565b620001b662000232565b6001600160a01b038116620001de5760405163e6c4247b60e01b815260040160405180910390fd5b600880546001600160a01b0319166001600160a01b0383169081179091556040519081527f10f5824683d64a0712038f2244e046b174a1cc57fbb8556bfda5ffb2612440679060200160405180910390a150565b6000546001600160a01b031633146200028e5760405162461bcd60e51b815260206004820181905260248201527f4f776e61626c653a2063616c6c6572206973206e6f7420746865206f776e65726044820152606401620000fc565b565b80516001600160a01b0381168114620002a857600080fd5b919050565b600080600060608486031215620002c357600080fd5b620002ce8462000290565b9250620002de6020850162000290565b9150620002ee6040850162000290565b90509250925092565b60805160a051612bea6200032460003960006109aa015260008181610638015261067a0152612bea6000f3fe6080604052600436106101355760003560e01c80638456cb59116100ab578063c2fb579f1161006f578063c2fb579f1461043c578063e051ece914610469578063e1fdb4b4146104b9578063e32fe504146104d9578063e4860339146104f9578063f2fde38b1461058a57600080fd5b80638456cb591461038e5780638da5cb5b146103a3578063982c3fdd146103c1578063a23cd7df146103ef578063ac9650d81461040f57600080fd5b80635c975abb116100fd5780635c975abb146102a3578063707cd55e146102c2578063715018a6146102e257806376cdb03b146102f757806378bcde221461032f5780637d0807d71461034f57600080fd5b8063090d23b91461013a5780631fe543e31461015c57806322af00fa1461017c57806350462ea014610239578063594043fd1461024c575b600080fd5b34801561014657600080fd5b5061015a6101553660046123fe565b6105aa565b005b34801561016857600080fd5b5061015a610177366004612431565b61062d565b34801561018857600080fd5b506101eb6101973660046124fa565b6005602081905260009182526040909120805460018201546002830154600384015460048501549585015460069095015460ff8516966101009095046001600160a01b039081169694169492939192919088565b6040805198151589526001600160a01b0397881660208a015295909616948701949094526060860192909252608085015260a084015260c083015260e0820152610100015b60405180910390f35b61015a610247366004612521565b6106ba565b34801561025857600080fd5b506102936102673660046123fe565b6001600160a01b03166000908152600760205260409020546201000090046001600160401b0316151590565b6040519015158152602001610230565b3480156102af57600080fd5b50600054600160a01b900460ff16610293565b3480156102ce57600080fd5b5061015a6102dd3660046123fe565b61076f565b3480156102ee57600080fd5b5061015a610897565b34801561030357600080fd5b50600854610317906001600160a01b031681565b6040516001600160a01b039091168152602001610230565b34801561033b57600080fd5b5061015a61034a366004612579565b6108ab565b34801561035b57600080fd5b506002546003546004546040805161ffff909416845260208401929092526001600160a01b031690820152606001610230565b34801561039a57600080fd5b5061015a61097b565b3480156103af57600080fd5b506000546001600160a01b0316610317565b3480156103cd57600080fd5b506103e16103dc3660046123fe565b6109a5565b604051908152602001610230565b3480156103fb57600080fd5b5061015a61040a3660046125ae565b610b58565b34801561041b57600080fd5b5061042f61042a3660046125d8565b610bb6565b604051610230919061269c565b34801561044857600080fd5b5061045c6104573660046126fe565b610cab565b604051610230919061271c565b34801561047557600080fd5b506104a26104843660046124fa565b60096020526000908152604090205460ff8082169161010090041682565b604080519215158352901515602083015201610230565b3480156104c557600080fd5b5061015a6104d43660046124fa565b610dde565b3480156104e557600080fd5b5061015a6104f43660046127e4565b61108a565b34801561050557600080fd5b506105526105143660046123fe565b6007602052600090815260409020805460019091015461ffff8216916201000081046001600160401b031691600160501b90910463ffffffff169084565b6040805161ffff90951685526001600160401b03909316602085015263ffffffff909116918301919091526060820152608001610230565b34801561059657600080fd5b5061015a6105a53660046123fe565b6110fd565b6105b2611176565b6001600160a01b0381166105d95760405163e6c4247b60e01b815260040160405180910390fd5b600880546001600160a01b0319166001600160a01b0383169081179091556040519081527f10f5824683d64a0712038f2244e046b174a1cc57fbb8556bfda5ffb2612440679060200160405180910390a150565b336001600160a01b037f000000000000000000000000000000000000000000000000000000000000000016146106ac5760405163073e64fd60e21b81523360048201526001600160a01b037f00000000000000000000000000000000000000000000000000000000000000001660248201526044015b60405180910390fd5b6106b682826111d0565b5050565b6106c2611311565b60006106d983836106d461271061135e565b61136b565b60608181018051600090815260096020908152604091829020805460ff19168a15159081179091558286015182870151945160808089015160e08a015187519384529583015294810193909352948201529394506001600160a01b039283169392909116917fa056e15b055f378463e53b317d9503bc9aba54ace23957ea9ff7fbfa0bf2efc0910160405180910390a350505050565b6001600160a01b03811660009081526007602052604090206001015480156106b6576001600160a01b03828116600081815260076020526040808220600101919091556008549051636e0be4e560e11b815260048101929092529091169063dc17c9ca90602401602060405180830381865afa1580156107f3573d6000803e3d6000fd5b505050506040513d601f19601f82011682018060405250810190610817919061281d565b6001600160a01b03166108fc829081150290604051600060405180830381858888f1935050505015801561084f573d6000803e3d6000fd5b50816001600160a01b03167f1d3f9fc0810d9e182e982399cb91de735f6c415728fb9bc42664b84087c2af568260405161088b91815260200190565b60405180910390a25050565b61089f611176565b6108a96000611988565b565b6108b3611176565b6101908161ffff1611156108da57604051631c2d5dd360e21b815260040160405180910390fd5b6001600160a01b0382166000908152600760205260409020546201000090046001600160401b0316156109205760405163055212b760e51b815260040160405180910390fd5b6001600160a01b038216600081815260076020908152604091829020805461ffff191661ffff861690811790915591519182527f7dfd3ecb8ac83242184c019f85ca408558f2ac0a5a19af6be2a4aee697eac812910161088b565b610983611176565b600054600160a01b900460ff161561099d576108a96119d8565b6108a9611a2d565b6000807f00000000000000000000000000000000000000000000000000000000000000006001600160a01b031663feaf968c6040518163ffffffff1660e01b815260040160a060405180830381865afa158015610a06573d6000803e3d6000fd5b505050506040513d601f19601f82011682018060405250810190610a2a9190612854565b50505091505060008113610a54576040516321ea67b360e11b8152600481018290526024016106a3565b6004805460408051632fdde06960e11b815290516000936001600160a01b0390931692635fbbc0d292808201926101209290918290030181865afa158015610aa0573d6000803e3d6000fd5b505050506040513d601f19601f82011682018060405250810190610ac491906128b7565b50505050505050509050670de0b6b3a7640000828263ffffffff1664e8d4a51000610aef9190612983565b610af99190612983565b610b0391906129b8565b6001600160a01b038516600090815260076020526040902054610b3690600160501b900463ffffffff166201c1386129cc565b610b469063ffffffff163a612983565b610b5091906129e9565b949350505050565b610b60611176565b6002805461ffff191661ffff8416908117909155600382905560408051918252602082018390527f312eab8f28128692f3404f828c413db540bc15a246c46d0b40e3c004b947c437910160405180910390a15050565b6060816001600160401b03811115610bd057610bd061241b565b604051908082528060200260200182016040528015610c0357816020015b6060815260200190600190039081610bee5790505b50905060005b82811015610ca357610c7330858584818110610c2757610c276129fc565b9050602002810190610c399190612a12565b8080601f016020809104026020016040519081016040528093929190818152602001838380828437600092019190915250611a7092505050565b828281518110610c8557610c856129fc565b60200260200101819052508080610c9b90612a5f565b915050610c09565b505b92915050565b60606000610cb98484611a9c565b9050600081516001600160401b03811115610cd657610cd661241b565b604051908082528060200260200182016040528015610d0f57816020015b610cfc612352565b815260200190600190039081610cf45790505b50905060005b8251811015610dd5576040518060400160405280848381518110610d3b57610d3b6129fc565b6020026020010151815260200160096000868581518110610d5e57610d5e6129fc565b60209081029190910181015160600151825281810192909252604090810160002081518083019092525460ff808216151583526101009091041615159181019190915290528251839083908110610db757610db76129fc565b60200260200101819052508080610dcd90612a5f565b915050610d15565b50949350505050565b600260015403610e305760405162461bcd60e51b815260206004820152601f60248201527f5265656e7472616e637947756172643a207265656e7472616e742063616c6c0060448201526064016106a3565b6002600190815560008281526005602052604090208054909160ff90911615159003610e6f576040516310d5f2bd60e11b815260040160405180910390fd5b6004810154610e7f90601e6129e9565b431015610e9f576040516303de361f60e11b815260040160405180910390fd5b60018101546001600160a01b0316600090815260076020526040902080546201000090046001600160401b0316816002610ed883612a78565b82546001600160401b039182166101009390930a928302919092021990911617905550815460ff191660019081178355600383015460058401558201546001600160a01b0316610f6957815460038301546040516101009092046001600160a01b0316916108fc82150291906000818181858888f19350505050158015610f63573d6000803e3d6000fd5b50610f94565b815460038301546001840154610f94926001600160a01b039182169261010090910490911690611c72565b600682015460018201548111801590610fad5750804710155b156110675780826001016000828254610fc69190612a9b565b909155505082546040516101009091046001600160a01b0316906108fc8315029083906000818181858888f19350505050158015611008573d6000803e3d6000fd5b5082546003840154604080518781526101009093046001600160a01b03166020840152820152606081018290527fe282fd838bb937af0c0f54e49ba5f86229ed0c90344c3cc4e2135cb673493e699060800160405180910390a1611080565b6040516358771a5b60e11b815260040160405180910390fd5b5050600180555050565b611092611176565b6001600160a01b038216600081815260076020908152604091829020805463ffffffff60501b1916600160501b63ffffffff87169081029190911790915591519182527f9edb52532d26512950c91a14b132f6df3cd06bfb49e795e03e56736121cd24a8910161088b565b611105611176565b6001600160a01b03811661116a5760405162461bcd60e51b815260206004820152602660248201527f4f776e61626c653a206e6577206f776e657220697320746865207a65726f206160448201526564647265737360d01b60648201526084016106a3565b61117381611988565b50565b6000546001600160a01b031633146108a95760405162461bcd60e51b815260206004820181905260248201527f4f776e61626c653a2063616c6c6572206973206e6f7420746865206f776e657260448201526064016106a3565b60008281526009602090815260408083206005909252822083519192909160029085908390611201576112016129fc565b60200260200101516112139190612aae565b604080518082019091526000808252600160208301529192509081836002811061123f5761123f6129fc565b6020020151855461ff001981166101008315159081029182178955600388015493945060009361128793899360ff9182169116171515909114906112829061135e565b611cda565b60018601548654600288015460038901548a5460408051938452602084019290925260ff161515908201528515156060820152608081018490529293506001600160a01b0391821692610100909104909116907f4a6c40516242d2bc8453081e1746087d26dc596dcc95d61f76381accb74699399060a00160405180910390a35050505050505050565b600054600160a01b900460ff16156108a95760405162461bcd60e51b815260206004820152601060248201526f14185d5cd8589b194e881c185d5cd95960821b60448201526064016106a3565b6000610ca5826002612983565b611373612390565b61137b611311565b6002600154036113cd5760405162461bcd60e51b815260206004820152601f60248201527f5265656e7472616e637947756172643a207265656e7472616e742063616c6c0060448201526064016106a3565b60026001556001600160a01b0384811660008181526007602052604090819020600854915163cbe230c360e01b8152600481019390935292169063cbe230c390602401602060405180830381865afa15801561142d573d6000803e3d6000fd5b505050506040513d601f19601f820116820180604052508101906114519190612ac2565b15806114605750805461ffff16155b1561147e5760405163c455905560e01b815260040160405180910390fd5b336001600160a01b0386161560008161149757346114a1565b6114a18734612a9b565b90506000826114b057876114ba565b6114ba8234612a9b565b905060006114c78a6109a5565b905060646114d682600a612983565b6114e091906129b8565b6114ea9082612a9b565b83101561150a576040516305ab677f60e11b815260040160405180910390fd5b8286600101600082825461151e91906129e9565b909155505060085460405163f6b2a2f160e01b81526001600160a01b038c81166004830152600093509091169063f6b2a2f190602401602060405180830381865afa158015611571573d6000803e3d6000fd5b505050506040513d601f19601f820116820180604052508101906115959190612adf565b9050808210156115ba576040516289563d60e21b8152600481018290526024016106a3565b6008546040516313c59cef60e11b81526001600160a01b038c81166004830152602482018b9052600092169063278b39de90604401602060405180830381865afa15801561160c573d6000803e3d6000fd5b505050506040513d601f19601f820116820180604052508101906116309190612adf565b905080831115611685578415611681576001600160a01b0386166108fc6116578386612a9b565b6040518115909202916000818181858888f1935050505015801561167f573d6000803e3d6000fd5b505b8092505b50506004805460035460085460405163279e341560e01b81526001600160a01b038e81169582019590955260009493841693635d3b1d309392169063279e341590602401602060405180830381865afa1580156116e6573d6000803e3d6000fd5b505050506040513d601f19601f8201168201806040525081019061170a9190612af8565b6002548a5460405160e086901b6001600160e01b031916815260048101949094526001600160401b03909216602484015261ffff8082166044850152600160501b90920463ffffffff16606484015262010000900416608482015260a4016020604051808303816000875af1158015611787573d6000803e3d6000fd5b505050506040513d601f19601f820116820180604052508101906117ab9190612adf565b90506000604051806101000160405280600015158152602001876001600160a01b031681526020018c6001600160a01b031681526020018381526020018481526020014381526020016000815260200185815250905060066000876001600160a01b03166001600160a01b03168152602001908152602001600020829080600181540180825580915050600190039060005260206000200160009091909190915055806005600084815260200190815260200160002060008201518160000160006101000a81548160ff02191690831515021790555060208201518160000160016101000a8154816001600160a01b0302191690836001600160a01b0316021790555060408201518160010160006101000a8154816001600160a01b0302191690836001600160a01b03160217905550606082015181600201556080820151816003015560a0820151816004015560c0820151816005015560e0820151816006015590505086600001600281819054906101000a90046001600160401b03168092919061193790612b21565b91906101000a8154816001600160401b0302191690836001600160401b031602179055505084611976576119766001600160a01b038c16873086611fcb565b600180559a9950505050505050505050565b600080546001600160a01b038381166001600160a01b0319831681178455604051919092169283917f8be0079c531659141344cd1fd0a4f28419497f9722a3daafe3b4186f6b6457e09190a35050565b6119e0612009565b6000805460ff60a01b191690557f5db9ee0a495bf2e6ff9c91a7834c1ba4fdd244a5e8aa4e537bd38aeae4b073aa335b6040516001600160a01b03909116815260200160405180910390a1565b611a35611311565b6000805460ff60a01b1916600160a01b1790557f62e78cea01bee320cd4e420270b5ea74000d11b0c9f74754ebdbfc544b05a258611a103390565b6060611a958383604051806060016040528060278152602001612b8e60279139612059565b9392505050565b6001600160a01b0382166000908152600660209081526040808320805482518185028101850190935280835260609493830182828015611afb57602002820191906000526020600020905b815481526020019060010190808311611ae7575b5050835193945050505083811015611b11578093505b6000846001600160401b03811115611b2b57611b2b61241b565b604051908082528060200260200182016040528015611b6457816020015b611b51612390565b815260200190600190039081611b495790505b5090508415611c69576000825b611b7b8785612a9b565b811115611c66576005600086611b92600185612a9b565b81518110611ba257611ba26129fc565b602090810291909101810151825281810192909252604090810160002081516101008082018452825460ff811615158352046001600160a01b03908116948201949094526001820154909316918301919091526002810154606083015260038101546080830152600481015460a0830152600581015460c08301526006015460e08201528351849084908110611c3a57611c3a6129fc565b60200260200101819052508180611c5090612a5f565b9250508080611c5e90612b47565b915050611b71565b50505b95945050505050565b6040516001600160a01b038316602482015260448101829052611cd590849063a9059cbb60e01b906064015b60408051601f198184030181529190526020810180516001600160e01b03166001600160e01b031990931692909217909152612136565b505050565b825460009060ff16151560011480611cff5750835461010090046001600160a01b0316155b15611d1d576040516310d5f2bd60e11b815260040160405180910390fd5b835460ff1916600190811785558401546001600160a01b0316600081815260076020526040902080546001600160401b036201000090910416906002611d6283612a78565b82546001600160401b039182166101009390930a928302919092021990911617905550600385015460018601546001600160a01b0316158515611f1857865461010090046001600160a01b03166000611dbb8488612a9b565b90506000611dc98686612208565b90506000611dd78784612208565b90506000611de582846129e9565b9050611df1818b612a9b565b99506000611dff8489612a9b565b90506000611e0d8487612a9b565b90508715611e51576040516001600160a01b0388169083156108fc029084906000818181858888f19350505050158015611e4b573d6000803e3d6000fd5b50611e7f565b611e656001600160a01b038b168884611c72565b600854611e7f906001600160a01b038c8116911687611c72565b6008546001600160a01b0316631f61502389611e9c576000611e9e565b865b6040516001600160e01b031960e084901b1681526001600160a01b03808c1660048301528e16602482015260448101859052606481018790526084016000604051808303818588803b158015611ef357600080fd5b505af1158015611f07573d6000803e3d6000fd5b505050505050505050505050611fba565b6000945080611f3b57600854611f3b906001600160a01b03858116911684611c72565b6008546001600160a01b0316633138809d82611f58576000611f5a565b835b6040516001600160e01b031960e084901b1681526001600160a01b0387166004820152602481018690526044016000604051808303818588803b158015611fa057600080fd5b505af1158015611fb4573d6000803e3d6000fd5b50505050505b505050506005929092018290555090565b6040516001600160a01b03808516602483015283166044820152606481018290526120039085906323b872dd60e01b90608401611c9e565b50505050565b600054600160a01b900460ff166108a95760405162461bcd60e51b815260206004820152601460248201527314185d5cd8589b194e881b9bdd081c185d5cd95960621b60448201526064016106a3565b60606001600160a01b0384163b6120c15760405162461bcd60e51b815260206004820152602660248201527f416464726573733a2064656c65676174652063616c6c20746f206e6f6e2d636f6044820152651b9d1c9858dd60d21b60648201526084016106a3565b600080856001600160a01b0316856040516120dc9190612b5e565b600060405180830381855af49150503d8060008114612117576040519150601f19603f3d011682016040523d82523d6000602084013e61211c565b606091505b509150915061212c82828661223e565b9695505050505050565b600061218b826040518060400160405280602081526020017f5361666545524332303a206c6f772d6c6576656c2063616c6c206661696c6564815250856001600160a01b03166122779092919063ffffffff16565b805190915015611cd557808060200190518101906121a99190612ac2565b611cd55760405162461bcd60e51b815260206004820152602a60248201527f5361666545524332303a204552433230206f7065726174696f6e20646964206e6044820152691bdd081cdd58d8d9595960b21b60648201526084016106a3565b6001600160a01b0382166000908152600760205260408120546127109061223490849061ffff16612983565b611a9591906129b8565b6060831561224d575081611a95565b82511561225d5782518084602001fd5b8160405162461bcd60e51b81526004016106a39190612b7a565b6060610b508484600085856001600160a01b0385163b6122d95760405162461bcd60e51b815260206004820152601d60248201527f416464726573733a2063616c6c20746f206e6f6e2d636f6e747261637400000060448201526064016106a3565b600080866001600160a01b031685876040516122f59190612b5e565b60006040518083038185875af1925050503d8060008114612332576040519150601f19603f3d011682016040523d82523d6000602084013e612337565b606091505b509150915061234782828661223e565b979650505050505050565b6040518060400160405280612365612390565b815260200161238b60405180604001604052806000151581526020016000151581525090565b905290565b60405180610100016040528060001515815260200160006001600160a01b0316815260200160006001600160a01b0316815260200160008152602001600081526020016000815260200160008152602001600081525090565b6001600160a01b038116811461117357600080fd5b60006020828403121561241057600080fd5b8135611a95816123e9565b634e487b7160e01b600052604160045260246000fd5b6000806040838503121561244457600080fd5b823591506020808401356001600160401b038082111561246357600080fd5b818601915086601f83011261247757600080fd5b8135818111156124895761248961241b565b8060051b604051601f19603f830116810181811085821117156124ae576124ae61241b565b6040529182528482019250838101850191898311156124cc57600080fd5b938501935b828510156124ea578435845293850193928501926124d1565b8096505050505050509250929050565b60006020828403121561250c57600080fd5b5035919050565b801515811461117357600080fd5b60008060006060848603121561253657600080fd5b833561254181612513565b92506020840135612551816123e9565b929592945050506040919091013590565b803561ffff8116811461257457600080fd5b919050565b6000806040838503121561258c57600080fd5b8235612597816123e9565b91506125a560208401612562565b90509250929050565b600080604083850312156125c157600080fd5b6125ca83612562565b946020939093013593505050565b600080602083850312156125eb57600080fd5b82356001600160401b038082111561260257600080fd5b818501915085601f83011261261657600080fd5b81358181111561262557600080fd5b8660208260051b850101111561263a57600080fd5b60209290920196919550909350505050565b60005b8381101561266757818101518382015260200161264f565b50506000910152565b6000815180845261268881602086016020860161264c565b601f01601f19169290920160200192915050565b6000602080830181845280855180835260408601915060408160051b870101925083870160005b828110156126f157603f198886030184526126df858351612670565b945092850192908501906001016126c3565b5092979650505050505050565b6000806040838503121561271157600080fd5b82356125ca816123e9565b602080825282518282018190526000919060409081850190868401855b828110156127c55781518051805115158652878101516001600160a01b0390811689880152878201511687870152606080820151908701526080808201519087015260a0808201519087015260c0808201519087015260e09081015190860152860151805115156101008601526020015115156101208501526101409093019290850190600101612739565b5091979650505050505050565b63ffffffff8116811461117357600080fd5b600080604083850312156127f757600080fd5b8235612802816123e9565b91506020830135612812816127d2565b809150509250929050565b60006020828403121561282f57600080fd5b8151611a95816123e9565b805169ffffffffffffffffffff8116811461257457600080fd5b600080600080600060a0868803121561286c57600080fd5b6128758661283a565b94506020860151935060408601519250606086015191506128986080870161283a565b90509295509295909350565b805162ffffff8116811461257457600080fd5b60008060008060008060008060006101208a8c0312156128d657600080fd5b89516128e1816127d2565b60208b01519099506128f2816127d2565b60408b0151909850612903816127d2565b60608b0151909750612914816127d2565b60808b0151909650612925816127d2565b945061293360a08b016128a4565b935061294160c08b016128a4565b925061294f60e08b016128a4565b915061295e6101008b016128a4565b90509295985092959850929598565b634e487b7160e01b600052601160045260246000fd5b600081600019048311821515161561299d5761299d61296d565b500290565b634e487b7160e01b600052601260045260246000fd5b6000826129c7576129c76129a2565b500490565b63ffffffff818116838216019080821115610ca357610ca361296d565b80820180821115610ca557610ca561296d565b634e487b7160e01b600052603260045260246000fd5b6000808335601e19843603018112612a2957600080fd5b8301803591506001600160401b03821115612a4357600080fd5b602001915036819003821315612a5857600080fd5b9250929050565b600060018201612a7157612a7161296d565b5060010190565b60006001600160401b03821680612a9157612a9161296d565b6000190192915050565b81810381811115610ca557610ca561296d565b600082612abd57612abd6129a2565b500690565b600060208284031215612ad457600080fd5b8151611a9581612513565b600060208284031215612af157600080fd5b5051919050565b600060208284031215612b0a57600080fd5b81516001600160401b0381168114611a9557600080fd5b60006001600160401b03808316818103612b3d57612b3d61296d565b6001019392505050565b600081612b5657612b5661296d565b506000190190565b60008251612b7081846020870161264c565b9190910192915050565b602081526000611a95602083018461267056fe416464726573733a206c6f772d6c6576656c2064656c65676174652063616c6c206661696c6564a2646970667358221220e78af032355942bed4438da5e114ae2b72be2ad85ca48b1d1234b44ba893481a64736f6c63430008100033",
  "linkReferences": {},
  "deployedLinkReferences": {}
}