{"contracts/bank/Bank.sol":{"Bank":{"abi":[{"inputs":[{"internalType":"address","name":"treasuryAddress","type":"address"},{"internalType":"address","name":"teamWalletAddress","type":"address"}],"stateMutability":"nonpayable","type":"constructor"},{"inputs":[],"name":"AccessDenied","type":"error"},{"inputs":[],"name":"TokenExists","type":"error"},{"inputs":[],"name":"TokenHasPendingBets","type":"error"},{"inputs":[],"name":"TokenNotPaused","type":"error"},{"inputs":[],"name":"WrongAddress","type":"error"},{"inputs":[{"internalType":"uint16","name":"splitSum","type":"uint16"}],"name":"WrongHouseEdgeSplit","type":"error"},{"anonymous":false,"inputs":[{"indexed":true,"internalType":"address","name":"token","type":"address"},{"indexed":false,"internalType":"uint256","name":"newBalance","type":"uint256"},{"indexed":false,"internalType":"uint256","name":"fees","type":"uint256"}],"name":"AccountFees","type":"event"},{"anonymous":false,"inputs":[{"indexed":false,"internalType":"address","name":"token","type":"address"}],"name":"AddToken","type":"event"},{"anonymous":false,"inputs":[{"indexed":true,"internalType":"address","name":"token","type":"address"},{"indexed":false,"internalType":"uint256","name":"bank","type":"uint256"},{"indexed":false,"internalType":"uint256","name":"dividend","type":"uint256"},{"indexed":false,"internalType":"uint256","name":"partner","type":"uint256"},{"indexed":false,"internalType":"uint256","name":"treasury","type":"uint256"},{"indexed":false,"internalType":"uint256","name":"team","type":"uint256"}],"name":"AllocateHouseEdgeAmount","type":"event"},{"anonymous":false,"inputs":[{"indexed":true,"internalType":"address","name":"token","type":"address"},{"indexed":false,"internalType":"uint256","name":"newBalance","type":"uint256"},{"indexed":false,"internalType":"uint256","name":"amount","type":"uint256"}],"name":"CashIn","type":"event"},{"anonymous":false,"inputs":[{"indexed":true,"internalType":"address","name":"token","type":"address"},{"indexed":false,"internalType":"uint256","name":"amount","type":"uint256"}],"name":"Deposit","type":"event"},{"anonymous":false,"inputs":[{"indexed":true,"internalType":"address","name":"token","type":"address"},{"indexed":false,"internalType":"uint256","name":"amount","type":"uint256"}],"name":"HarvestDividend","type":"event"},{"anonymous":false,"inputs":[{"indexed":true,"internalType":"address","name":"token","type":"address"},{"indexed":false,"internalType":"uint256","name":"treasuryAmount","type":"uint256"},{"indexed":false,"internalType":"uint256","name":"teamAmount","type":"uint256"}],"name":"HouseEdgeDistribution","type":"event"},{"anonymous":false,"inputs":[{"indexed":true,"internalType":"address","name":"token","type":"address"},{"indexed":false,"internalType":"uint256","name":"partnerAmount","type":"uint256"}],"name":"HouseEdgePartnerDistribution","type":"event"},{"anonymous":false,"inputs":[{"indexed":true,"internalType":"address","name":"token","type":"address"},{"indexed":false,"internalType":"uint256","name":"newBalance","type":"uint256"},{"indexed":false,"internalType":"uint256","name":"profit","type":"uint256"}],"name":"Payout","type":"event"},{"anonymous":false,"inputs":[{"indexed":true,"internalType":"bytes32","name":"role","type":"bytes32"},{"indexed":true,"internalType":"bytes32","name":"previousAdminRole","type":"bytes32"},{"indexed":true,"internalType":"bytes32","name":"newAdminRole","type":"bytes32"}],"name":"RoleAdminChanged","type":"event"},{"anonymous":false,"inputs":[{"indexed":true,"internalType":"bytes32","name":"role","type":"bytes32"},{"indexed":true,"internalType":"address","name":"account","type":"address"},{"indexed":true,"internalType":"address","name":"sender","type":"address"}],"name":"RoleGranted","type":"event"},{"anonymous":false,"inputs":[{"indexed":true,"internalType":"bytes32","name":"role","type":"bytes32"},{"indexed":true,"internalType":"address","name":"account","type":"address"},{"indexed":true,"internalType":"address","name":"sender","type":"address"}],"name":"RoleRevoked","type":"event"},{"anonymous":false,"inputs":[{"indexed":true,"internalType":"address","name":"token","type":"address"},{"indexed":false,"internalType":"bool","name":"allowed","type":"bool"}],"name":"SetAllowedToken","type":"event"},{"anonymous":false,"inputs":[{"indexed":true,"internalType":"address","name":"token","type":"address"},{"indexed":false,"internalType":"uint16","name":"balanceRisk","type":"uint16"}],"name":"SetBalanceRisk","type":"event"},{"anonymous":false,"inputs":[{"indexed":true,"internalType":"address","name":"token","type":"address"},{"indexed":false,"internalType":"uint256","name":"minPartnerTransferAmount","type":"uint256"}],"name":"SetMinPartnerTransferAmount","type":"event"},{"anonymous":false,"inputs":[{"indexed":true,"internalType":"address","name":"token","type":"address"},{"indexed":false,"internalType":"bool","name":"paused","type":"bool"}],"name":"SetPausedToken","type":"event"},{"anonymous":false,"inputs":[{"indexed":false,"internalType":"address","name":"teamWallet","type":"address"}],"name":"SetTeamWallet","type":"event"},{"anonymous":false,"inputs":[{"indexed":true,"internalType":"address","name":"token","type":"address"},{"indexed":false,"internalType":"uint16","name":"bank","type":"uint16"},{"indexed":false,"internalType":"uint16","name":"dividend","type":"uint16"},{"indexed":false,"internalType":"uint16","name":"partner","type":"uint16"},{"indexed":false,"internalType":"uint16","name":"treasury","type":"uint16"},{"indexed":false,"internalType":"uint16","name":"team","type":"uint16"}],"name":"SetTokenHouseEdgeSplit","type":"event"},{"anonymous":false,"inputs":[{"indexed":true,"internalType":"address","name":"token","type":"address"},{"indexed":false,"internalType":"uint256","name":"minBetAmount","type":"uint256"}],"name":"SetTokenMinBetAmount","type":"event"},{"anonymous":false,"inputs":[{"indexed":true,"internalType":"address","name":"token","type":"address"},{"indexed":false,"internalType":"address","name":"partner","type":"address"}],"name":"SetTokenPartner","type":"event"},{"anonymous":false,"inputs":[{"indexed":true,"internalType":"address","name":"token","type":"address"},{"indexed":false,"internalType":"uint64","name":"subId","type":"uint64"}],"name":"SetTokenVRFSubId","type":"event"},{"anonymous":false,"inputs":[{"indexed":true,"internalType":"address","name":"token","type":"address"},{"indexed":false,"internalType":"uint256","name":"amount","type":"uint256"}],"name":"Withdraw","type":"event"},{"inputs":[],"name":"DEFAULT_ADMIN_ROLE","outputs":[{"internalType":"bytes32","name":"","type":"bytes32"}],"stateMutability":"view","type":"function"},{"inputs":[],"name":"GAME_ROLE","outputs":[{"internalType":"bytes32","name":"","type":"bytes32"}],"stateMutability":"view","type":"function"},{"inputs":[],"name":"SWIRLMASTER_ROLE","outputs":[{"internalType":"bytes32","name":"","type":"bytes32"}],"stateMutability":"view","type":"function"},{"inputs":[{"internalType":"address","name":"token","type":"address"},{"internalType":"uint256","name":"fees","type":"uint256"}],"name":"accountFees","outputs":[],"stateMutability":"payable","type":"function"},{"inputs":[{"internalType":"address","name":"token","type":"address"}],"name":"addToken","outputs":[],"stateMutability":"nonpayable","type":"function"},{"inputs":[{"internalType":"address","name":"tokenAddress","type":"address"},{"internalType":"uint256","name":"amount","type":"uint256"}],"name":"cashIn","outputs":[],"stateMutability":"payable","type":"function"},{"inputs":[{"internalType":"bytes","name":"checkData","type":"bytes"}],"name":"checkUpkeep","outputs":[{"internalType":"bool","name":"upkeepNeeded","type":"bool"},{"internalType":"bytes","name":"performData","type":"bytes"}],"stateMutability":"view","type":"function"},{"inputs":[{"internalType":"address","name":"token","type":"address"},{"internalType":"uint256","name":"amount","type":"uint256"}],"name":"deposit","outputs":[],"stateMutability":"payable","type":"function"},{"inputs":[{"internalType":"address","name":"token","type":"address"}],"name":"getBalance","outputs":[{"internalType":"uint256","name":"","type":"uint256"}],"stateMutability":"view","type":"function"},{"inputs":[],"name":"getDividends","outputs":[{"internalType":"address[]","name":"","type":"address[]"},{"internalType":"uint256[]","name":"","type":"uint256[]"}],"stateMutability":"view","type":"function"},{"inputs":[{"internalType":"address","name":"token","type":"address"},{"internalType":"uint256","name":"multiplier","type":"uint256"}],"name":"getMaxBetAmount","outputs":[{"internalType":"uint256","name":"","type":"uint256"}],"stateMutability":"view","type":"function"},{"inputs":[{"internalType":"address","name":"token","type":"address"}],"name":"getMinBetAmount","outputs":[{"internalType":"uint256","name":"minBetAmount","type":"uint256"}],"stateMutability":"view","type":"function"},{"inputs":[{"internalType":"bytes32","name":"role","type":"bytes32"}],"name":"getRoleAdmin","outputs":[{"internalType":"bytes32","name":"","type":"bytes32"}],"stateMutability":"view","type":"function"},{"inputs":[{"internalType":"bytes32","name":"role","type":"bytes32"},{"internalType":"uint256","name":"index","type":"uint256"}],"name":"getRoleMember","outputs":[{"internalType":"address","name":"","type":"address"}],"stateMutability":"view","type":"function"},{"inputs":[{"internalType":"bytes32","name":"role","type":"bytes32"}],"name":"getRoleMemberCount","outputs":[{"internalType":"uint256","name":"","type":"uint256"}],"stateMutability":"view","type":"function"},{"inputs":[{"internalType":"address","name":"token","type":"address"}],"name":"getTokenOwner","outputs":[{"internalType":"address","name":"","type":"address"}],"stateMutability":"view","type":"function"},{"inputs":[],"name":"getTokens","outputs":[{"components":[{"internalType":"uint8","name":"decimals","type":"uint8"},{"internalType":"address","name":"tokenAddress","type":"address"},{"internalType":"string","name":"name","type":"string"},{"internalType":"string","name":"symbol","type":"string"},{"components":[{"internalType":"bool","name":"allowed","type":"bool"},{"internalType":"bool","name":"paused","type":"bool"},{"internalType":"uint16","name":"balanceRisk","type":"uint16"},{"internalType":"uint64","name":"VRFSubId","type":"uint64"},{"internalType":"address","name":"partner","type":"address"},{"internalType":"uint256","name":"minBetAmount","type":"uint256"},{"internalType":"uint256","name":"minPartnerTransferAmount","type":"uint256"},{"components":[{"internalType":"uint16","name":"bank","type":"uint16"},{"internalType":"uint16","name":"dividend","type":"uint16"},{"internalType":"uint16","name":"partner","type":"uint16"},{"internalType":"uint16","name":"treasury","type":"uint16"},{"internalType":"uint16","name":"team","type":"uint16"},{"internalType":"uint256","name":"dividendAmount","type":"uint256"},{"internalType":"uint256","name":"partnerAmount","type":"uint256"},{"internalType":"uint256","name":"treasuryAmount","type":"uint256"},{"internalType":"uint256","name":"teamAmount","type":"uint256"}],"internalType":"struct Bank.HouseEdgeSplit","name":"houseEdgeSplit","type":"tuple"}],"internalType":"struct Bank.Token","name":"token","type":"tuple"}],"internalType":"struct Bank.TokenMetadata[]","name":"","type":"tuple[]"}],"stateMutability":"view","type":"function"},{"inputs":[{"internalType":"address","name":"token","type":"address"}],"name":"getVRFSubId","outputs":[{"internalType":"uint64","name":"","type":"uint64"}],"stateMutability":"view","type":"function"},{"inputs":[{"internalType":"bytes32","name":"role","type":"bytes32"},{"internalType":"address","name":"account","type":"address"}],"name":"grantRole","outputs":[],"stateMutability":"nonpayable","type":"function"},{"inputs":[],"name":"harvestDividends","outputs":[{"internalType":"address[]","name":"","type":"address[]"},{"internalType":"uint256[]","name":"","type":"uint256[]"}],"stateMutability":"nonpayable","type":"function"},{"inputs":[{"internalType":"bytes32","name":"role","type":"bytes32"},{"internalType":"address","name":"account","type":"address"}],"name":"hasRole","outputs":[{"internalType":"bool","name":"","type":"bool"}],"stateMutability":"view","type":"function"},{"inputs":[{"internalType":"address","name":"tokenAddress","type":"address"}],"name":"isAllowedToken","outputs":[{"internalType":"bool","name":"","type":"bool"}],"stateMutability":"view","type":"function"},{"inputs":[{"internalType":"bytes[]","name":"data","type":"bytes[]"}],"name":"multicall","outputs":[{"internalType":"bytes[]","name":"results","type":"bytes[]"}],"stateMutability":"nonpayable","type":"function"},{"inputs":[{"internalType":"address payable","name":"user","type":"address"},{"internalType":"address","name":"token","type":"address"},{"internalType":"uint256","name":"profit","type":"uint256"},{"internalType":"uint256","name":"fees","type":"uint256"}],"name":"payout","outputs":[],"stateMutability":"payable","type":"function"},{"inputs":[{"internalType":"bytes","name":"performData","type":"bytes"}],"name":"performUpkeep","outputs":[],"stateMutability":"nonpayable","type":"function"},{"inputs":[{"internalType":"bytes32","name":"role","type":"bytes32"},{"internalType":"address","name":"account","type":"address"}],"name":"renounceRole","outputs":[],"stateMutability":"nonpayable","type":"function"},{"inputs":[{"internalType":"bytes32","name":"role","type":"bytes32"},{"internalType":"address","name":"account","type":"address"}],"name":"revokeRole","outputs":[],"stateMutability":"nonpayable","type":"function"},{"inputs":[{"internalType":"address","name":"token","type":"address"},{"internalType":"bool","name":"allowed","type":"bool"}],"name":"setAllowedToken","outputs":[],"stateMutability":"nonpayable","type":"function"},{"inputs":[{"internalType":"address","name":"token","type":"address"},{"internalType":"uint16","name":"balanceRisk","type":"uint16"}],"name":"setBalanceRisk","outputs":[],"stateMutability":"nonpayable","type":"function"},{"inputs":[{"internalType":"address","name":"token","type":"address"},{"internalType":"uint16","name":"bank","type":"uint16"},{"internalType":"uint16","name":"dividend","type":"uint16"},{"internalType":"uint16","name":"partner","type":"uint16"},{"internalType":"uint16","name":"_treasury","type":"uint16"},{"internalType":"uint16","name":"team","type":"uint16"}],"name":"setHouseEdgeSplit","outputs":[],"stateMutability":"nonpayable","type":"function"},{"inputs":[{"internalType":"address","name":"token","type":"address"},{"internalType":"uint256","name":"minPartnerTransferAmount","type":"uint256"}],"name":"setMinPartnerTransferAmount","outputs":[],"stateMutability":"nonpayable","type":"function"},{"inputs":[{"internalType":"address","name":"token","type":"address"},{"internalType":"bool","name":"paused","type":"bool"}],"name":"setPausedToken","outputs":[],"stateMutability":"nonpayable","type":"function"},{"inputs":[{"internalType":"address","name":"_teamWallet","type":"address"}],"name":"setTeamWallet","outputs":[],"stateMutability":"nonpayable","type":"function"},{"inputs":[{"internalType":"address","name":"token","type":"address"},{"internalType":"uint256","name":"tokenMinBetAmount","type":"uint256"}],"name":"setTokenMinBetAmount","outputs":[],"stateMutability":"nonpayable","type":"function"},{"inputs":[{"internalType":"address","name":"token","type":"address"},{"internalType":"address","name":"partner","type":"address"}],"name":"setTokenPartner","outputs":[],"stateMutability":"nonpayable","type":"function"},{"inputs":[{"internalType":"address","name":"token","type":"address"},{"internalType":"uint64","name":"subId","type":"uint64"}],"name":"setTokenVRFSubId","outputs":[],"stateMutability":"nonpayable","type":"function"},{"inputs":[{"internalType":"bytes4","name":"interfaceId","type":"bytes4"}],"name":"supportsInterface","outputs":[{"internalType":"bool","name":"","type":"bool"}],"stateMutability":"view","type":"function"},{"inputs":[],"name":"teamWallet","outputs":[{"internalType":"address","name":"","type":"address"}],"stateMutability":"view","type":"function"},{"inputs":[{"internalType":"address","name":"","type":"address"}],"name":"tokens","outputs":[{"internalType":"bool","name":"allowed","type":"bool"},{"internalType":"bool","name":"paused","type":"bool"},{"internalType":"uint16","name":"balanceRisk","type":"uint16"},{"internalType":"uint64","name":"VRFSubId","type":"uint64"},{"internalType":"address","name":"partner","type":"address"},{"internalType":"uint256","name":"minBetAmount","type":"uint256"},{"internalType":"uint256","name":"minPartnerTransferAmount","type":"uint256"},{"components":[{"internalType":"uint16","name":"bank","type":"uint16"},{"internalType":"uint16","name":"dividend","type":"uint16"},{"internalType":"uint16","name":"partner","type":"uint16"},{"internalType":"uint16","name":"treasury","type":"uint16"},{"internalType":"uint16","name":"team","type":"uint16"},{"internalType":"uint256","name":"dividendAmount","type":"uint256"},{"internalType":"uint256","name":"partnerAmount","type":"uint256"},{"internalType":"uint256","name":"treasuryAmount","type":"uint256"},{"internalType":"uint256","name":"teamAmount","type":"uint256"}],"internalType":"struct Bank.HouseEdgeSplit","name":"houseEdgeSplit","type":"tuple"}],"stateMutability":"view","type":"function"},{"inputs":[],"name":"treasury","outputs":[{"internalType":"address","name":"","type":"address"}],"stateMutability":"view","type":"function"},{"inputs":[{"internalType":"address","name":"token","type":"address"},{"internalType":"uint256","name":"amount","type":"uint256"}],"name":"withdraw","outputs":[],"stateMutability":"nonpayable","type":"function"},{"inputs":[{"internalType":"address","name":"tokenAddress","type":"address"}],"name":"withdrawHouseEdgeAmount","outputs":[],"stateMutability":"nonpayable","type":"function"},{"inputs":[{"internalType":"address","name":"tokenAddress","type":"address"}],"name":"withdrawPartnerAmount","outputs":[],"stateMutability":"nonpayable","type":"function"}],"evm":{"bytecode":{"linkReferences":{},"object":"60a06040523480156200001157600080fd5b50604051620044c9380380620044c983398101604081905262000034916200050c565b6001600160a01b0382166200005c57604051630d23cf4160e11b815260040160405180910390fd5b6001600160a01b0382166080526200007660003362000089565b620000818162000099565b5050620006ac565b6200009582826200012e565b5050565b6000620000a68162000171565b6001600160a01b038216620000ce57604051630d23cf4160e11b815260040160405180910390fd5b60028054610100600160a81b0319166101006001600160a01b038581168202929092179283905560405192041681527fc6a5dd316fe9d0339f2769deab7e31f64c8f5b101ffd85dfc9a83dbeaf2e69da9060200160405180910390a15050565b6200014582826200018060201b6200273e1760201c565b60008281526001602090815260409091206200016c918390620027c262000220821b17901c565b505050565b6200017d813362000240565b50565b6000828152602081815260408083206001600160a01b038516845290915290205460ff1662000095576000828152602081815260408083206001600160a01b03851684529091529020805460ff19166001179055620001dc3390565b6001600160a01b0316816001600160a01b0316837f2f8788117e7eff1d82e926ec794901d17c78024a50270940304540a733656f0d60405160405180910390a45050565b600062000237836001600160a01b038416620002e4565b90505b92915050565b6000828152602081815260408083206001600160a01b038516845290915290205460ff1662000095576200028a816001600160a01b031660146200033660201b620027d71760201c565b620002a0836020620027d762000336821b17811c565b604051602001620002b39291906200056a565b60408051601f198184030181529082905262461bcd60e51b8252620002db91600401620005e3565b60405180910390fd5b60008181526001830160205260408120546200032d575081546001818101845560008481526020808220909301849055845484825282860190935260409020919091556200023a565b5060006200023a565b60606000620003478360026200062e565b6200035490600262000650565b6001600160401b038111156200036e576200036e62000666565b6040519080825280601f01601f19166020018201604052801562000399576020820181803683370190505b509050600360fc1b81600081518110620003b757620003b76200067c565b60200101906001600160f81b031916908160001a905350600f60fb1b81600181518110620003e957620003e96200067c565b60200101906001600160f81b031916908160001a90535060006200040f8460026200062e565b6200041c90600162000650565b90505b60018111156200049e576f181899199a1a9b1b9c1cb0b131b232b360811b85600f16601081106200045457620004546200067c565b1a60f81b8282815181106200046d576200046d6200067c565b60200101906001600160f81b031916908160001a90535060049490941c93620004968162000692565b90506200041f565b508315620002375760405162461bcd60e51b815260206004820181905260248201527f537472696e67733a20686578206c656e67746820696e73756666696369656e746044820152606401620002db565b80516001600160a01b03811681146200050757600080fd5b919050565b600080604083850312156200052057600080fd5b6200052b83620004ef565b91506200053b60208401620004ef565b90509250929050565b60005b838110156200056157818101518382015260200162000547565b50506000910152565b7f416363657373436f6e74726f6c3a206163636f756e7420000000000000000000815260008351620005a481601785016020880162000544565b7001034b99036b4b9b9b4b733903937b6329607d1b6017918401918201528351620005d781602884016020880162000544565b01602801949350505050565b60208152600082518060208401526200060481604085016020870162000544565b601f01601f19169190910160400192915050565b634e487b7160e01b600052601160045260246000fd5b60008160001904831182151516156200064b576200064b62000618565b500290565b808201808211156200023a576200023a62000618565b634e487b7160e01b600052604160045260246000fd5b634e487b7160e01b600052603260045260246000fd5b600081620006a457620006a462000618565b506000190190565b608051613dfa620006cf600039600081816104fc015261099b0152613dfa6000f3fe60806040526004361061025c5760003560e01c8063802ad8fb11610144578063ca7a8769116100b6578063e48603391161007a578063e486033914610788578063ed442e141461088a578063f3fef3a31461089f578063f6ae2204146108bf578063f6b2a2f1146108f3578063f8b2cb4f1461091357600080fd5b8063ca7a8769146106f5578063cbe230c314610708578063d48bfca714610728578063d547741f14610748578063dc17c9ca1461076857600080fd5b8063aa6ca80811610108578063aa6ca80814610624578063ab40070614610646578063ac9650d814610668578063bc3ec38314610695578063c437afde146106b5578063ca15c873146106d557600080fd5b8063802ad8fb1461058c5780638aaa2284146105af5780639010d07c146105cf57806391d14854146105ef578063a217fddf1461060f57600080fd5b806336568abe116101dd57806356f0406d116101a157806356f0406d1461048d57806359927044146104ad57806361d027b3146104ea578063659bdfc61461051e5780636dfa8e521461053e5780636e04ff0d1461055e57600080fd5b806336568abe146103fa57806338c64d2f1461041a5780634297dcbe1461043a5780634585e33b1461045a57806347e7ef241461047a57600080fd5b8063278b39de11610224578063278b39de14610329578063279e3415146103495780632ee99d3e146103a75780632f2ff15d146103c75780633138809d146103e757600080fd5b806301ffc9a7146102615780630ae30cb0146102965780631525ff7d146102b85780631f615023146102d8578063248a9ca3146102eb575b600080fd5b34801561026d57600080fd5b5061028161027c366004613316565b610933565b60405190151581526020015b60405180910390f35b3480156102a257600080fd5b506102b66102b1366004613355565b61095e565b005b3480156102c457600080fd5b506102b66102d3366004613355565b610a47565b6102b66102e6366004613372565b610ada565b3480156102f757600080fd5b5061031b6103063660046133b8565b60009081526020819052604090206001015490565b60405190815260200161028d565b34801561033557600080fd5b5061031b6103443660046133d1565b610b5a565b34801561035557600080fd5b5061038f610364366004613355565b6001600160a01b0316600090815260036020526040902054600160201b90046001600160401b031690565b6040516001600160401b03909116815260200161028d565b3480156103b357600080fd5b506102b66103c236600461340f565b610ba3565b3480156103d357600080fd5b506102b66103e2366004613485565b610d51565b6102b66103f53660046133d1565b610d7b565b34801561040657600080fd5b506102b6610415366004613485565b610dfc565b34801561042657600080fd5b506102b6610435366004613355565b610e7a565b34801561044657600080fd5b506102b66104553660046133d1565b610f1a565b34801561046657600080fd5b506102b66104753660046134b5565b610fcd565b6102b66104883660046133d1565b611131565b34801561049957600080fd5b506102b66104a8366004613526565b6111fa565b3480156104b957600080fd5b506002546104d29061010090046001600160a01b031681565b6040516001600160a01b03909116815260200161028d565b3480156104f657600080fd5b506104d27f000000000000000000000000000000000000000000000000000000000000000081565b34801561052a57600080fd5b506102b66105393660046133d1565b6112c2565b34801561054a57600080fd5b506102b661055936600461355b565b611375565b34801561056a57600080fd5b5061057e6105793660046134b5565b61144b565b60405161028d9291906135e5565b34801561059857600080fd5b506105a16115cd565b60405161028d929190613600565b3480156105bb57600080fd5b506102b66105ca366004613692565b6117aa565b3480156105db57600080fd5b506104d26105ea3660046136c0565b61180d565b3480156105fb57600080fd5b5061028161060a366004613485565b611825565b34801561061b57600080fd5b5061031b600081565b34801561063057600080fd5b5061063961184e565b60405161028d919061375a565b34801561065257600080fd5b5061031b600080516020613d7e83398151915281565b34801561067457600080fd5b5061068861068336600461388a565b611c22565b60405161028d91906138ec565b3480156106a157600080fd5b506102b66106b036600461394e565b611d16565b3480156106c157600080fd5b506102b66106d0366004613692565b611eb4565b3480156106e157600080fd5b5061031b6106f03660046133b8565b611f76565b6102b66107033660046133d1565b611f8d565b34801561071457600080fd5b50610281610723366004613355565b611fe3565b34801561073457600080fd5b506102b6610743366004613355565b61210c565b34801561075457600080fd5b506102b6610763366004613485565b612220565b34801561077457600080fd5b506104d2610783366004613355565b612245565b34801561079457600080fd5b506108766107a3366004613355565b6003602081815260009283526040928390208054600182015460028301548651610120810188529584015461ffff808216885262010000808304821697890197909752600160201b808304821699890199909952600160301b820481166060890152600160401b90910481166080880152600485015460a0880152600585015460c0880152600685015460e08801526007909401546101008088019190915260ff808516989185041696958404909416949383046001600160401b031693600160601b9093046001600160a01b03169288565b60405161028d98979695949392919061397c565b34801561089657600080fd5b506105a161227a565b3480156108ab57600080fd5b506102b66108ba3660046133d1565b6123d9565b3480156108cb57600080fd5b5061031b7f39780592ddb1e73f2a037f166ec57ba042082746f5c0b9fe56ea386e00369a9881565b3480156108ff57600080fd5b5061031b61090e366004613355565b6125bc565b34801561091f57600080fd5b5061031b61092e366004613355565b6125ea565b60006001600160e01b03198216635a05180f60e01b1480610958575061095882612972565b92915050565b6001600160a01b03811660009081526003602081905260409091206006810154600782015491909201919081156109c157600060038401556109c17f000000000000000000000000000000000000000000000000000000000000000085846129a7565b80156109ea57600060048401556002546109ea9061010090046001600160a01b031685836129a7565b811515806109f757508015155b15610a415760408051838152602081018390526001600160a01b038616917f0146f1701c23c89f761280798d36d6c4e3acb349438456f5da8f83a2f5dd8cdc910160405180910390a25b50505050565b6000610a52816129ff565b6001600160a01b038216610a7957604051630d23cf4160e11b815260040160405180910390fd5b60028054610100600160a81b0319166101006001600160a01b038581168202929092179283905560405192041681527fc6a5dd316fe9d0339f2769deab7e31f64c8f5b101ffd85dfc9a83dbeaf2e69da906020015b60405180910390a15050565b600080516020613d7e833981519152610af2816129ff565b610afc8483612a0c565b610b078585856129a7565b836001600160a01b03167f634235fcf5af0adbca1a405ec65f6f6c08f55e1f379c2c45cd10f23cb29e0e31610b3b866125ea565b6040805191825260208201879052015b60405180910390a25050505050565b6001600160a01b038216600090815260036020526040812054829062010000900461ffff16610b88856125ea565b610b9291906139f4565b610b9c9190613a13565b9392505050565b6000610bae816129ff565b6000838584610bbd898b613a35565b610bc79190613a35565b610bd19190613a35565b610bdb9190613a35565b90508061ffff1661271014610c0e576040516318410e1160e21b815261ffff821660048201526024015b60405180910390fd5b6000600360008a6001600160a01b03166001600160a01b031681526020019081526020016000206003019050878160000160006101000a81548161ffff021916908361ffff160217905550868160000160026101000a81548161ffff021916908361ffff160217905550858160000160046101000a81548161ffff021916908361ffff160217905550848160000160066101000a81548161ffff021916908361ffff160217905550838160000160086101000a81548161ffff021916908361ffff160217905550886001600160a01b03167f87512489f5b5226512d8f1bfede20d9e809ff4042f028da79c833ed04baa83978989898989604051610d3e95949392919061ffff95861681529385166020850152918416604084015283166060830152909116608082015260a00190565b60405180910390a2505050505050505050565b600082815260208190526040902060010154610d6c816129ff565b610d768383612bcd565b505050565b600080516020613d7e833981519152610d93816129ff565b826001600160a01b03167f812b76b477469edc716929cbf7ed54e3d9c1a68d8b9f8290dbabcda54d96fcbe610dc7856125ea565b6001600160a01b03861615610ddc5784610dde565b345b604080519283526020830191909152015b60405180910390a2505050565b6001600160a01b0381163314610e6c5760405162461bcd60e51b815260206004820152602f60248201527f416363657373436f6e74726f6c3a2063616e206f6e6c792072656e6f756e636560448201526e103937b632b9903337b91039b2b63360891b6064820152608401610c05565b610e768282612bef565b5050565b6001600160a01b038116600090815260036020526040902060058101548015801590610eb657508154600160601b90046001600160a01b031615155b15610d7657600060058301558154610edf90600160601b90046001600160a01b031684836129a7565b826001600160a01b03167f1aa0fc6b9bc54a055d93b640b2c7313e0bd2944482e0b6b5fec7048bbdaacd8182604051610def91815260200190565b6001600160a01b0380831660009081526003602052604081205490918491600160601b90041680610f5457610f4f8333612c11565b610f7d565b336001600160a01b03821614610f7d57604051634ca8886760e01b815260040160405180910390fd5b6001600160a01b03851660008181526003602052604090819020600101869055517f8b4a07860448b613116df3f175c837980eceaca7d1dc5143c46a20ab31ec00f990610b4b9087815260200190565b600080610fdc83850185613a50565b6001600160a01b03818116600090815260036020818152604080842081516101008082018452825460ff80821615158452828204161515838701526201000080820461ffff90811685880152600160201b8084046001600160401b0316606080880191909152600160601b909404909b16608080870191909152600187015460a080880191909152600288015460c080890191909152895161012081018b529b8901548085168d5294850484169a8c019a909a529b83048216978a0197909752600160301b8204811692890192909252600160401b90041693860193909352600482015496850196909652600581015492840192909252600682015460e080850191909152600790920154908301528301529294509092509083801561110457611104613a72565b14801561111c57508060c001518160e0015160c00151115b1561112a5761112a82610e7a565b5050505050565b6001600160a01b0380831660009081526003602052604081205490918491600160601b9004168061116b576111668333612c11565b611194565b336001600160a01b0382161461119457604051634ca8886760e01b815260040160405180910390fd5b6001600160a01b0385166111aa573493506111bf565b6111bf6001600160a01b038616333087612c75565b846001600160a01b03167fe1fffcc4923d04b559f4d29a8bfc6cda04eb5b0d3c460751c2402c5c5cc9109c85604051610b4b91815260200190565b6001600160a01b0380831660009081526003602052604081205490918491600160601b900416806112345761122f8333612c11565b61125d565b336001600160a01b0382161461125d57604051634ca8886760e01b815260040160405180910390fd5b6001600160a01b038516600081815260036020908152604091829020805463ffff000019166201000061ffff8a169081029190911790915591519182527f68288b0936dd994d19323ee940b2703e7bf46fae2552319d60dc1239ba52ec689101610b4b565b6001600160a01b0380831660009081526003602052604081205490918491600160601b900416806112fc576112f78333612c11565b611325565b336001600160a01b0382161461132557604051634ca8886760e01b815260040160405180910390fd5b6001600160a01b03851660008181526003602052604090819020600201869055517fc299d8f578e9777556514dc79b1c053fe9912dbc8424518c97262734a96e809590610b4b9087815260200190565b6001600160a01b0380831660009081526003602052604081205490918491600160601b900416806113af576113aa8333612c11565b6113d8565b336001600160a01b038216146113d857604051634ca8886760e01b815260040160405180910390fd5b6001600160a01b03851660008181526003602090815260409182902080546bffffffffffffffff000000001916600160201b6001600160401b038a169081029190911790915591519182527fae367543cf47ca7e51a9f3f92711553aa33777847f719f7e2821ea8d846ed0e19101610b4b565b60006060818061145d85870187613a50565b9092509050600082801561147357611473613a72565b036115c4576001600160a01b0381811660009081526003602081815260409283902083516101008082018652825460ff80821615158452828204161515838601526201000080820461ffff908116858a0152600160201b8084046001600160401b0316606080880191909152600160601b909404909a16608080870191909152600187015460a080880191909152600288015460c08089019182528c5161012081018e529b8a01548086168d5295860485169a8c019a909a529b840483169a8a019a909a52600160301b8304821693890193909352600160401b90910416908601526004830154958501959095526005820154928401928352600682015460e0808601919091526007909201549484019490945283019190915291519151909110156115c2576001945082826040516020016115b0929190613a88565b60405160208183030381529060405293505b505b50509250929050565b6060807f39780592ddb1e73f2a037f166ec57ba042082746f5c0b9fe56ea386e00369a986115fa816129ff565b60025460009060ff166001600160401b0381111561161a5761161a613ac2565b604051908082528060200260200182016040528015611643578160200160208202803683370190505b5060025490915060009060ff166001600160401b0381111561166757611667613ac2565b604051908082528060200260200182016040528015611690578160200160208202803683370190505b50905060005b60025460ff908116908216101561179f5760ff81166000908152600460208181526040808420546001600160a01b0316808552600390925290922090810154801561178957600060048301556116ed3384836129a7565b826001600160a01b03167fca64dbcaf91abfb066e7a5163f1d135f8f48f2cbdb0395e3b35cc278ebbd340b8260405161172891815260200190565b60405180910390a282868560ff168151811061174657611746613ad8565b60200260200101906001600160a01b031690816001600160a01b03168152505080858560ff168151811061177c5761177c613ad8565b6020026020010181815250505b505050808061179790613aee565b915050611696565b509093509150509091565b60006117b5816129ff565b6001600160a01b038316600081815260036020908152604091829020805460ff191686151590811790915591519182527fe589eb036e62c07e307aa4d441bd39c81e8bd86f349eaacb0caa06b1477f7f9a9101610def565b6000828152600160205260408120610b9c9083612ce0565b6000918252602082815260408084206001600160a01b0393909316845291905290205460ff1690565b60025460609060009060ff166001600160401b0381111561187157611871613ac2565b6040519080825280602002602001820160405280156118aa57816020015b611897613259565b81526020019060019003908161188f5790505b50905060005b60025460ff9081169082161015611c1c5760ff8181166000908152600460208181526040808420546001600160a01b03908116808652600380855295839020835161010080820186528254808b1615158352818104909a1615158288015262010000808b0461ffff90811684890152600160201b808d046001600160401b0316606080870191909152600160601b909d04909716608080860191909152600186015460a080870191909152600287015460c0808801919091528a5161012081018c529d8801548085168f5294850484169b8e019b909b529783048216988c0198909852600160301b820481169b8b019b909b52600160401b9004909916948801949094529485015491860191909152600584015492850192909252600683015460e08086019190915260079093015494840194909452908301919091529081611a82576040518060a00160405280601260ff168152602001836001600160a01b031681526020016040518060400160405280600381526020016208aa8960eb1b81525081526020016040518060400160405280600381526020016208aa8960eb1b815250815260200182815250848460ff1681518110611a7257611a72613ad8565b6020026020010181905250611c07565b60008290506040518060a00160405280826001600160a01b031663313ce5676040518163ffffffff1660e01b8152600401602060405180830381865afa158015611ad0573d6000803e3d6000fd5b505050506040513d601f19601f82011682018060405250810190611af49190613b0d565b60ff168152602001846001600160a01b03168152602001826001600160a01b03166306fdde036040518163ffffffff1660e01b8152600401600060405180830381865afa158015611b49573d6000803e3d6000fd5b505050506040513d6000823e601f3d908101601f19168201604052611b719190810190613b30565b8152602001826001600160a01b03166395d89b416040518163ffffffff1660e01b8152600401600060405180830381865afa158015611bb4573d6000803e3d6000fd5b505050506040513d6000823e601f3d908101601f19168201604052611bdc9190810190613b30565b815260200183815250858560ff1681518110611bfa57611bfa613ad8565b6020026020010181905250505b50508080611c1490613aee565b9150506118b0565b50919050565b6060816001600160401b03811115611c3c57611c3c613ac2565b604051908082528060200260200182016040528015611c6f57816020015b6060815260200190600190039081611c5a5790505b50905060005b82811015611d0f57611cdf30858584818110611c9357611c93613ad8565b9050602002810190611ca59190613bd1565b8080601f016020809104026020016040519081016040528093929190818152602001838380828437600092019190915250612cec92505050565b828281518110611cf157611cf1613ad8565b60200260200101819052508080611d0790613c1e565b915050611c75565b5092915050565b6001600160a01b0380831660009081526003602052604081205490918491600160601b90041680611d5057611d4b8333612c11565b611d79565b336001600160a01b03821614611d7957604051634ca8886760e01b815260040160405180910390fd5b6000611d92600080516020613d7e833981519152611f76565b905060005b81811015611e2757611db7600080516020613d7e8339815191528261180d565b60405163383e6aaf60e11b81526001600160a01b038981166004830152919091169063707cd55e90602401600060405180830381600087803b158015611dfc57600080fd5b505af1158015611e10573d6000803e3d6000fd5b505050508080611e1f90613c1e565b915050611d97565b50611e3186610e7a565b611e3e866108ba886125ea565b6001600160a01b0386811660008181526003602090815260409182902080546bffffffffffffffffffffffff16600160601b958b16958602179055905192835290917fc991529379552af6d0789cc899d5180a270a4bc3b1a3892adcac3d95f93dda1d91015b60405180910390a2505050505050565b6001600160a01b0380831660009081526003602052604081205490918491600160601b90041680611eee57611ee98333612c11565b611f17565b336001600160a01b03821614611f1757604051634ca8886760e01b815260040160405180910390fd5b6001600160a01b0385166000818152600360205260409081902080548715156101000261ff0019909116179055517f624dd6809915867c3c11279c2699633040681f0e4efb0fa9a193217a11903c6090610b4b90871515815260200190565b600081815260016020526040812061095890612d11565b600080516020613d7e833981519152611fa5816129ff565b611faf8383612a0c565b826001600160a01b03167f71928ab56dd9fb6df8072adf5fefb4d17ed280fa21652433fe96d7d6729bd328610dc7856125ea565b6001600160a01b03818116600090815260036020818152604080842081516101008082018452825460ff80821615158452828204161515838701526201000080820461ffff90811685880152600160201b8084046001600160401b0316606080880191909152600160601b909404909b16608080870191909152600187015460a080880191909152600288015460c080890191909152895161012081018b529b8901548085168d5294850484169a8c019a909a529b83048216978a0197909752600160301b8204811692890192909252600160401b90041693860193909352600482015496850196909652600581015492840192909252600682015460e0808501919091526007909201549083015283015281519091908015610b9c5750602001511592915050565b6000612117816129ff565b60025460ff16156121885760005b60025460ff90811690821610156121865760ff81166000908152600460205260409020546001600160a01b0380851691160361217457604051632ae3f45d60e11b815260040160405180910390fd5b8061217e81613aee565b915050612125565b505b6002805460ff908116600090815260046020526040812080546001600160a01b0319166001600160a01b0387161790558254600193926121ca91859116613c37565b92506101000a81548160ff021916908360ff1602179055507fe473c74f34be27c1464d6624f14a0d7fd4e301cbfa29c3eba425d378c8a7ebe082604051610ace91906001600160a01b0391909116815260200190565b60008281526020819052604090206001015461223b816129ff565b610d768383612bef565b6001600160a01b038082166000908152600360205260408120549091600160601b909104168061095857610b9c60008061180d565b600254606090819060009060ff166001600160401b0381111561229f5761229f613ac2565b6040519080825280602002602001820160405280156122c8578160200160208202803683370190505b5060025490915060009060ff166001600160401b038111156122ec576122ec613ac2565b604051908082528060200260200182016040528015612315578160200160208202803683370190505b50905060005b60025460ff90811690821610156123cf5760ff81166000908152600460208181526040808420546001600160a01b031680855260039092529092209081015480156123b95782868560ff168151811061237657612376613ad8565b60200260200101906001600160a01b031690816001600160a01b03168152505080858560ff16815181106123ac576123ac613ad8565b6020026020010181815250505b50505080806123c790613aee565b91505061231b565b5090939092509050565b6001600160a01b0380831660009081526003602052604081205490918491600160601b900416806124135761240e8333612c11565b61243c565b336001600160a01b0382161461243c57604051634ca8886760e01b815260040160405180910390fd5b6000612447866125ea565b9050801561256a576001600160a01b038616600090815260036020526040902054610100900460ff1661248d576040516393b3a85d60e01b815260040160405180910390fd5b60006124a6600080516020613d7e833981519152611f76565b905060005b81811015612567576124cb600080516020613d7e8339815191528261180d565b60405163594043fd60e01b81526001600160a01b038a81166004830152919091169063594043fd90602401602060405180830381865afa158015612513573d6000803e3d6000fd5b505050506040513d601f19601f820116820180604052508101906125379190613c50565b156125555760405163055212b760e51b815260040160405180910390fd5b8061255f81613c1e565b9150506124ab565b50505b80851115612576578094505b6125813387876129a7565b856001600160a01b03167f884edad9ce6fa2440d8a54cc123490eb96d2768479d49ff9c7366125a942436486604051611ea491815260200190565b6001600160a01b038116600090815260036020526040812060010154908190036125e557506127105b919050565b6000806001600160a01b03831661260257504761266d565b6040516370a0823160e01b81523060048201526001600160a01b038416906370a0823190602401602060405180830381865afa158015612646573d6000803e3d6000fd5b505050506040513d601f19601f8201168201806040525081019061266a9190613c6d565b90505b6001600160a01b0383166000908152600360208181526040928390208351610120810185529281015461ffff8082168552620100008204811693850193909352600160201b8104831694840194909452600160301b840482166060840152600160401b909304166080820152600482015460a08201819052600583015460c08301819052600684015460e0840181905260079094015461010084018190529293916127189086613c86565b6127229190613c86565b61272c9190613c86565b6127369190613c86565b949350505050565b6127488282611825565b610e76576000828152602081815260408083206001600160a01b03851684529091529020805460ff1916600117905561277e3390565b6001600160a01b0316816001600160a01b0316837f2f8788117e7eff1d82e926ec794901d17c78024a50270940304540a733656f0d60405160405180910390a45050565b6000610b9c836001600160a01b038416612d1b565b606060006127e68360026139f4565b6127f1906002613c99565b6001600160401b0381111561280857612808613ac2565b6040519080825280601f01601f191660200182016040528015612832576020820181803683370190505b509050600360fc1b8160008151811061284d5761284d613ad8565b60200101906001600160f81b031916908160001a905350600f60fb1b8160018151811061287c5761287c613ad8565b60200101906001600160f81b031916908160001a90535060006128a08460026139f4565b6128ab906001613c99565b90505b6001811115612923576f181899199a1a9b1b9c1cb0b131b232b360811b85600f16601081106128df576128df613ad8565b1a60f81b8282815181106128f5576128f5613ad8565b60200101906001600160f81b031916908160001a90535060049490941c9361291c81613cac565b90506128ae565b508315610b9c5760405162461bcd60e51b815260206004820181905260248201527f537472696e67733a20686578206c656e67746820696e73756666696369656e746044820152606401610c05565b60006001600160e01b03198216637965db0b60e01b148061095857506301ffc9a760e01b6001600160e01b0319831614610958565b6001600160a01b0382166129eb576040516001600160a01b0384169082156108fc029083906000818181858888f19350505050158015610a41573d6000803e3d6000fd5b610d766001600160a01b0383168483612d6a565b612a098133612c11565b50565b6001600160a01b03821660009081526003602081905260408220018054909190600160201b900461ffff1615612a7d57815461271090612a5790600160201b900461ffff16856139f4565b612a619190613a13565b905080826002016000828254612a779190613c99565b90915550505b815460009061271090612a9a9062010000900461ffff16866139f4565b612aa49190613a13565b905080836001016000828254612aba9190613c99565b9091555050825460009061271090612ad69061ffff16876139f4565b612ae09190613a13565b845490915060009061271090612b0190600160301b900461ffff16886139f4565b612b0b9190613a13565b905080856003016000828254612b219190613c99565b9091555050845460009061271090612b4490600160401b900461ffff16896139f4565b612b4e9190613a13565b905080866004016000828254612b649190613c99565b9091555050604080518481526020810186905290810186905260608101839052608081018290526001600160a01b038916907fc73e6f5bcd4395126567ead7e4c14b7c52a5f0b9eabd3335a05e631646a127e39060a00160405180910390a25050505050505050565b612bd7828261273e565b6000828152600160205260409020610d7690826127c2565b612bf98282612d9a565b6000828152600160205260409020610d769082612dff565b612c1b8282611825565b610e7657612c33816001600160a01b031660146127d7565b612c3e8360206127d7565b604051602001612c4f929190613cc3565b60408051601f198184030181529082905262461bcd60e51b8252610c0591600401613d38565b6040516001600160a01b0380851660248301528316604482015260648101829052610a419085906323b872dd60e01b906084015b60408051601f198184030181529190526020810180516001600160e01b03166001600160e01b031990931692909217909152612e14565b6000610b9c8383612ee6565b6060610b9c8383604051806060016040528060278152602001613d9e60279139612f10565b6000610958825490565b6000818152600183016020526040812054612d6257508154600181810184556000848152602080822090930184905584548482528286019093526040902091909155610958565b506000610958565b6040516001600160a01b038316602482015260448101829052610d7690849063a9059cbb60e01b90606401612ca9565b612da48282611825565b15610e76576000828152602081815260408083206001600160a01b0385168085529252808320805460ff1916905551339285917ff6391f5c32d9c69d2a47ea670b442974b53935d1edc7fd64eb21e047a839171b9190a45050565b6000610b9c836001600160a01b038416612fed565b6000612e69826040518060400160405280602081526020017f5361666545524332303a206c6f772d6c6576656c2063616c6c206661696c6564815250856001600160a01b03166130e09092919063ffffffff16565b805190915015610d765780806020019051810190612e879190613c50565b610d765760405162461bcd60e51b815260206004820152602a60248201527f5361666545524332303a204552433230206f7065726174696f6e20646964206e6044820152691bdd081cdd58d8d9595960b21b6064820152608401610c05565b6000826000018281548110612efd57612efd613ad8565b9060005260206000200154905092915050565b60606001600160a01b0384163b612f785760405162461bcd60e51b815260206004820152602660248201527f416464726573733a2064656c65676174652063616c6c20746f206e6f6e2d636f6044820152651b9d1c9858dd60d21b6064820152608401610c05565b600080856001600160a01b031685604051612f939190613d4b565b600060405180830381855af49150503d8060008114612fce576040519150601f19603f3d011682016040523d82523d6000602084013e612fd3565b606091505b5091509150612fe38282866130ef565b9695505050505050565b600081815260018301602052604081205480156130d6576000613011600183613c86565b855490915060009061302590600190613c86565b905081811461308a57600086600001828154811061304557613045613ad8565b906000526020600020015490508087600001848154811061306857613068613ad8565b6000918252602080832090910192909255918252600188019052604090208390555b855486908061309b5761309b613d67565b600190038181906000526020600020016000905590558560010160008681526020019081526020016000206000905560019350505050610958565b6000915050610958565b60606127368484600085613128565b606083156130fe575081610b9c565b82511561310e5782518084602001fd5b8160405162461bcd60e51b8152600401610c059190613d38565b6060824710156131895760405162461bcd60e51b815260206004820152602660248201527f416464726573733a20696e73756666696369656e742062616c616e636520666f6044820152651c8818d85b1b60d21b6064820152608401610c05565b6001600160a01b0385163b6131e05760405162461bcd60e51b815260206004820152601d60248201527f416464726573733a2063616c6c20746f206e6f6e2d636f6e74726163740000006044820152606401610c05565b600080866001600160a01b031685876040516131fc9190613d4b565b60006040518083038185875af1925050503d8060008114613239576040519150601f19603f3d011682016040523d82523d6000602084013e61323e565b606091505b509150915061324e8282866130ef565b979650505050505050565b6040518060a00160405280600060ff16815260200160006001600160a01b031681526020016060815260200160608152602001613311604080516101008082018352600080835260208084018290528385018290526060808501839052608080860184905260a080870185905260c0808801869052885161012081018a528681529485018690529784018590529183018490528201839052810182905293840181905260e08481018290529184015290919082015290565b905290565b60006020828403121561332857600080fd5b81356001600160e01b031981168114610b9c57600080fd5b6001600160a01b0381168114612a0957600080fd5b60006020828403121561336757600080fd5b8135610b9c81613340565b6000806000806080858703121561338857600080fd5b843561339381613340565b935060208501356133a381613340565b93969395505050506040820135916060013590565b6000602082840312156133ca57600080fd5b5035919050565b600080604083850312156133e457600080fd5b82356133ef81613340565b946020939093013593505050565b803561ffff811681146125e557600080fd5b60008060008060008060c0878903121561342857600080fd5b863561343381613340565b9550613441602088016133fd565b945061344f604088016133fd565b935061345d606088016133fd565b925061346b608088016133fd565b915061347960a088016133fd565b90509295509295509295565b6000806040838503121561349857600080fd5b8235915060208301356134aa81613340565b809150509250929050565b600080602083850312156134c857600080fd5b82356001600160401b03808211156134df57600080fd5b818501915085601f8301126134f357600080fd5b81358181111561350257600080fd5b86602082850101111561351457600080fd5b60209290920196919550909350505050565b6000806040838503121561353957600080fd5b823561354481613340565b9150613552602084016133fd565b90509250929050565b6000806040838503121561356e57600080fd5b823561357981613340565b915060208301356001600160401b03811681146134aa57600080fd5b60005b838110156135b0578181015183820152602001613598565b50506000910152565b600081518084526135d1816020860160208601613595565b601f01601f19169290920160200192915050565b821515815260406020820152600061273660408301846135b9565b604080825283519082018190526000906020906060840190828701845b828110156136425781516001600160a01b03168452928401929084019060010161361d565b5050508381038285015284518082528583019183019060005b818110156136775783518352928401929184019160010161365b565b5090979650505050505050565b8015158114612a0957600080fd5b600080604083850312156136a557600080fd5b82356136b081613340565b915060208301356134aa81613684565b600080604083850312156136d357600080fd5b50508035926020909101359150565b61ffff808251168352806020830151166020840152806040830151166040840152506060810151613719606084018261ffff169052565b50608081015161372f608084018261ffff169052565b5060a0818101519083015260c0808201519083015260e0808201519083015261010090810151910152565b60006020808301818452808551808352604092508286019150828160051b87010184880160005b8381101561387c57888303603f190185528151805160ff168452878101516001600160a01b03168885015286810151610280888601819052906137c6828701826135b9565b915050606080830151868303828801526137e083826135b9565b925050608080840151935083511515818801528a84015160a0811515818a01528b860151915060c061ffff8316818b015284870151945060e0925061382f838b01866001600160401b03169052565b928601516001600160a01b03166101008a0152850151610120890152908401516101408801529092015191506138696101608601836136e2565b9588019593505090860190600101613781565b509098975050505050505050565b6000806020838503121561389d57600080fd5b82356001600160401b03808211156138b457600080fd5b818501915085601f8301126138c857600080fd5b8135818111156138d757600080fd5b8660208260051b850101111561351457600080fd5b6000602080830181845280855180835260408601915060408160051b870101925083870160005b8281101561394157603f1988860301845261392f8583516135b9565b94509285019290850190600101613913565b5092979650505050505050565b6000806040838503121561396157600080fd5b823561396c81613340565b915060208301356134aa81613340565b8815158152871515602082015261ffff871660408201526001600160401b03861660608201526001600160a01b038516608082015260a0810184905260c0810183905261020081016139d160e08301846136e2565b9998505050505050505050565b634e487b7160e01b600052601160045260246000fd5b6000816000190483118215151615613a0e57613a0e6139de565b500290565b600082613a3057634e487b7160e01b600052601260045260246000fd5b500490565b61ffff818116838216019080821115611d0f57611d0f6139de565b60008060408385031215613a6357600080fd5b82356001811061396c57600080fd5b634e487b7160e01b600052602160045260246000fd5b6040810160018410613aaa57634e487b7160e01b600052602160045260246000fd5b9281526001600160a01b039190911660209091015290565b634e487b7160e01b600052604160045260246000fd5b634e487b7160e01b600052603260045260246000fd5b600060ff821660ff8103613b0457613b046139de565b60010192915050565b600060208284031215613b1f57600080fd5b815160ff81168114610b9c57600080fd5b600060208284031215613b4257600080fd5b81516001600160401b0380821115613b5957600080fd5b818401915084601f830112613b6d57600080fd5b815181811115613b7f57613b7f613ac2565b604051601f8201601f19908116603f01168101908382118183101715613ba757613ba7613ac2565b81604052828152876020848701011115613bc057600080fd5b61324e836020830160208801613595565b6000808335601e19843603018112613be857600080fd5b8301803591506001600160401b03821115613c0257600080fd5b602001915036819003821315613c1757600080fd5b9250929050565b600060018201613c3057613c306139de565b5060010190565b60ff8181168382160190811115610958576109586139de565b600060208284031215613c6257600080fd5b8151610b9c81613684565b600060208284031215613c7f57600080fd5b5051919050565b81810381811115610958576109586139de565b80820180821115610958576109586139de565b600081613cbb57613cbb6139de565b506000190190565b7f416363657373436f6e74726f6c3a206163636f756e7420000000000000000000815260008351613cfb816017850160208801613595565b7001034b99036b4b9b9b4b733903937b6329607d1b6017918401918201528351613d2c816028840160208801613595565b01602801949350505050565b602081526000610b9c60208301846135b9565b60008251613d5d818460208701613595565b9190910192915050565b634e487b7160e01b600052603160045260246000fdfe6a64baf327d646d1bca72653e2a075d15fd6ac6d8cbd7f6ee03fc55875e0fa88416464726573733a206c6f772d6c6576656c2064656c65676174652063616c6c206661696c6564a26469706673582212203b57cbcda0e5763310d825ae30509c502e1e16161c02865b9f6b520ffde8cb3c64736f6c63430008100033","opcodes":"PUSH1 0xA0 PUSH1 0x40 MSTORE CALLVALUE DUP1 ISZERO PUSH3 0x11 JUMPI PUSH1 0x0 DUP1 REVERT JUMPDEST POP PUSH1 0x40 MLOAD PUSH3 0x44C9 CODESIZE SUB DUP1 PUSH3 0x44C9 DUP4 CODECOPY DUP2 ADD PUSH1 0x40 DUP2 SWAP1 MSTORE PUSH3 0x34 SWAP2 PUSH3 0x50C JUMP JUMPDEST PUSH1 0x1 PUSH1 0x1 PUSH1 0xA0 SHL SUB DUP3 AND PUSH3 0x5C JUMPI PUSH1 0x40 MLOAD PUSH4 0xD23CF41 PUSH1 0xE1 SHL DUP2 MSTORE PUSH1 0x4 ADD PUSH1 0x40 MLOAD DUP1 SWAP2 SUB SWAP1 REVERT JUMPDEST PUSH1 0x1 PUSH1 0x1 PUSH1 0xA0 SHL SUB DUP3 AND PUSH1 0x80 MSTORE PUSH3 0x76 PUSH1 0x0 CALLER PUSH3 0x89 JUMP JUMPDEST PUSH3 0x81 DUP2 PUSH3 0x99 JUMP JUMPDEST POP POP PUSH3 0x6AC JUMP JUMPDEST PUSH3 0x95 DUP3 DUP3 PUSH3 0x12E JUMP JUMPDEST POP POP JUMP JUMPDEST PUSH1 0x0 PUSH3 0xA6 DUP2 PUSH3 0x171 JUMP JUMPDEST PUSH1 0x1 PUSH1 0x1 PUSH1 0xA0 SHL SUB DUP3 AND PUSH3 0xCE JUMPI PUSH1 0x40 MLOAD PUSH4 0xD23CF41 PUSH1 0xE1 SHL DUP2 MSTORE PUSH1 0x4 ADD PUSH1 0x40 MLOAD DUP1 SWAP2 SUB SWAP1 REVERT JUMPDEST PUSH1 0x2 DUP1 SLOAD PUSH2 0x100 PUSH1 0x1 PUSH1 0xA8 SHL SUB NOT AND PUSH2 0x100 PUSH1 0x1 PUSH1 0x1 PUSH1 0xA0 SHL SUB DUP6 DUP2 AND DUP3 MUL SWAP3 SWAP1 SWAP3 OR SWAP3 DUP4 SWAP1 SSTORE PUSH1 0x40 MLOAD SWAP3 DIV AND DUP2 MSTORE PUSH32 0xC6A5DD316FE9D0339F2769DEAB7E31F64C8F5B101FFD85DFC9A83DBEAF2E69DA SWAP1 PUSH1 0x20 ADD PUSH1 0x40 MLOAD DUP1 SWAP2 SUB SWAP1 LOG1 POP POP JUMP JUMPDEST PUSH3 0x145 DUP3 DUP3 PUSH3 0x180 PUSH1 0x20 SHL PUSH3 0x273E OR PUSH1 0x20 SHR JUMP JUMPDEST PUSH1 0x0 DUP3 DUP2 MSTORE PUSH1 0x1 PUSH1 0x20 SWAP1 DUP2 MSTORE PUSH1 0x40 SWAP1 SWAP2 KECCAK256 PUSH3 0x16C SWAP2 DUP4 SWAP1 PUSH3 0x27C2 PUSH3 0x220 DUP3 SHL OR SWAP1 SHR JUMP JUMPDEST POP POP POP JUMP JUMPDEST PUSH3 0x17D DUP2 CALLER PUSH3 0x240 JUMP JUMPDEST POP JUMP JUMPDEST PUSH1 0x0 DUP3 DUP2 MSTORE PUSH1 0x20 DUP2 DUP2 MSTORE PUSH1 0x40 DUP1 DUP4 KECCAK256 PUSH1 0x1 PUSH1 0x1 PUSH1 0xA0 SHL SUB DUP6 AND DUP5 MSTORE SWAP1 SWAP2 MSTORE SWAP1 KECCAK256 SLOAD PUSH1 0xFF AND PUSH3 0x95 JUMPI PUSH1 0x0 DUP3 DUP2 MSTORE PUSH1 0x20 DUP2 DUP2 MSTORE PUSH1 0x40 DUP1 DUP4 KECCAK256 PUSH1 0x1 PUSH1 0x1 PUSH1 0xA0 SHL SUB DUP6 AND DUP5 MSTORE SWAP1 SWAP2 MSTORE SWAP1 KECCAK256 DUP1 SLOAD PUSH1 0xFF NOT AND PUSH1 0x1 OR SWAP1 SSTORE PUSH3 0x1DC CALLER SWAP1 JUMP JUMPDEST PUSH1 0x1 PUSH1 0x1 PUSH1 0xA0 SHL SUB AND DUP2 PUSH1 0x1 PUSH1 0x1 PUSH1 0xA0 SHL SUB AND DUP4 PUSH32 0x2F8788117E7EFF1D82E926EC794901D17C78024A50270940304540A733656F0D PUSH1 0x40 MLOAD PUSH1 0x40 MLOAD DUP1 SWAP2 SUB SWAP1 LOG4 POP POP JUMP JUMPDEST PUSH1 0x0 PUSH3 0x237 DUP4 PUSH1 0x1 PUSH1 0x1 PUSH1 0xA0 SHL SUB DUP5 AND PUSH3 0x2E4 JUMP JUMPDEST SWAP1 POP JUMPDEST SWAP3 SWAP2 POP POP JUMP JUMPDEST PUSH1 0x0 DUP3 DUP2 MSTORE PUSH1 0x20 DUP2 DUP2 MSTORE PUSH1 0x40 DUP1 DUP4 KECCAK256 PUSH1 0x1 PUSH1 0x1 PUSH1 0xA0 SHL SUB DUP6 AND DUP5 MSTORE SWAP1 SWAP2 MSTORE SWAP1 KECCAK256 SLOAD PUSH1 0xFF AND PUSH3 0x95 JUMPI PUSH3 0x28A DUP2 PUSH1 0x1 PUSH1 0x1 PUSH1 0xA0 SHL SUB AND PUSH1 0x14 PUSH3 0x336 PUSH1 0x20 SHL PUSH3 0x27D7 OR PUSH1 0x20 SHR JUMP JUMPDEST PUSH3 0x2A0 DUP4 PUSH1 0x20 PUSH3 0x27D7 PUSH3 0x336 DUP3 SHL OR DUP2 SHR JUMP JUMPDEST PUSH1 0x40 MLOAD PUSH1 0x20 ADD PUSH3 0x2B3 SWAP3 SWAP2 SWAP1 PUSH3 0x56A JUMP JUMPDEST PUSH1 0x40 DUP1 MLOAD PUSH1 0x1F NOT DUP2 DUP5 SUB ADD DUP2 MSTORE SWAP1 DUP3 SWAP1 MSTORE PUSH3 0x461BCD PUSH1 0xE5 SHL DUP3 MSTORE PUSH3 0x2DB SWAP2 PUSH1 0x4 ADD PUSH3 0x5E3 JUMP JUMPDEST PUSH1 0x40 MLOAD DUP1 SWAP2 SUB SWAP1 REVERT JUMPDEST PUSH1 0x0 DUP2 DUP2 MSTORE PUSH1 0x1 DUP4 ADD PUSH1 0x20 MSTORE PUSH1 0x40 DUP2 KECCAK256 SLOAD PUSH3 0x32D JUMPI POP DUP2 SLOAD PUSH1 0x1 DUP2 DUP2 ADD DUP5 SSTORE PUSH1 0x0 DUP5 DUP2 MSTORE PUSH1 0x20 DUP1 DUP3 KECCAK256 SWAP1 SWAP4 ADD DUP5 SWAP1 SSTORE DUP5 SLOAD DUP5 DUP3 MSTORE DUP3 DUP7 ADD SWAP1 SWAP4 MSTORE PUSH1 0x40 SWAP1 KECCAK256 SWAP2 SWAP1 SWAP2 SSTORE PUSH3 0x23A JUMP JUMPDEST POP PUSH1 0x0 PUSH3 0x23A JUMP JUMPDEST PUSH1 0x60 PUSH1 0x0 PUSH3 0x347 DUP4 PUSH1 0x2 PUSH3 0x62E JUMP JUMPDEST PUSH3 0x354 SWAP1 PUSH1 0x2 PUSH3 0x650 JUMP JUMPDEST PUSH1 0x1 PUSH1 0x1 PUSH1 0x40 SHL SUB DUP2 GT ISZERO PUSH3 0x36E JUMPI PUSH3 0x36E PUSH3 0x666 JUMP JUMPDEST PUSH1 0x40 MLOAD SWAP1 DUP1 DUP3 MSTORE DUP1 PUSH1 0x1F ADD PUSH1 0x1F NOT AND PUSH1 0x20 ADD DUP3 ADD PUSH1 0x40 MSTORE DUP1 ISZERO PUSH3 0x399 JUMPI PUSH1 0x20 DUP3 ADD DUP2 DUP1 CALLDATASIZE DUP4 CALLDATACOPY ADD SWAP1 POP JUMPDEST POP SWAP1 POP PUSH1 0x3 PUSH1 0xFC SHL DUP2 PUSH1 0x0 DUP2 MLOAD DUP2 LT PUSH3 0x3B7 JUMPI PUSH3 0x3B7 PUSH3 0x67C JUMP JUMPDEST PUSH1 0x20 ADD ADD SWAP1 PUSH1 0x1 PUSH1 0x1 PUSH1 0xF8 SHL SUB NOT AND SWAP1 DUP2 PUSH1 0x0 BYTE SWAP1 MSTORE8 POP PUSH1 0xF PUSH1 0xFB SHL DUP2 PUSH1 0x1 DUP2 MLOAD DUP2 LT PUSH3 0x3E9 JUMPI PUSH3 0x3E9 PUSH3 0x67C JUMP JUMPDEST PUSH1 0x20 ADD ADD SWAP1 PUSH1 0x1 PUSH1 0x1 PUSH1 0xF8 SHL SUB NOT AND SWAP1 DUP2 PUSH1 0x0 BYTE SWAP1 MSTORE8 POP PUSH1 0x0 PUSH3 0x40F DUP5 PUSH1 0x2 PUSH3 0x62E JUMP JUMPDEST PUSH3 0x41C SWAP1 PUSH1 0x1 PUSH3 0x650 JUMP JUMPDEST SWAP1 POP JUMPDEST PUSH1 0x1 DUP2 GT ISZERO PUSH3 0x49E JUMPI PUSH16 0x181899199A1A9B1B9C1CB0B131B232B3 PUSH1 0x81 SHL DUP6 PUSH1 0xF AND PUSH1 0x10 DUP2 LT PUSH3 0x454 JUMPI PUSH3 0x454 PUSH3 0x67C JUMP JUMPDEST BYTE PUSH1 0xF8 SHL DUP3 DUP3 DUP2 MLOAD DUP2 LT PUSH3 0x46D JUMPI PUSH3 0x46D PUSH3 0x67C JUMP JUMPDEST PUSH1 0x20 ADD ADD SWAP1 PUSH1 0x1 PUSH1 0x1 PUSH1 0xF8 SHL SUB NOT AND SWAP1 DUP2 PUSH1 0x0 BYTE SWAP1 MSTORE8 POP PUSH1 0x4 SWAP5 SWAP1 SWAP5 SHR SWAP4 PUSH3 0x496 DUP2 PUSH3 0x692 JUMP JUMPDEST SWAP1 POP PUSH3 0x41F JUMP JUMPDEST POP DUP4 ISZERO PUSH3 0x237 JUMPI PUSH1 0x40 MLOAD PUSH3 0x461BCD PUSH1 0xE5 SHL DUP2 MSTORE PUSH1 0x20 PUSH1 0x4 DUP3 ADD DUP2 SWAP1 MSTORE PUSH1 0x24 DUP3 ADD MSTORE PUSH32 0x537472696E67733A20686578206C656E67746820696E73756666696369656E74 PUSH1 0x44 DUP3 ADD MSTORE PUSH1 0x64 ADD PUSH3 0x2DB JUMP JUMPDEST DUP1 MLOAD PUSH1 0x1 PUSH1 0x1 PUSH1 0xA0 SHL SUB DUP2 AND DUP2 EQ PUSH3 0x507 JUMPI PUSH1 0x0 DUP1 REVERT JUMPDEST SWAP2 SWAP1 POP JUMP JUMPDEST PUSH1 0x0 DUP1 PUSH1 0x40 DUP4 DUP6 SUB SLT ISZERO PUSH3 0x520 JUMPI PUSH1 0x0 DUP1 REVERT JUMPDEST PUSH3 0x52B DUP4 PUSH3 0x4EF JUMP JUMPDEST SWAP2 POP PUSH3 0x53B PUSH1 0x20 DUP5 ADD PUSH3 0x4EF JUMP JUMPDEST SWAP1 POP SWAP3 POP SWAP3 SWAP1 POP JUMP JUMPDEST PUSH1 0x0 JUMPDEST DUP4 DUP2 LT ISZERO PUSH3 0x561 JUMPI DUP2 DUP2 ADD MLOAD DUP4 DUP3 ADD MSTORE PUSH1 0x20 ADD PUSH3 0x547 JUMP JUMPDEST POP POP PUSH1 0x0 SWAP2 ADD MSTORE JUMP JUMPDEST PUSH32 0x416363657373436F6E74726F6C3A206163636F756E7420000000000000000000 DUP2 MSTORE PUSH1 0x0 DUP4 MLOAD PUSH3 0x5A4 DUP2 PUSH1 0x17 DUP6 ADD PUSH1 0x20 DUP9 ADD PUSH3 0x544 JUMP JUMPDEST PUSH17 0x1034B99036B4B9B9B4B733903937B6329 PUSH1 0x7D SHL PUSH1 0x17 SWAP2 DUP5 ADD SWAP2 DUP3 ADD MSTORE DUP4 MLOAD PUSH3 0x5D7 DUP2 PUSH1 0x28 DUP5 ADD PUSH1 0x20 DUP9 ADD PUSH3 0x544 JUMP JUMPDEST ADD PUSH1 0x28 ADD SWAP5 SWAP4 POP POP POP POP JUMP JUMPDEST PUSH1 0x20 DUP2 MSTORE PUSH1 0x0 DUP3 MLOAD DUP1 PUSH1 0x20 DUP5 ADD MSTORE PUSH3 0x604 DUP2 PUSH1 0x40 DUP6 ADD PUSH1 0x20 DUP8 ADD PUSH3 0x544 JUMP JUMPDEST PUSH1 0x1F ADD PUSH1 0x1F NOT AND SWAP2 SWAP1 SWAP2 ADD PUSH1 0x40 ADD SWAP3 SWAP2 POP POP JUMP JUMPDEST PUSH4 0x4E487B71 PUSH1 0xE0 SHL PUSH1 0x0 MSTORE PUSH1 0x11 PUSH1 0x4 MSTORE PUSH1 0x24 PUSH1 0x0 REVERT JUMPDEST PUSH1 0x0 DUP2 PUSH1 0x0 NOT DIV DUP4 GT DUP3 ISZERO ISZERO AND ISZERO PUSH3 0x64B JUMPI PUSH3 0x64B PUSH3 0x618 JUMP JUMPDEST POP MUL SWAP1 JUMP JUMPDEST DUP1 DUP3 ADD DUP1 DUP3 GT ISZERO PUSH3 0x23A JUMPI PUSH3 0x23A PUSH3 0x618 JUMP JUMPDEST PUSH4 0x4E487B71 PUSH1 0xE0 SHL PUSH1 0x0 MSTORE PUSH1 0x41 PUSH1 0x4 MSTORE PUSH1 0x24 PUSH1 0x0 REVERT JUMPDEST PUSH4 0x4E487B71 PUSH1 0xE0 SHL PUSH1 0x0 MSTORE PUSH1 0x32 PUSH1 0x4 MSTORE PUSH1 0x24 PUSH1 0x0 REVERT JUMPDEST PUSH1 0x0 DUP2 PUSH3 0x6A4 JUMPI PUSH3 0x6A4 PUSH3 0x618 JUMP JUMPDEST POP PUSH1 0x0 NOT ADD SWAP1 JUMP JUMPDEST PUSH1 0x80 MLOAD PUSH2 0x3DFA PUSH3 0x6CF PUSH1 0x0 CODECOPY PUSH1 0x0 DUP2 DUP2 PUSH2 0x4FC ADD MSTORE PUSH2 0x99B ADD MSTORE PUSH2 0x3DFA PUSH1 0x0 RETURN INVALID PUSH1 0x80 PUSH1 0x40 MSTORE PUSH1 0x4 CALLDATASIZE LT PUSH2 0x25C JUMPI PUSH1 0x0 CALLDATALOAD PUSH1 0xE0 SHR DUP1 PUSH4 0x802AD8FB GT PUSH2 0x144 JUMPI DUP1 PUSH4 0xCA7A8769 GT PUSH2 0xB6 JUMPI DUP1 PUSH4 0xE4860339 GT PUSH2 0x7A JUMPI DUP1 PUSH4 0xE4860339 EQ PUSH2 0x788 JUMPI DUP1 PUSH4 0xED442E14 EQ PUSH2 0x88A JUMPI DUP1 PUSH4 0xF3FEF3A3 EQ PUSH2 0x89F JUMPI DUP1 PUSH4 0xF6AE2204 EQ PUSH2 0x8BF JUMPI DUP1 PUSH4 0xF6B2A2F1 EQ PUSH2 0x8F3 JUMPI DUP1 PUSH4 0xF8B2CB4F EQ PUSH2 0x913 JUMPI PUSH1 0x0 DUP1 REVERT JUMPDEST DUP1 PUSH4 0xCA7A8769 EQ PUSH2 0x6F5 JUMPI DUP1 PUSH4 0xCBE230C3 EQ PUSH2 0x708 JUMPI DUP1 PUSH4 0xD48BFCA7 EQ PUSH2 0x728 JUMPI DUP1 PUSH4 0xD547741F EQ PUSH2 0x748 JUMPI DUP1 PUSH4 0xDC17C9CA EQ PUSH2 0x768 JUMPI PUSH1 0x0 DUP1 REVERT JUMPDEST DUP1 PUSH4 0xAA6CA808 GT PUSH2 0x108 JUMPI DUP1 PUSH4 0xAA6CA808 EQ PUSH2 0x624 JUMPI DUP1 PUSH4 0xAB400706 EQ PUSH2 0x646 JUMPI DUP1 PUSH4 0xAC9650D8 EQ PUSH2 0x668 JUMPI DUP1 PUSH4 0xBC3EC383 EQ PUSH2 0x695 JUMPI DUP1 PUSH4 0xC437AFDE EQ PUSH2 0x6B5 JUMPI DUP1 PUSH4 0xCA15C873 EQ PUSH2 0x6D5 JUMPI PUSH1 0x0 DUP1 REVERT JUMPDEST DUP1 PUSH4 0x802AD8FB EQ PUSH2 0x58C JUMPI DUP1 PUSH4 0x8AAA2284 EQ PUSH2 0x5AF JUMPI DUP1 PUSH4 0x9010D07C EQ PUSH2 0x5CF JUMPI DUP1 PUSH4 0x91D14854 EQ PUSH2 0x5EF JUMPI DUP1 PUSH4 0xA217FDDF EQ PUSH2 0x60F JUMPI PUSH1 0x0 DUP1 REVERT JUMPDEST DUP1 PUSH4 0x36568ABE GT PUSH2 0x1DD JUMPI DUP1 PUSH4 0x56F0406D GT PUSH2 0x1A1 JUMPI DUP1 PUSH4 0x56F0406D EQ PUSH2 0x48D JUMPI DUP1 PUSH4 0x59927044 EQ PUSH2 0x4AD JUMPI DUP1 PUSH4 0x61D027B3 EQ PUSH2 0x4EA JUMPI DUP1 PUSH4 0x659BDFC6 EQ PUSH2 0x51E JUMPI DUP1 PUSH4 0x6DFA8E52 EQ PUSH2 0x53E JUMPI DUP1 PUSH4 0x6E04FF0D EQ PUSH2 0x55E JUMPI PUSH1 0x0 DUP1 REVERT JUMPDEST DUP1 PUSH4 0x36568ABE EQ PUSH2 0x3FA JUMPI DUP1 PUSH4 0x38C64D2F EQ PUSH2 0x41A JUMPI DUP1 PUSH4 0x4297DCBE EQ PUSH2 0x43A JUMPI DUP1 PUSH4 0x4585E33B EQ PUSH2 0x45A JUMPI DUP1 PUSH4 0x47E7EF24 EQ PUSH2 0x47A JUMPI PUSH1 0x0 DUP1 REVERT JUMPDEST DUP1 PUSH4 0x278B39DE GT PUSH2 0x224 JUMPI DUP1 PUSH4 0x278B39DE EQ PUSH2 0x329 JUMPI DUP1 PUSH4 0x279E3415 EQ PUSH2 0x349 JUMPI DUP1 PUSH4 0x2EE99D3E EQ PUSH2 0x3A7 JUMPI DUP1 PUSH4 0x2F2FF15D EQ PUSH2 0x3C7 JUMPI DUP1 PUSH4 0x3138809D EQ PUSH2 0x3E7 JUMPI PUSH1 0x0 DUP1 REVERT JUMPDEST DUP1 PUSH4 0x1FFC9A7 EQ PUSH2 0x261 JUMPI DUP1 PUSH4 0xAE30CB0 EQ PUSH2 0x296 JUMPI DUP1 PUSH4 0x1525FF7D EQ PUSH2 0x2B8 JUMPI DUP1 PUSH4 0x1F615023 EQ PUSH2 0x2D8 JUMPI DUP1 PUSH4 0x248A9CA3 EQ PUSH2 0x2EB JUMPI JUMPDEST PUSH1 0x0 DUP1 REVERT JUMPDEST CALLVALUE DUP1 ISZERO PUSH2 0x26D JUMPI PUSH1 0x0 DUP1 REVERT JUMPDEST POP PUSH2 0x281 PUSH2 0x27C CALLDATASIZE PUSH1 0x4 PUSH2 0x3316 JUMP JUMPDEST PUSH2 0x933 JUMP JUMPDEST PUSH1 0x40 MLOAD SWAP1 ISZERO ISZERO DUP2 MSTORE PUSH1 0x20 ADD JUMPDEST PUSH1 0x40 MLOAD DUP1 SWAP2 SUB SWAP1 RETURN JUMPDEST CALLVALUE DUP1 ISZERO PUSH2 0x2A2 JUMPI PUSH1 0x0 DUP1 REVERT JUMPDEST POP PUSH2 0x2B6 PUSH2 0x2B1 CALLDATASIZE PUSH1 0x4 PUSH2 0x3355 JUMP JUMPDEST PUSH2 0x95E JUMP JUMPDEST STOP JUMPDEST CALLVALUE DUP1 ISZERO PUSH2 0x2C4 JUMPI PUSH1 0x0 DUP1 REVERT JUMPDEST POP PUSH2 0x2B6 PUSH2 0x2D3 CALLDATASIZE PUSH1 0x4 PUSH2 0x3355 JUMP JUMPDEST PUSH2 0xA47 JUMP JUMPDEST PUSH2 0x2B6 PUSH2 0x2E6 CALLDATASIZE PUSH1 0x4 PUSH2 0x3372 JUMP JUMPDEST PUSH2 0xADA JUMP JUMPDEST CALLVALUE DUP1 ISZERO PUSH2 0x2F7 JUMPI PUSH1 0x0 DUP1 REVERT JUMPDEST POP PUSH2 0x31B PUSH2 0x306 CALLDATASIZE PUSH1 0x4 PUSH2 0x33B8 JUMP JUMPDEST PUSH1 0x0 SWAP1 DUP2 MSTORE PUSH1 0x20 DUP2 SWAP1 MSTORE PUSH1 0x40 SWAP1 KECCAK256 PUSH1 0x1 ADD SLOAD SWAP1 JUMP JUMPDEST PUSH1 0x40 MLOAD SWAP1 DUP2 MSTORE PUSH1 0x20 ADD PUSH2 0x28D JUMP JUMPDEST CALLVALUE DUP1 ISZERO PUSH2 0x335 JUMPI PUSH1 0x0 DUP1 REVERT JUMPDEST POP PUSH2 0x31B PUSH2 0x344 CALLDATASIZE PUSH1 0x4 PUSH2 0x33D1 JUMP JUMPDEST PUSH2 0xB5A JUMP JUMPDEST CALLVALUE DUP1 ISZERO PUSH2 0x355 JUMPI PUSH1 0x0 DUP1 REVERT JUMPDEST POP PUSH2 0x38F PUSH2 0x364 CALLDATASIZE PUSH1 0x4 PUSH2 0x3355 JUMP JUMPDEST PUSH1 0x1 PUSH1 0x1 PUSH1 0xA0 SHL SUB AND PUSH1 0x0 SWAP1 DUP2 MSTORE PUSH1 0x3 PUSH1 0x20 MSTORE PUSH1 0x40 SWAP1 KECCAK256 SLOAD PUSH1 0x1 PUSH1 0x20 SHL SWAP1 DIV PUSH1 0x1 PUSH1 0x1 PUSH1 0x40 SHL SUB AND SWAP1 JUMP JUMPDEST PUSH1 0x40 MLOAD PUSH1 0x1 PUSH1 0x1 PUSH1 0x40 SHL SUB SWAP1 SWAP2 AND DUP2 MSTORE PUSH1 0x20 ADD PUSH2 0x28D JUMP JUMPDEST CALLVALUE DUP1 ISZERO PUSH2 0x3B3 JUMPI PUSH1 0x0 DUP1 REVERT JUMPDEST POP PUSH2 0x2B6 PUSH2 0x3C2 CALLDATASIZE PUSH1 0x4 PUSH2 0x340F JUMP JUMPDEST PUSH2 0xBA3 JUMP JUMPDEST CALLVALUE DUP1 ISZERO PUSH2 0x3D3 JUMPI PUSH1 0x0 DUP1 REVERT JUMPDEST POP PUSH2 0x2B6 PUSH2 0x3E2 CALLDATASIZE PUSH1 0x4 PUSH2 0x3485 JUMP JUMPDEST PUSH2 0xD51 JUMP JUMPDEST PUSH2 0x2B6 PUSH2 0x3F5 CALLDATASIZE PUSH1 0x4 PUSH2 0x33D1 JUMP JUMPDEST PUSH2 0xD7B JUMP JUMPDEST CALLVALUE DUP1 ISZERO PUSH2 0x406 JUMPI PUSH1 0x0 DUP1 REVERT JUMPDEST POP PUSH2 0x2B6 PUSH2 0x415 CALLDATASIZE PUSH1 0x4 PUSH2 0x3485 JUMP JUMPDEST PUSH2 0xDFC JUMP JUMPDEST CALLVALUE DUP1 ISZERO PUSH2 0x426 JUMPI PUSH1 0x0 DUP1 REVERT JUMPDEST POP PUSH2 0x2B6 PUSH2 0x435 CALLDATASIZE PUSH1 0x4 PUSH2 0x3355 JUMP JUMPDEST PUSH2 0xE7A JUMP JUMPDEST CALLVALUE DUP1 ISZERO PUSH2 0x446 JUMPI PUSH1 0x0 DUP1 REVERT JUMPDEST POP PUSH2 0x2B6 PUSH2 0x455 CALLDATASIZE PUSH1 0x4 PUSH2 0x33D1 JUMP JUMPDEST PUSH2 0xF1A JUMP JUMPDEST CALLVALUE DUP1 ISZERO PUSH2 0x466 JUMPI PUSH1 0x0 DUP1 REVERT JUMPDEST POP PUSH2 0x2B6 PUSH2 0x475 CALLDATASIZE PUSH1 0x4 PUSH2 0x34B5 JUMP JUMPDEST PUSH2 0xFCD JUMP JUMPDEST PUSH2 0x2B6 PUSH2 0x488 CALLDATASIZE PUSH1 0x4 PUSH2 0x33D1 JUMP JUMPDEST PUSH2 0x1131 JUMP JUMPDEST CALLVALUE DUP1 ISZERO PUSH2 0x499 JUMPI PUSH1 0x0 DUP1 REVERT JUMPDEST POP PUSH2 0x2B6 PUSH2 0x4A8 CALLDATASIZE PUSH1 0x4 PUSH2 0x3526 JUMP JUMPDEST PUSH2 0x11FA JUMP JUMPDEST CALLVALUE DUP1 ISZERO PUSH2 0x4B9 JUMPI PUSH1 0x0 DUP1 REVERT JUMPDEST POP PUSH1 0x2 SLOAD PUSH2 0x4D2 SWAP1 PUSH2 0x100 SWAP1 DIV PUSH1 0x1 PUSH1 0x1 PUSH1 0xA0 SHL SUB AND DUP2 JUMP JUMPDEST PUSH1 0x40 MLOAD PUSH1 0x1 PUSH1 0x1 PUSH1 0xA0 SHL SUB SWAP1 SWAP2 AND DUP2 MSTORE PUSH1 0x20 ADD PUSH2 0x28D JUMP JUMPDEST CALLVALUE DUP1 ISZERO PUSH2 0x4F6 JUMPI PUSH1 0x0 DUP1 REVERT JUMPDEST POP PUSH2 0x4D2 PUSH32 0x0 DUP2 JUMP JUMPDEST CALLVALUE DUP1 ISZERO PUSH2 0x52A JUMPI PUSH1 0x0 DUP1 REVERT JUMPDEST POP PUSH2 0x2B6 PUSH2 0x539 CALLDATASIZE PUSH1 0x4 PUSH2 0x33D1 JUMP JUMPDEST PUSH2 0x12C2 JUMP JUMPDEST CALLVALUE DUP1 ISZERO PUSH2 0x54A JUMPI PUSH1 0x0 DUP1 REVERT JUMPDEST POP PUSH2 0x2B6 PUSH2 0x559 CALLDATASIZE PUSH1 0x4 PUSH2 0x355B JUMP JUMPDEST PUSH2 0x1375 JUMP JUMPDEST CALLVALUE DUP1 ISZERO PUSH2 0x56A JUMPI PUSH1 0x0 DUP1 REVERT JUMPDEST POP PUSH2 0x57E PUSH2 0x579 CALLDATASIZE PUSH1 0x4 PUSH2 0x34B5 JUMP JUMPDEST PUSH2 0x144B JUMP JUMPDEST PUSH1 0x40 MLOAD PUSH2 0x28D SWAP3 SWAP2 SWAP1 PUSH2 0x35E5 JUMP JUMPDEST CALLVALUE DUP1 ISZERO PUSH2 0x598 JUMPI PUSH1 0x0 DUP1 REVERT JUMPDEST POP PUSH2 0x5A1 PUSH2 0x15CD JUMP JUMPDEST PUSH1 0x40 MLOAD PUSH2 0x28D SWAP3 SWAP2 SWAP1 PUSH2 0x3600 JUMP JUMPDEST CALLVALUE DUP1 ISZERO PUSH2 0x5BB JUMPI PUSH1 0x0 DUP1 REVERT JUMPDEST POP PUSH2 0x2B6 PUSH2 0x5CA CALLDATASIZE PUSH1 0x4 PUSH2 0x3692 JUMP JUMPDEST PUSH2 0x17AA JUMP JUMPDEST CALLVALUE DUP1 ISZERO PUSH2 0x5DB JUMPI PUSH1 0x0 DUP1 REVERT JUMPDEST POP PUSH2 0x4D2 PUSH2 0x5EA CALLDATASIZE PUSH1 0x4 PUSH2 0x36C0 JUMP JUMPDEST PUSH2 0x180D JUMP JUMPDEST CALLVALUE DUP1 ISZERO PUSH2 0x5FB JUMPI PUSH1 0x0 DUP1 REVERT JUMPDEST POP PUSH2 0x281 PUSH2 0x60A CALLDATASIZE PUSH1 0x4 PUSH2 0x3485 JUMP JUMPDEST PUSH2 0x1825 JUMP JUMPDEST CALLVALUE DUP1 ISZERO PUSH2 0x61B JUMPI PUSH1 0x0 DUP1 REVERT JUMPDEST POP PUSH2 0x31B PUSH1 0x0 DUP2 JUMP JUMPDEST CALLVALUE DUP1 ISZERO PUSH2 0x630 JUMPI PUSH1 0x0 DUP1 REVERT JUMPDEST POP PUSH2 0x639 PUSH2 0x184E JUMP JUMPDEST PUSH1 0x40 MLOAD PUSH2 0x28D SWAP2 SWAP1 PUSH2 0x375A JUMP JUMPDEST CALLVALUE DUP1 ISZERO PUSH2 0x652 JUMPI PUSH1 0x0 DUP1 REVERT JUMPDEST POP PUSH2 0x31B PUSH1 0x0 DUP1 MLOAD PUSH1 0x20 PUSH2 0x3D7E DUP4 CODECOPY DUP2 MLOAD SWAP2 MSTORE DUP2 JUMP JUMPDEST CALLVALUE DUP1 ISZERO PUSH2 0x674 JUMPI PUSH1 0x0 DUP1 REVERT JUMPDEST POP PUSH2 0x688 PUSH2 0x683 CALLDATASIZE PUSH1 0x4 PUSH2 0x388A JUMP JUMPDEST PUSH2 0x1C22 JUMP JUMPDEST PUSH1 0x40 MLOAD PUSH2 0x28D SWAP2 SWAP1 PUSH2 0x38EC JUMP JUMPDEST CALLVALUE DUP1 ISZERO PUSH2 0x6A1 JUMPI PUSH1 0x0 DUP1 REVERT JUMPDEST POP PUSH2 0x2B6 PUSH2 0x6B0 CALLDATASIZE PUSH1 0x4 PUSH2 0x394E JUMP JUMPDEST PUSH2 0x1D16 JUMP JUMPDEST CALLVALUE DUP1 ISZERO PUSH2 0x6C1 JUMPI PUSH1 0x0 DUP1 REVERT JUMPDEST POP PUSH2 0x2B6 PUSH2 0x6D0 CALLDATASIZE PUSH1 0x4 PUSH2 0x3692 JUMP JUMPDEST PUSH2 0x1EB4 JUMP JUMPDEST CALLVALUE DUP1 ISZERO PUSH2 0x6E1 JUMPI PUSH1 0x0 DUP1 REVERT JUMPDEST POP PUSH2 0x31B PUSH2 0x6F0 CALLDATASIZE PUSH1 0x4 PUSH2 0x33B8 JUMP JUMPDEST PUSH2 0x1F76 JUMP JUMPDEST PUSH2 0x2B6 PUSH2 0x703 CALLDATASIZE PUSH1 0x4 PUSH2 0x33D1 JUMP JUMPDEST PUSH2 0x1F8D JUMP JUMPDEST CALLVALUE DUP1 ISZERO PUSH2 0x714 JUMPI PUSH1 0x0 DUP1 REVERT JUMPDEST POP PUSH2 0x281 PUSH2 0x723 CALLDATASIZE PUSH1 0x4 PUSH2 0x3355 JUMP JUMPDEST PUSH2 0x1FE3 JUMP JUMPDEST CALLVALUE DUP1 ISZERO PUSH2 0x734 JUMPI PUSH1 0x0 DUP1 REVERT JUMPDEST POP PUSH2 0x2B6 PUSH2 0x743 CALLDATASIZE PUSH1 0x4 PUSH2 0x3355 JUMP JUMPDEST PUSH2 0x210C JUMP JUMPDEST CALLVALUE DUP1 ISZERO PUSH2 0x754 JUMPI PUSH1 0x0 DUP1 REVERT JUMPDEST POP PUSH2 0x2B6 PUSH2 0x763 CALLDATASIZE PUSH1 0x4 PUSH2 0x3485 JUMP JUMPDEST PUSH2 0x2220 JUMP JUMPDEST CALLVALUE DUP1 ISZERO PUSH2 0x774 JUMPI PUSH1 0x0 DUP1 REVERT JUMPDEST POP PUSH2 0x4D2 PUSH2 0x783 CALLDATASIZE PUSH1 0x4 PUSH2 0x3355 JUMP JUMPDEST PUSH2 0x2245 JUMP JUMPDEST CALLVALUE DUP1 ISZERO PUSH2 0x794 JUMPI PUSH1 0x0 DUP1 REVERT JUMPDEST POP PUSH2 0x876 PUSH2 0x7A3 CALLDATASIZE PUSH1 0x4 PUSH2 0x3355 JUMP JUMPDEST PUSH1 0x3 PUSH1 0x20 DUP2 DUP2 MSTORE PUSH1 0x0 SWAP3 DUP4 MSTORE PUSH1 0x40 SWAP3 DUP4 SWAP1 KECCAK256 DUP1 SLOAD PUSH1 0x1 DUP3 ADD SLOAD PUSH1 0x2 DUP4 ADD SLOAD DUP7 MLOAD PUSH2 0x120 DUP2 ADD DUP9 MSTORE SWAP6 DUP5 ADD SLOAD PUSH2 0xFFFF DUP1 DUP3 AND DUP9 MSTORE PUSH3 0x10000 DUP1 DUP4 DIV DUP3 AND SWAP8 DUP10 ADD SWAP8 SWAP1 SWAP8 MSTORE PUSH1 0x1 PUSH1 0x20 SHL DUP1 DUP4 DIV DUP3 AND SWAP10 DUP10 ADD SWAP10 SWAP1 SWAP10 MSTORE PUSH1 0x1 PUSH1 0x30 SHL DUP3 DIV DUP2 AND PUSH1 0x60 DUP10 ADD MSTORE PUSH1 0x1 PUSH1 0x40 SHL SWAP1 SWAP2 DIV DUP2 AND PUSH1 0x80 DUP9 ADD MSTORE PUSH1 0x4 DUP6 ADD SLOAD PUSH1 0xA0 DUP9 ADD MSTORE PUSH1 0x5 DUP6 ADD SLOAD PUSH1 0xC0 DUP9 ADD MSTORE PUSH1 0x6 DUP6 ADD SLOAD PUSH1 0xE0 DUP9 ADD MSTORE PUSH1 0x7 SWAP1 SWAP5 ADD SLOAD PUSH2 0x100 DUP1 DUP9 ADD SWAP2 SWAP1 SWAP2 MSTORE PUSH1 0xFF DUP1 DUP6 AND SWAP9 SWAP2 DUP6 DIV AND SWAP7 SWAP6 DUP5 DIV SWAP1 SWAP5 AND SWAP5 SWAP4 DUP4 DIV PUSH1 0x1 PUSH1 0x1 PUSH1 0x40 SHL SUB AND SWAP4 PUSH1 0x1 PUSH1 0x60 SHL SWAP1 SWAP4 DIV PUSH1 0x1 PUSH1 0x1 PUSH1 0xA0 SHL SUB AND SWAP3 DUP9 JUMP JUMPDEST PUSH1 0x40 MLOAD PUSH2 0x28D SWAP9 SWAP8 SWAP7 SWAP6 SWAP5 SWAP4 SWAP3 SWAP2 SWAP1 PUSH2 0x397C JUMP JUMPDEST CALLVALUE DUP1 ISZERO PUSH2 0x896 JUMPI PUSH1 0x0 DUP1 REVERT JUMPDEST POP PUSH2 0x5A1 PUSH2 0x227A JUMP JUMPDEST CALLVALUE DUP1 ISZERO PUSH2 0x8AB JUMPI PUSH1 0x0 DUP1 REVERT JUMPDEST POP PUSH2 0x2B6 PUSH2 0x8BA CALLDATASIZE PUSH1 0x4 PUSH2 0x33D1 JUMP JUMPDEST PUSH2 0x23D9 JUMP JUMPDEST CALLVALUE DUP1 ISZERO PUSH2 0x8CB JUMPI PUSH1 0x0 DUP1 REVERT JUMPDEST POP PUSH2 0x31B PUSH32 0x39780592DDB1E73F2A037F166EC57BA042082746F5C0B9FE56EA386E00369A98 DUP2 JUMP JUMPDEST CALLVALUE DUP1 ISZERO PUSH2 0x8FF JUMPI PUSH1 0x0 DUP1 REVERT JUMPDEST POP PUSH2 0x31B PUSH2 0x90E CALLDATASIZE PUSH1 0x4 PUSH2 0x3355 JUMP JUMPDEST PUSH2 0x25BC JUMP JUMPDEST CALLVALUE DUP1 ISZERO PUSH2 0x91F JUMPI PUSH1 0x0 DUP1 REVERT JUMPDEST POP PUSH2 0x31B PUSH2 0x92E CALLDATASIZE PUSH1 0x4 PUSH2 0x3355 JUMP JUMPDEST PUSH2 0x25EA JUMP JUMPDEST PUSH1 0x0 PUSH1 0x1 PUSH1 0x1 PUSH1 0xE0 SHL SUB NOT DUP3 AND PUSH4 0x5A05180F PUSH1 0xE0 SHL EQ DUP1 PUSH2 0x958 JUMPI POP PUSH2 0x958 DUP3 PUSH2 0x2972 JUMP JUMPDEST SWAP3 SWAP2 POP POP JUMP JUMPDEST PUSH1 0x1 PUSH1 0x1 PUSH1 0xA0 SHL SUB DUP2 AND PUSH1 0x0 SWAP1 DUP2 MSTORE PUSH1 0x3 PUSH1 0x20 DUP2 SWAP1 MSTORE PUSH1 0x40 SWAP1 SWAP2 KECCAK256 PUSH1 0x6 DUP2 ADD SLOAD PUSH1 0x7 DUP3 ADD SLOAD SWAP2 SWAP1 SWAP3 ADD SWAP2 SWAP1 DUP2 ISZERO PUSH2 0x9C1 JUMPI PUSH1 0x0 PUSH1 0x3 DUP5 ADD SSTORE PUSH2 0x9C1 PUSH32 0x0 DUP6 DUP5 PUSH2 0x29A7 JUMP JUMPDEST DUP1 ISZERO PUSH2 0x9EA JUMPI PUSH1 0x0 PUSH1 0x4 DUP5 ADD SSTORE PUSH1 0x2 SLOAD PUSH2 0x9EA SWAP1 PUSH2 0x100 SWAP1 DIV PUSH1 0x1 PUSH1 0x1 PUSH1 0xA0 SHL SUB AND DUP6 DUP4 PUSH2 0x29A7 JUMP JUMPDEST DUP2 ISZERO ISZERO DUP1 PUSH2 0x9F7 JUMPI POP DUP1 ISZERO ISZERO JUMPDEST ISZERO PUSH2 0xA41 JUMPI PUSH1 0x40 DUP1 MLOAD DUP4 DUP2 MSTORE PUSH1 0x20 DUP2 ADD DUP4 SWAP1 MSTORE PUSH1 0x1 PUSH1 0x1 PUSH1 0xA0 SHL SUB DUP7 AND SWAP2 PUSH32 0x146F1701C23C89F761280798D36D6C4E3ACB349438456F5DA8F83A2F5DD8CDC SWAP2 ADD PUSH1 0x40 MLOAD DUP1 SWAP2 SUB SWAP1 LOG2 JUMPDEST POP POP POP POP JUMP JUMPDEST PUSH1 0x0 PUSH2 0xA52 DUP2 PUSH2 0x29FF JUMP JUMPDEST PUSH1 0x1 PUSH1 0x1 PUSH1 0xA0 SHL SUB DUP3 AND PUSH2 0xA79 JUMPI PUSH1 0x40 MLOAD PUSH4 0xD23CF41 PUSH1 0xE1 SHL DUP2 MSTORE PUSH1 0x4 ADD PUSH1 0x40 MLOAD DUP1 SWAP2 SUB SWAP1 REVERT JUMPDEST PUSH1 0x2 DUP1 SLOAD PUSH2 0x100 PUSH1 0x1 PUSH1 0xA8 SHL SUB NOT AND PUSH2 0x100 PUSH1 0x1 PUSH1 0x1 PUSH1 0xA0 SHL SUB DUP6 DUP2 AND DUP3 MUL SWAP3 SWAP1 SWAP3 OR SWAP3 DUP4 SWAP1 SSTORE PUSH1 0x40 MLOAD SWAP3 DIV AND DUP2 MSTORE PUSH32 0xC6A5DD316FE9D0339F2769DEAB7E31F64C8F5B101FFD85DFC9A83DBEAF2E69DA SWAP1 PUSH1 0x20 ADD JUMPDEST PUSH1 0x40 MLOAD DUP1 SWAP2 SUB SWAP1 LOG1 POP POP JUMP JUMPDEST PUSH1 0x0 DUP1 MLOAD PUSH1 0x20 PUSH2 0x3D7E DUP4 CODECOPY DUP2 MLOAD SWAP2 MSTORE PUSH2 0xAF2 DUP2 PUSH2 0x29FF JUMP JUMPDEST PUSH2 0xAFC DUP5 DUP4 PUSH2 0x2A0C JUMP JUMPDEST PUSH2 0xB07 DUP6 DUP6 DUP6 PUSH2 0x29A7 JUMP JUMPDEST DUP4 PUSH1 0x1 PUSH1 0x1 PUSH1 0xA0 SHL SUB AND PUSH32 0x634235FCF5AF0ADBCA1A405EC65F6F6C08F55E1F379C2C45CD10F23CB29E0E31 PUSH2 0xB3B DUP7 PUSH2 0x25EA JUMP JUMPDEST PUSH1 0x40 DUP1 MLOAD SWAP2 DUP3 MSTORE PUSH1 0x20 DUP3 ADD DUP8 SWAP1 MSTORE ADD JUMPDEST PUSH1 0x40 MLOAD DUP1 SWAP2 SUB SWAP1 LOG2 POP POP POP POP POP JUMP JUMPDEST PUSH1 0x1 PUSH1 0x1 PUSH1 0xA0 SHL SUB DUP3 AND PUSH1 0x0 SWAP1 DUP2 MSTORE PUSH1 0x3 PUSH1 0x20 MSTORE PUSH1 0x40 DUP2 KECCAK256 SLOAD DUP3 SWAP1 PUSH3 0x10000 SWAP1 DIV PUSH2 0xFFFF AND PUSH2 0xB88 DUP6 PUSH2 0x25EA JUMP JUMPDEST PUSH2 0xB92 SWAP2 SWAP1 PUSH2 0x39F4 JUMP JUMPDEST PUSH2 0xB9C SWAP2 SWAP1 PUSH2 0x3A13 JUMP JUMPDEST SWAP4 SWAP3 POP POP POP JUMP JUMPDEST PUSH1 0x0 PUSH2 0xBAE DUP2 PUSH2 0x29FF JUMP JUMPDEST PUSH1 0x0 DUP4 DUP6 DUP5 PUSH2 0xBBD DUP10 DUP12 PUSH2 0x3A35 JUMP JUMPDEST PUSH2 0xBC7 SWAP2 SWAP1 PUSH2 0x3A35 JUMP JUMPDEST PUSH2 0xBD1 SWAP2 SWAP1 PUSH2 0x3A35 JUMP JUMPDEST PUSH2 0xBDB SWAP2 SWAP1 PUSH2 0x3A35 JUMP JUMPDEST SWAP1 POP DUP1 PUSH2 0xFFFF AND PUSH2 0x2710 EQ PUSH2 0xC0E JUMPI PUSH1 0x40 MLOAD PUSH4 0x18410E11 PUSH1 0xE2 SHL DUP2 MSTORE PUSH2 0xFFFF DUP3 AND PUSH1 0x4 DUP3 ADD MSTORE PUSH1 0x24 ADD JUMPDEST PUSH1 0x40 MLOAD DUP1 SWAP2 SUB SWAP1 REVERT JUMPDEST PUSH1 0x0 PUSH1 0x3 PUSH1 0x0 DUP11 PUSH1 0x1 PUSH1 0x1 PUSH1 0xA0 SHL SUB AND PUSH1 0x1 PUSH1 0x1 PUSH1 0xA0 SHL SUB AND DUP2 MSTORE PUSH1 0x20 ADD SWAP1 DUP2 MSTORE PUSH1 0x20 ADD PUSH1 0x0 KECCAK256 PUSH1 0x3 ADD SWAP1 POP DUP8 DUP2 PUSH1 0x0 ADD PUSH1 0x0 PUSH2 0x100 EXP DUP2 SLOAD DUP2 PUSH2 0xFFFF MUL NOT AND SWAP1 DUP4 PUSH2 0xFFFF AND MUL OR SWAP1 SSTORE POP DUP7 DUP2 PUSH1 0x0 ADD PUSH1 0x2 PUSH2 0x100 EXP DUP2 SLOAD DUP2 PUSH2 0xFFFF MUL NOT AND SWAP1 DUP4 PUSH2 0xFFFF AND MUL OR SWAP1 SSTORE POP DUP6 DUP2 PUSH1 0x0 ADD PUSH1 0x4 PUSH2 0x100 EXP DUP2 SLOAD DUP2 PUSH2 0xFFFF MUL NOT AND SWAP1 DUP4 PUSH2 0xFFFF AND MUL OR SWAP1 SSTORE POP DUP5 DUP2 PUSH1 0x0 ADD PUSH1 0x6 PUSH2 0x100 EXP DUP2 SLOAD DUP2 PUSH2 0xFFFF MUL NOT AND SWAP1 DUP4 PUSH2 0xFFFF AND MUL OR SWAP1 SSTORE POP DUP4 DUP2 PUSH1 0x0 ADD PUSH1 0x8 PUSH2 0x100 EXP DUP2 SLOAD DUP2 PUSH2 0xFFFF MUL NOT AND SWAP1 DUP4 PUSH2 0xFFFF AND MUL OR SWAP1 SSTORE POP DUP9 PUSH1 0x1 PUSH1 0x1 PUSH1 0xA0 SHL SUB AND PUSH32 0x87512489F5B5226512D8F1BFEDE20D9E809FF4042F028DA79C833ED04BAA8397 DUP10 DUP10 DUP10 DUP10 DUP10 PUSH1 0x40 MLOAD PUSH2 0xD3E SWAP6 SWAP5 SWAP4 SWAP3 SWAP2 SWAP1 PUSH2 0xFFFF SWAP6 DUP7 AND DUP2 MSTORE SWAP4 DUP6 AND PUSH1 0x20 DUP6 ADD MSTORE SWAP2 DUP5 AND PUSH1 0x40 DUP5 ADD MSTORE DUP4 AND PUSH1 0x60 DUP4 ADD MSTORE SWAP1 SWAP2 AND PUSH1 0x80 DUP3 ADD MSTORE PUSH1 0xA0 ADD SWAP1 JUMP JUMPDEST PUSH1 0x40 MLOAD DUP1 SWAP2 SUB SWAP1 LOG2 POP POP POP POP POP POP POP POP POP JUMP JUMPDEST PUSH1 0x0 DUP3 DUP2 MSTORE PUSH1 0x20 DUP2 SWAP1 MSTORE PUSH1 0x40 SWAP1 KECCAK256 PUSH1 0x1 ADD SLOAD PUSH2 0xD6C DUP2 PUSH2 0x29FF JUMP JUMPDEST PUSH2 0xD76 DUP4 DUP4 PUSH2 0x2BCD JUMP JUMPDEST POP POP POP JUMP JUMPDEST PUSH1 0x0 DUP1 MLOAD PUSH1 0x20 PUSH2 0x3D7E DUP4 CODECOPY DUP2 MLOAD SWAP2 MSTORE PUSH2 0xD93 DUP2 PUSH2 0x29FF JUMP JUMPDEST DUP3 PUSH1 0x1 PUSH1 0x1 PUSH1 0xA0 SHL SUB AND PUSH32 0x812B76B477469EDC716929CBF7ED54E3D9C1A68D8B9F8290DBABCDA54D96FCBE PUSH2 0xDC7 DUP6 PUSH2 0x25EA JUMP JUMPDEST PUSH1 0x1 PUSH1 0x1 PUSH1 0xA0 SHL SUB DUP7 AND ISZERO PUSH2 0xDDC JUMPI DUP5 PUSH2 0xDDE JUMP JUMPDEST CALLVALUE JUMPDEST PUSH1 0x40 DUP1 MLOAD SWAP3 DUP4 MSTORE PUSH1 0x20 DUP4 ADD SWAP2 SWAP1 SWAP2 MSTORE ADD JUMPDEST PUSH1 0x40 MLOAD DUP1 SWAP2 SUB SWAP1 LOG2 POP POP POP JUMP JUMPDEST PUSH1 0x1 PUSH1 0x1 PUSH1 0xA0 SHL SUB DUP2 AND CALLER EQ PUSH2 0xE6C JUMPI PUSH1 0x40 MLOAD PUSH3 0x461BCD PUSH1 0xE5 SHL DUP2 MSTORE PUSH1 0x20 PUSH1 0x4 DUP3 ADD MSTORE PUSH1 0x2F PUSH1 0x24 DUP3 ADD MSTORE PUSH32 0x416363657373436F6E74726F6C3A2063616E206F6E6C792072656E6F756E6365 PUSH1 0x44 DUP3 ADD MSTORE PUSH15 0x103937B632B9903337B91039B2B633 PUSH1 0x89 SHL PUSH1 0x64 DUP3 ADD MSTORE PUSH1 0x84 ADD PUSH2 0xC05 JUMP JUMPDEST PUSH2 0xE76 DUP3 DUP3 PUSH2 0x2BEF JUMP JUMPDEST POP POP JUMP JUMPDEST PUSH1 0x1 PUSH1 0x1 PUSH1 0xA0 SHL SUB DUP2 AND PUSH1 0x0 SWAP1 DUP2 MSTORE PUSH1 0x3 PUSH1 0x20 MSTORE PUSH1 0x40 SWAP1 KECCAK256 PUSH1 0x5 DUP2 ADD SLOAD DUP1 ISZERO DUP1 ISZERO SWAP1 PUSH2 0xEB6 JUMPI POP DUP2 SLOAD PUSH1 0x1 PUSH1 0x60 SHL SWAP1 DIV PUSH1 0x1 PUSH1 0x1 PUSH1 0xA0 SHL SUB AND ISZERO ISZERO JUMPDEST ISZERO PUSH2 0xD76 JUMPI PUSH1 0x0 PUSH1 0x5 DUP4 ADD SSTORE DUP2 SLOAD PUSH2 0xEDF SWAP1 PUSH1 0x1 PUSH1 0x60 SHL SWAP1 DIV PUSH1 0x1 PUSH1 0x1 PUSH1 0xA0 SHL SUB AND DUP5 DUP4 PUSH2 0x29A7 JUMP JUMPDEST DUP3 PUSH1 0x1 PUSH1 0x1 PUSH1 0xA0 SHL SUB AND PUSH32 0x1AA0FC6B9BC54A055D93B640B2C7313E0BD2944482E0B6B5FEC7048BBDAACD81 DUP3 PUSH1 0x40 MLOAD PUSH2 0xDEF SWAP2 DUP2 MSTORE PUSH1 0x20 ADD SWAP1 JUMP JUMPDEST PUSH1 0x1 PUSH1 0x1 PUSH1 0xA0 SHL SUB DUP1 DUP4 AND PUSH1 0x0 SWAP1 DUP2 MSTORE PUSH1 0x3 PUSH1 0x20 MSTORE PUSH1 0x40 DUP2 KECCAK256 SLOAD SWAP1 SWAP2 DUP5 SWAP2 PUSH1 0x1 PUSH1 0x60 SHL SWAP1 DIV AND DUP1 PUSH2 0xF54 JUMPI PUSH2 0xF4F DUP4 CALLER PUSH2 0x2C11 JUMP JUMPDEST PUSH2 0xF7D JUMP JUMPDEST CALLER PUSH1 0x1 PUSH1 0x1 PUSH1 0xA0 SHL SUB DUP3 AND EQ PUSH2 0xF7D JUMPI PUSH1 0x40 MLOAD PUSH4 0x4CA88867 PUSH1 0xE0 SHL DUP2 MSTORE PUSH1 0x4 ADD PUSH1 0x40 MLOAD DUP1 SWAP2 SUB SWAP1 REVERT JUMPDEST PUSH1 0x1 PUSH1 0x1 PUSH1 0xA0 SHL SUB DUP6 AND PUSH1 0x0 DUP2 DUP2 MSTORE PUSH1 0x3 PUSH1 0x20 MSTORE PUSH1 0x40 SWAP1 DUP2 SWAP1 KECCAK256 PUSH1 0x1 ADD DUP7 SWAP1 SSTORE MLOAD PUSH32 0x8B4A07860448B613116DF3F175C837980ECEACA7D1DC5143C46A20AB31EC00F9 SWAP1 PUSH2 0xB4B SWAP1 DUP8 DUP2 MSTORE PUSH1 0x20 ADD SWAP1 JUMP JUMPDEST PUSH1 0x0 DUP1 PUSH2 0xFDC DUP4 DUP6 ADD DUP6 PUSH2 0x3A50 JUMP JUMPDEST PUSH1 0x1 PUSH1 0x1 PUSH1 0xA0 SHL SUB DUP2 DUP2 AND PUSH1 0x0 SWAP1 DUP2 MSTORE PUSH1 0x3 PUSH1 0x20 DUP2 DUP2 MSTORE PUSH1 0x40 DUP1 DUP5 KECCAK256 DUP2 MLOAD PUSH2 0x100 DUP1 DUP3 ADD DUP5 MSTORE DUP3 SLOAD PUSH1 0xFF DUP1 DUP3 AND ISZERO ISZERO DUP5 MSTORE DUP3 DUP3 DIV AND ISZERO ISZERO DUP4 DUP8 ADD MSTORE PUSH3 0x10000 DUP1 DUP3 DIV PUSH2 0xFFFF SWAP1 DUP2 AND DUP6 DUP9 ADD MSTORE PUSH1 0x1 PUSH1 0x20 SHL DUP1 DUP5 DIV PUSH1 0x1 PUSH1 0x1 PUSH1 0x40 SHL SUB AND PUSH1 0x60 DUP1 DUP9 ADD SWAP2 SWAP1 SWAP2 MSTORE PUSH1 0x1 PUSH1 0x60 SHL SWAP1 SWAP5 DIV SWAP1 SWAP12 AND PUSH1 0x80 DUP1 DUP8 ADD SWAP2 SWAP1 SWAP2 MSTORE PUSH1 0x1 DUP8 ADD SLOAD PUSH1 0xA0 DUP1 DUP9 ADD SWAP2 SWAP1 SWAP2 MSTORE PUSH1 0x2 DUP9 ADD SLOAD PUSH1 0xC0 DUP1 DUP10 ADD SWAP2 SWAP1 SWAP2 MSTORE DUP10 MLOAD PUSH2 0x120 DUP2 ADD DUP12 MSTORE SWAP12 DUP10 ADD SLOAD DUP1 DUP6 AND DUP14 MSTORE SWAP5 DUP6 DIV DUP5 AND SWAP11 DUP13 ADD SWAP11 SWAP1 SWAP11 MSTORE SWAP12 DUP4 DIV DUP3 AND SWAP8 DUP11 ADD SWAP8 SWAP1 SWAP8 MSTORE PUSH1 0x1 PUSH1 0x30 SHL DUP3 DIV DUP2 AND SWAP3 DUP10 ADD SWAP3 SWAP1 SWAP3 MSTORE PUSH1 0x1 PUSH1 0x40 SHL SWAP1 DIV AND SWAP4 DUP7 ADD SWAP4 SWAP1 SWAP4 MSTORE PUSH1 0x4 DUP3 ADD SLOAD SWAP7 DUP6 ADD SWAP7 SWAP1 SWAP7 MSTORE PUSH1 0x5 DUP2 ADD SLOAD SWAP3 DUP5 ADD SWAP3 SWAP1 SWAP3 MSTORE PUSH1 0x6 DUP3 ADD SLOAD PUSH1 0xE0 DUP1 DUP6 ADD SWAP2 SWAP1 SWAP2 MSTORE PUSH1 0x7 SWAP1 SWAP3 ADD SLOAD SWAP1 DUP4 ADD MSTORE DUP4 ADD MSTORE SWAP3 SWAP5 POP SWAP1 SWAP3 POP SWAP1 DUP4 DUP1 ISZERO PUSH2 0x1104 JUMPI PUSH2 0x1104 PUSH2 0x3A72 JUMP JUMPDEST EQ DUP1 ISZERO PUSH2 0x111C JUMPI POP DUP1 PUSH1 0xC0 ADD MLOAD DUP2 PUSH1 0xE0 ADD MLOAD PUSH1 0xC0 ADD MLOAD GT JUMPDEST ISZERO PUSH2 0x112A JUMPI PUSH2 0x112A DUP3 PUSH2 0xE7A JUMP JUMPDEST POP POP POP POP POP JUMP JUMPDEST PUSH1 0x1 PUSH1 0x1 PUSH1 0xA0 SHL SUB DUP1 DUP4 AND PUSH1 0x0 SWAP1 DUP2 MSTORE PUSH1 0x3 PUSH1 0x20 MSTORE PUSH1 0x40 DUP2 KECCAK256 SLOAD SWAP1 SWAP2 DUP5 SWAP2 PUSH1 0x1 PUSH1 0x60 SHL SWAP1 DIV AND DUP1 PUSH2 0x116B JUMPI PUSH2 0x1166 DUP4 CALLER PUSH2 0x2C11 JUMP JUMPDEST PUSH2 0x1194 JUMP JUMPDEST CALLER PUSH1 0x1 PUSH1 0x1 PUSH1 0xA0 SHL SUB DUP3 AND EQ PUSH2 0x1194 JUMPI PUSH1 0x40 MLOAD PUSH4 0x4CA88867 PUSH1 0xE0 SHL DUP2 MSTORE PUSH1 0x4 ADD PUSH1 0x40 MLOAD DUP1 SWAP2 SUB SWAP1 REVERT JUMPDEST PUSH1 0x1 PUSH1 0x1 PUSH1 0xA0 SHL SUB DUP6 AND PUSH2 0x11AA JUMPI CALLVALUE SWAP4 POP PUSH2 0x11BF JUMP JUMPDEST PUSH2 0x11BF PUSH1 0x1 PUSH1 0x1 PUSH1 0xA0 SHL SUB DUP7 AND CALLER ADDRESS DUP8 PUSH2 0x2C75 JUMP JUMPDEST DUP5 PUSH1 0x1 PUSH1 0x1 PUSH1 0xA0 SHL SUB AND PUSH32 0xE1FFFCC4923D04B559F4D29A8BFC6CDA04EB5B0D3C460751C2402C5C5CC9109C DUP6 PUSH1 0x40 MLOAD PUSH2 0xB4B SWAP2 DUP2 MSTORE PUSH1 0x20 ADD SWAP1 JUMP JUMPDEST PUSH1 0x1 PUSH1 0x1 PUSH1 0xA0 SHL SUB DUP1 DUP4 AND PUSH1 0x0 SWAP1 DUP2 MSTORE PUSH1 0x3 PUSH1 0x20 MSTORE PUSH1 0x40 DUP2 KECCAK256 SLOAD SWAP1 SWAP2 DUP5 SWAP2 PUSH1 0x1 PUSH1 0x60 SHL SWAP1 DIV AND DUP1 PUSH2 0x1234 JUMPI PUSH2 0x122F DUP4 CALLER PUSH2 0x2C11 JUMP JUMPDEST PUSH2 0x125D JUMP JUMPDEST CALLER PUSH1 0x1 PUSH1 0x1 PUSH1 0xA0 SHL SUB DUP3 AND EQ PUSH2 0x125D JUMPI PUSH1 0x40 MLOAD PUSH4 0x4CA88867 PUSH1 0xE0 SHL DUP2 MSTORE PUSH1 0x4 ADD PUSH1 0x40 MLOAD DUP1 SWAP2 SUB SWAP1 REVERT JUMPDEST PUSH1 0x1 PUSH1 0x1 PUSH1 0xA0 SHL SUB DUP6 AND PUSH1 0x0 DUP2 DUP2 MSTORE PUSH1 0x3 PUSH1 0x20 SWAP1 DUP2 MSTORE PUSH1 0x40 SWAP2 DUP3 SWAP1 KECCAK256 DUP1 SLOAD PUSH4 0xFFFF0000 NOT AND PUSH3 0x10000 PUSH2 0xFFFF DUP11 AND SWAP1 DUP2 MUL SWAP2 SWAP1 SWAP2 OR SWAP1 SWAP2 SSTORE SWAP2 MLOAD SWAP2 DUP3 MSTORE PUSH32 0x68288B0936DD994D19323EE940B2703E7BF46FAE2552319D60DC1239BA52EC68 SWAP2 ADD PUSH2 0xB4B JUMP JUMPDEST PUSH1 0x1 PUSH1 0x1 PUSH1 0xA0 SHL SUB DUP1 DUP4 AND PUSH1 0x0 SWAP1 DUP2 MSTORE PUSH1 0x3 PUSH1 0x20 MSTORE PUSH1 0x40 DUP2 KECCAK256 SLOAD SWAP1 SWAP2 DUP5 SWAP2 PUSH1 0x1 PUSH1 0x60 SHL SWAP1 DIV AND DUP1 PUSH2 0x12FC JUMPI PUSH2 0x12F7 DUP4 CALLER PUSH2 0x2C11 JUMP JUMPDEST PUSH2 0x1325 JUMP JUMPDEST CALLER PUSH1 0x1 PUSH1 0x1 PUSH1 0xA0 SHL SUB DUP3 AND EQ PUSH2 0x1325 JUMPI PUSH1 0x40 MLOAD PUSH4 0x4CA88867 PUSH1 0xE0 SHL DUP2 MSTORE PUSH1 0x4 ADD PUSH1 0x40 MLOAD DUP1 SWAP2 SUB SWAP1 REVERT JUMPDEST PUSH1 0x1 PUSH1 0x1 PUSH1 0xA0 SHL SUB DUP6 AND PUSH1 0x0 DUP2 DUP2 MSTORE PUSH1 0x3 PUSH1 0x20 MSTORE PUSH1 0x40 SWAP1 DUP2 SWAP1 KECCAK256 PUSH1 0x2 ADD DUP7 SWAP1 SSTORE MLOAD PUSH32 0xC299D8F578E9777556514DC79B1C053FE9912DBC8424518C97262734A96E8095 SWAP1 PUSH2 0xB4B SWAP1 DUP8 DUP2 MSTORE PUSH1 0x20 ADD SWAP1 JUMP JUMPDEST PUSH1 0x1 PUSH1 0x1 PUSH1 0xA0 SHL SUB DUP1 DUP4 AND PUSH1 0x0 SWAP1 DUP2 MSTORE PUSH1 0x3 PUSH1 0x20 MSTORE PUSH1 0x40 DUP2 KECCAK256 SLOAD SWAP1 SWAP2 DUP5 SWAP2 PUSH1 0x1 PUSH1 0x60 SHL SWAP1 DIV AND DUP1 PUSH2 0x13AF JUMPI PUSH2 0x13AA DUP4 CALLER PUSH2 0x2C11 JUMP JUMPDEST PUSH2 0x13D8 JUMP JUMPDEST CALLER PUSH1 0x1 PUSH1 0x1 PUSH1 0xA0 SHL SUB DUP3 AND EQ PUSH2 0x13D8 JUMPI PUSH1 0x40 MLOAD PUSH4 0x4CA88867 PUSH1 0xE0 SHL DUP2 MSTORE PUSH1 0x4 ADD PUSH1 0x40 MLOAD DUP1 SWAP2 SUB SWAP1 REVERT JUMPDEST PUSH1 0x1 PUSH1 0x1 PUSH1 0xA0 SHL SUB DUP6 AND PUSH1 0x0 DUP2 DUP2 MSTORE PUSH1 0x3 PUSH1 0x20 SWAP1 DUP2 MSTORE PUSH1 0x40 SWAP2 DUP3 SWAP1 KECCAK256 DUP1 SLOAD PUSH12 0xFFFFFFFFFFFFFFFF00000000 NOT AND PUSH1 0x1 PUSH1 0x20 SHL PUSH1 0x1 PUSH1 0x1 PUSH1 0x40 SHL SUB DUP11 AND SWAP1 DUP2 MUL SWAP2 SWAP1 SWAP2 OR SWAP1 SWAP2 SSTORE SWAP2 MLOAD SWAP2 DUP3 MSTORE PUSH32 0xAE367543CF47CA7E51A9F3F92711553AA33777847F719F7E2821EA8D846ED0E1 SWAP2 ADD PUSH2 0xB4B JUMP JUMPDEST PUSH1 0x0 PUSH1 0x60 DUP2 DUP1 PUSH2 0x145D DUP6 DUP8 ADD DUP8 PUSH2 0x3A50 JUMP JUMPDEST SWAP1 SWAP3 POP SWAP1 POP PUSH1 0x0 DUP3 DUP1 ISZERO PUSH2 0x1473 JUMPI PUSH2 0x1473 PUSH2 0x3A72 JUMP JUMPDEST SUB PUSH2 0x15C4 JUMPI PUSH1 0x1 PUSH1 0x1 PUSH1 0xA0 SHL SUB DUP2 DUP2 AND PUSH1 0x0 SWAP1 DUP2 MSTORE PUSH1 0x3 PUSH1 0x20 DUP2 DUP2 MSTORE PUSH1 0x40 SWAP3 DUP4 SWAP1 KECCAK256 DUP4 MLOAD PUSH2 0x100 DUP1 DUP3 ADD DUP7 MSTORE DUP3 SLOAD PUSH1 0xFF DUP1 DUP3 AND ISZERO ISZERO DUP5 MSTORE DUP3 DUP3 DIV AND ISZERO ISZERO DUP4 DUP7 ADD MSTORE PUSH3 0x10000 DUP1 DUP3 DIV PUSH2 0xFFFF SWAP1 DUP2 AND DUP6 DUP11 ADD MSTORE PUSH1 0x1 PUSH1 0x20 SHL DUP1 DUP5 DIV PUSH1 0x1 PUSH1 0x1 PUSH1 0x40 SHL SUB AND PUSH1 0x60 DUP1 DUP9 ADD SWAP2 SWAP1 SWAP2 MSTORE PUSH1 0x1 PUSH1 0x60 SHL SWAP1 SWAP5 DIV SWAP1 SWAP11 AND PUSH1 0x80 DUP1 DUP8 ADD SWAP2 SWAP1 SWAP2 MSTORE PUSH1 0x1 DUP8 ADD SLOAD PUSH1 0xA0 DUP1 DUP9 ADD SWAP2 SWAP1 SWAP2 MSTORE PUSH1 0x2 DUP9 ADD SLOAD PUSH1 0xC0 DUP1 DUP10 ADD SWAP2 DUP3 MSTORE DUP13 MLOAD PUSH2 0x120 DUP2 ADD DUP15 MSTORE SWAP12 DUP11 ADD SLOAD DUP1 DUP7 AND DUP14 MSTORE SWAP6 DUP7 DIV DUP6 AND SWAP11 DUP13 ADD SWAP11 SWAP1 SWAP11 MSTORE SWAP12 DUP5 DIV DUP4 AND SWAP11 DUP11 ADD SWAP11 SWAP1 SWAP11 MSTORE PUSH1 0x1 PUSH1 0x30 SHL DUP4 DIV DUP3 AND SWAP4 DUP10 ADD SWAP4 SWAP1 SWAP4 MSTORE PUSH1 0x1 PUSH1 0x40 SHL SWAP1 SWAP2 DIV AND SWAP1 DUP7 ADD MSTORE PUSH1 0x4 DUP4 ADD SLOAD SWAP6 DUP6 ADD SWAP6 SWAP1 SWAP6 MSTORE PUSH1 0x5 DUP3 ADD SLOAD SWAP3 DUP5 ADD SWAP3 DUP4 MSTORE PUSH1 0x6 DUP3 ADD SLOAD PUSH1 0xE0 DUP1 DUP7 ADD SWAP2 SWAP1 SWAP2 MSTORE PUSH1 0x7 SWAP1 SWAP3 ADD SLOAD SWAP5 DUP5 ADD SWAP5 SWAP1 SWAP5 MSTORE DUP4 ADD SWAP2 SWAP1 SWAP2 MSTORE SWAP2 MLOAD SWAP2 MLOAD SWAP1 SWAP2 LT ISZERO PUSH2 0x15C2 JUMPI PUSH1 0x1 SWAP5 POP DUP3 DUP3 PUSH1 0x40 MLOAD PUSH1 0x20 ADD PUSH2 0x15B0 SWAP3 SWAP2 SWAP1 PUSH2 0x3A88 JUMP JUMPDEST PUSH1 0x40 MLOAD PUSH1 0x20 DUP2 DUP4 SUB SUB DUP2 MSTORE SWAP1 PUSH1 0x40 MSTORE SWAP4 POP JUMPDEST POP JUMPDEST POP POP SWAP3 POP SWAP3 SWAP1 POP JUMP JUMPDEST PUSH1 0x60 DUP1 PUSH32 0x39780592DDB1E73F2A037F166EC57BA042082746F5C0B9FE56EA386E00369A98 PUSH2 0x15FA DUP2 PUSH2 0x29FF JUMP JUMPDEST PUSH1 0x2 SLOAD PUSH1 0x0 SWAP1 PUSH1 0xFF AND PUSH1 0x1 PUSH1 0x1 PUSH1 0x40 SHL SUB DUP2 GT ISZERO PUSH2 0x161A JUMPI PUSH2 0x161A PUSH2 0x3AC2 JUMP JUMPDEST PUSH1 0x40 MLOAD SWAP1 DUP1 DUP3 MSTORE DUP1 PUSH1 0x20 MUL PUSH1 0x20 ADD DUP3 ADD PUSH1 0x40 MSTORE DUP1 ISZERO PUSH2 0x1643 JUMPI DUP2 PUSH1 0x20 ADD PUSH1 0x20 DUP3 MUL DUP1 CALLDATASIZE DUP4 CALLDATACOPY ADD SWAP1 POP JUMPDEST POP PUSH1 0x2 SLOAD SWAP1 SWAP2 POP PUSH1 0x0 SWAP1 PUSH1 0xFF AND PUSH1 0x1 PUSH1 0x1 PUSH1 0x40 SHL SUB DUP2 GT ISZERO PUSH2 0x1667 JUMPI PUSH2 0x1667 PUSH2 0x3AC2 JUMP JUMPDEST PUSH1 0x40 MLOAD SWAP1 DUP1 DUP3 MSTORE DUP1 PUSH1 0x20 MUL PUSH1 0x20 ADD DUP3 ADD PUSH1 0x40 MSTORE DUP1 ISZERO PUSH2 0x1690 JUMPI DUP2 PUSH1 0x20 ADD PUSH1 0x20 DUP3 MUL DUP1 CALLDATASIZE DUP4 CALLDATACOPY ADD SWAP1 POP JUMPDEST POP SWAP1 POP PUSH1 0x0 JUMPDEST PUSH1 0x2 SLOAD PUSH1 0xFF SWAP1 DUP2 AND SWAP1 DUP3 AND LT ISZERO PUSH2 0x179F JUMPI PUSH1 0xFF DUP2 AND PUSH1 0x0 SWAP1 DUP2 MSTORE PUSH1 0x4 PUSH1 0x20 DUP2 DUP2 MSTORE PUSH1 0x40 DUP1 DUP5 KECCAK256 SLOAD PUSH1 0x1 PUSH1 0x1 PUSH1 0xA0 SHL SUB AND DUP1 DUP6 MSTORE PUSH1 0x3 SWAP1 SWAP3 MSTORE SWAP1 SWAP3 KECCAK256 SWAP1 DUP2 ADD SLOAD DUP1 ISZERO PUSH2 0x1789 JUMPI PUSH1 0x0 PUSH1 0x4 DUP4 ADD SSTORE PUSH2 0x16ED CALLER DUP5 DUP4 PUSH2 0x29A7 JUMP JUMPDEST DUP3 PUSH1 0x1 PUSH1 0x1 PUSH1 0xA0 SHL SUB AND PUSH32 0xCA64DBCAF91ABFB066E7A5163F1D135F8F48F2CBDB0395E3B35CC278EBBD340B DUP3 PUSH1 0x40 MLOAD PUSH2 0x1728 SWAP2 DUP2 MSTORE PUSH1 0x20 ADD SWAP1 JUMP JUMPDEST PUSH1 0x40 MLOAD DUP1 SWAP2 SUB SWAP1 LOG2 DUP3 DUP7 DUP6 PUSH1 0xFF AND DUP2 MLOAD DUP2 LT PUSH2 0x1746 JUMPI PUSH2 0x1746 PUSH2 0x3AD8 JUMP JUMPDEST PUSH1 0x20 MUL PUSH1 0x20 ADD ADD SWAP1 PUSH1 0x1 PUSH1 0x1 PUSH1 0xA0 SHL SUB AND SWAP1 DUP2 PUSH1 0x1 PUSH1 0x1 PUSH1 0xA0 SHL SUB AND DUP2 MSTORE POP POP DUP1 DUP6 DUP6 PUSH1 0xFF AND DUP2 MLOAD DUP2 LT PUSH2 0x177C JUMPI PUSH2 0x177C PUSH2 0x3AD8 JUMP JUMPDEST PUSH1 0x20 MUL PUSH1 0x20 ADD ADD DUP2 DUP2 MSTORE POP POP JUMPDEST POP POP POP DUP1 DUP1 PUSH2 0x1797 SWAP1 PUSH2 0x3AEE JUMP JUMPDEST SWAP2 POP POP PUSH2 0x1696 JUMP JUMPDEST POP SWAP1 SWAP4 POP SWAP2 POP POP SWAP1 SWAP2 JUMP JUMPDEST PUSH1 0x0 PUSH2 0x17B5 DUP2 PUSH2 0x29FF JUMP JUMPDEST PUSH1 0x1 PUSH1 0x1 PUSH1 0xA0 SHL SUB DUP4 AND PUSH1 0x0 DUP2 DUP2 MSTORE PUSH1 0x3 PUSH1 0x20 SWAP1 DUP2 MSTORE PUSH1 0x40 SWAP2 DUP3 SWAP1 KECCAK256 DUP1 SLOAD PUSH1 0xFF NOT AND DUP7 ISZERO ISZERO SWAP1 DUP2 OR SWAP1 SWAP2 SSTORE SWAP2 MLOAD SWAP2 DUP3 MSTORE PUSH32 0xE589EB036E62C07E307AA4D441BD39C81E8BD86F349EAACB0CAA06B1477F7F9A SWAP2 ADD PUSH2 0xDEF JUMP JUMPDEST PUSH1 0x0 DUP3 DUP2 MSTORE PUSH1 0x1 PUSH1 0x20 MSTORE PUSH1 0x40 DUP2 KECCAK256 PUSH2 0xB9C SWAP1 DUP4 PUSH2 0x2CE0 JUMP JUMPDEST PUSH1 0x0 SWAP2 DUP3 MSTORE PUSH1 0x20 DUP3 DUP2 MSTORE PUSH1 0x40 DUP1 DUP5 KECCAK256 PUSH1 0x1 PUSH1 0x1 PUSH1 0xA0 SHL SUB SWAP4 SWAP1 SWAP4 AND DUP5 MSTORE SWAP2 SWAP1 MSTORE SWAP1 KECCAK256 SLOAD PUSH1 0xFF AND SWAP1 JUMP JUMPDEST PUSH1 0x2 SLOAD PUSH1 0x60 SWAP1 PUSH1 0x0 SWAP1 PUSH1 0xFF AND PUSH1 0x1 PUSH1 0x1 PUSH1 0x40 SHL SUB DUP2 GT ISZERO PUSH2 0x1871 JUMPI PUSH2 0x1871 PUSH2 0x3AC2 JUMP JUMPDEST PUSH1 0x40 MLOAD SWAP1 DUP1 DUP3 MSTORE DUP1 PUSH1 0x20 MUL PUSH1 0x20 ADD DUP3 ADD PUSH1 0x40 MSTORE DUP1 ISZERO PUSH2 0x18AA JUMPI DUP2 PUSH1 0x20 ADD JUMPDEST PUSH2 0x1897 PUSH2 0x3259 JUMP JUMPDEST DUP2 MSTORE PUSH1 0x20 ADD SWAP1 PUSH1 0x1 SWAP1 SUB SWAP1 DUP2 PUSH2 0x188F JUMPI SWAP1 POP JUMPDEST POP SWAP1 POP PUSH1 0x0 JUMPDEST PUSH1 0x2 SLOAD PUSH1 0xFF SWAP1 DUP2 AND SWAP1 DUP3 AND LT ISZERO PUSH2 0x1C1C JUMPI PUSH1 0xFF DUP2 DUP2 AND PUSH1 0x0 SWAP1 DUP2 MSTORE PUSH1 0x4 PUSH1 0x20 DUP2 DUP2 MSTORE PUSH1 0x40 DUP1 DUP5 KECCAK256 SLOAD PUSH1 0x1 PUSH1 0x1 PUSH1 0xA0 SHL SUB SWAP1 DUP2 AND DUP1 DUP7 MSTORE PUSH1 0x3 DUP1 DUP6 MSTORE SWAP6 DUP4 SWAP1 KECCAK256 DUP4 MLOAD PUSH2 0x100 DUP1 DUP3 ADD DUP7 MSTORE DUP3 SLOAD DUP1 DUP12 AND ISZERO ISZERO DUP4 MSTORE DUP2 DUP2 DIV SWAP1 SWAP11 AND ISZERO ISZERO DUP3 DUP9 ADD MSTORE PUSH3 0x10000 DUP1 DUP12 DIV PUSH2 0xFFFF SWAP1 DUP2 AND DUP5 DUP10 ADD MSTORE PUSH1 0x1 PUSH1 0x20 SHL DUP1 DUP14 DIV PUSH1 0x1 PUSH1 0x1 PUSH1 0x40 SHL SUB AND PUSH1 0x60 DUP1 DUP8 ADD SWAP2 SWAP1 SWAP2 MSTORE PUSH1 0x1 PUSH1 0x60 SHL SWAP1 SWAP14 DIV SWAP1 SWAP8 AND PUSH1 0x80 DUP1 DUP7 ADD SWAP2 SWAP1 SWAP2 MSTORE PUSH1 0x1 DUP7 ADD SLOAD PUSH1 0xA0 DUP1 DUP8 ADD SWAP2 SWAP1 SWAP2 MSTORE PUSH1 0x2 DUP8 ADD SLOAD PUSH1 0xC0 DUP1 DUP9 ADD SWAP2 SWAP1 SWAP2 MSTORE DUP11 MLOAD PUSH2 0x120 DUP2 ADD DUP13 MSTORE SWAP14 DUP9 ADD SLOAD DUP1 DUP6 AND DUP16 MSTORE SWAP5 DUP6 DIV DUP5 AND SWAP12 DUP15 ADD SWAP12 SWAP1 SWAP12 MSTORE SWAP8 DUP4 DIV DUP3 AND SWAP9 DUP13 ADD SWAP9 SWAP1 SWAP9 MSTORE PUSH1 0x1 PUSH1 0x30 SHL DUP3 DIV DUP2 AND SWAP12 DUP12 ADD SWAP12 SWAP1 SWAP12 MSTORE PUSH1 0x1 PUSH1 0x40 SHL SWAP1 DIV SWAP1 SWAP10 AND SWAP5 DUP9 ADD SWAP5 SWAP1 SWAP5 MSTORE SWAP5 DUP6 ADD SLOAD SWAP2 DUP7 ADD SWAP2 SWAP1 SWAP2 MSTORE PUSH1 0x5 DUP5 ADD SLOAD SWAP3 DUP6 ADD SWAP3 SWAP1 SWAP3 MSTORE PUSH1 0x6 DUP4 ADD SLOAD PUSH1 0xE0 DUP1 DUP7 ADD SWAP2 SWAP1 SWAP2 MSTORE PUSH1 0x7 SWAP1 SWAP4 ADD SLOAD SWAP5 DUP5 ADD SWAP5 SWAP1 SWAP5 MSTORE SWAP1 DUP4 ADD SWAP2 SWAP1 SWAP2 MSTORE SWAP1 DUP2 PUSH2 0x1A82 JUMPI PUSH1 0x40 MLOAD DUP1 PUSH1 0xA0 ADD PUSH1 0x40 MSTORE DUP1 PUSH1 0x12 PUSH1 0xFF AND DUP2 MSTORE PUSH1 0x20 ADD DUP4 PUSH1 0x1 PUSH1 0x1 PUSH1 0xA0 SHL SUB AND DUP2 MSTORE PUSH1 0x20 ADD PUSH1 0x40 MLOAD DUP1 PUSH1 0x40 ADD PUSH1 0x40 MSTORE DUP1 PUSH1 0x3 DUP2 MSTORE PUSH1 0x20 ADD PUSH3 0x8AA89 PUSH1 0xEB SHL DUP2 MSTORE POP DUP2 MSTORE PUSH1 0x20 ADD PUSH1 0x40 MLOAD DUP1 PUSH1 0x40 ADD PUSH1 0x40 MSTORE DUP1 PUSH1 0x3 DUP2 MSTORE PUSH1 0x20 ADD PUSH3 0x8AA89 PUSH1 0xEB SHL DUP2 MSTORE POP DUP2 MSTORE PUSH1 0x20 ADD DUP3 DUP2 MSTORE POP DUP5 DUP5 PUSH1 0xFF AND DUP2 MLOAD DUP2 LT PUSH2 0x1A72 JUMPI PUSH2 0x1A72 PUSH2 0x3AD8 JUMP JUMPDEST PUSH1 0x20 MUL PUSH1 0x20 ADD ADD DUP2 SWAP1 MSTORE POP PUSH2 0x1C07 JUMP JUMPDEST PUSH1 0x0 DUP3 SWAP1 POP PUSH1 0x40 MLOAD DUP1 PUSH1 0xA0 ADD PUSH1 0x40 MSTORE DUP1 DUP3 PUSH1 0x1 PUSH1 0x1 PUSH1 0xA0 SHL SUB AND PUSH4 0x313CE567 PUSH1 0x40 MLOAD DUP2 PUSH4 0xFFFFFFFF AND PUSH1 0xE0 SHL DUP2 MSTORE PUSH1 0x4 ADD PUSH1 0x20 PUSH1 0x40 MLOAD DUP1 DUP4 SUB DUP2 DUP7 GAS STATICCALL ISZERO DUP1 ISZERO PUSH2 0x1AD0 JUMPI RETURNDATASIZE PUSH1 0x0 DUP1 RETURNDATACOPY RETURNDATASIZE PUSH1 0x0 REVERT JUMPDEST POP POP POP POP PUSH1 0x40 MLOAD RETURNDATASIZE PUSH1 0x1F NOT PUSH1 0x1F DUP3 ADD AND DUP3 ADD DUP1 PUSH1 0x40 MSTORE POP DUP2 ADD SWAP1 PUSH2 0x1AF4 SWAP2 SWAP1 PUSH2 0x3B0D JUMP JUMPDEST PUSH1 0xFF AND DUP2 MSTORE PUSH1 0x20 ADD DUP5 PUSH1 0x1 PUSH1 0x1 PUSH1 0xA0 SHL SUB AND DUP2 MSTORE PUSH1 0x20 ADD DUP3 PUSH1 0x1 PUSH1 0x1 PUSH1 0xA0 SHL SUB AND PUSH4 0x6FDDE03 PUSH1 0x40 MLOAD DUP2 PUSH4 0xFFFFFFFF AND PUSH1 0xE0 SHL DUP2 MSTORE PUSH1 0x4 ADD PUSH1 0x0 PUSH1 0x40 MLOAD DUP1 DUP4 SUB DUP2 DUP7 GAS STATICCALL ISZERO DUP1 ISZERO PUSH2 0x1B49 JUMPI RETURNDATASIZE PUSH1 0x0 DUP1 RETURNDATACOPY RETURNDATASIZE PUSH1 0x0 REVERT JUMPDEST POP POP POP POP PUSH1 0x40 MLOAD RETURNDATASIZE PUSH1 0x0 DUP3 RETURNDATACOPY PUSH1 0x1F RETURNDATASIZE SWAP1 DUP2 ADD PUSH1 0x1F NOT AND DUP3 ADD PUSH1 0x40 MSTORE PUSH2 0x1B71 SWAP2 SWAP1 DUP2 ADD SWAP1 PUSH2 0x3B30 JUMP JUMPDEST DUP2 MSTORE PUSH1 0x20 ADD DUP3 PUSH1 0x1 PUSH1 0x1 PUSH1 0xA0 SHL SUB AND PUSH4 0x95D89B41 PUSH1 0x40 MLOAD DUP2 PUSH4 0xFFFFFFFF AND PUSH1 0xE0 SHL DUP2 MSTORE PUSH1 0x4 ADD PUSH1 0x0 PUSH1 0x40 MLOAD DUP1 DUP4 SUB DUP2 DUP7 GAS STATICCALL ISZERO DUP1 ISZERO PUSH2 0x1BB4 JUMPI RETURNDATASIZE PUSH1 0x0 DUP1 RETURNDATACOPY RETURNDATASIZE PUSH1 0x0 REVERT JUMPDEST POP POP POP POP PUSH1 0x40 MLOAD RETURNDATASIZE PUSH1 0x0 DUP3 RETURNDATACOPY PUSH1 0x1F RETURNDATASIZE SWAP1 DUP2 ADD PUSH1 0x1F NOT AND DUP3 ADD PUSH1 0x40 MSTORE PUSH2 0x1BDC SWAP2 SWAP1 DUP2 ADD SWAP1 PUSH2 0x3B30 JUMP JUMPDEST DUP2 MSTORE PUSH1 0x20 ADD DUP4 DUP2 MSTORE POP DUP6 DUP6 PUSH1 0xFF AND DUP2 MLOAD DUP2 LT PUSH2 0x1BFA JUMPI PUSH2 0x1BFA PUSH2 0x3AD8 JUMP JUMPDEST PUSH1 0x20 MUL PUSH1 0x20 ADD ADD DUP2 SWAP1 MSTORE POP POP JUMPDEST POP POP DUP1 DUP1 PUSH2 0x1C14 SWAP1 PUSH2 0x3AEE JUMP JUMPDEST SWAP2 POP POP PUSH2 0x18B0 JUMP JUMPDEST POP SWAP2 SWAP1 POP JUMP JUMPDEST PUSH1 0x60 DUP2 PUSH1 0x1 PUSH1 0x1 PUSH1 0x40 SHL SUB DUP2 GT ISZERO PUSH2 0x1C3C JUMPI PUSH2 0x1C3C PUSH2 0x3AC2 JUMP JUMPDEST PUSH1 0x40 MLOAD SWAP1 DUP1 DUP3 MSTORE DUP1 PUSH1 0x20 MUL PUSH1 0x20 ADD DUP3 ADD PUSH1 0x40 MSTORE DUP1 ISZERO PUSH2 0x1C6F JUMPI DUP2 PUSH1 0x20 ADD JUMPDEST PUSH1 0x60 DUP2 MSTORE PUSH1 0x20 ADD SWAP1 PUSH1 0x1 SWAP1 SUB SWAP1 DUP2 PUSH2 0x1C5A JUMPI SWAP1 POP JUMPDEST POP SWAP1 POP PUSH1 0x0 JUMPDEST DUP3 DUP2 LT ISZERO PUSH2 0x1D0F JUMPI PUSH2 0x1CDF ADDRESS DUP6 DUP6 DUP5 DUP2 DUP2 LT PUSH2 0x1C93 JUMPI PUSH2 0x1C93 PUSH2 0x3AD8 JUMP JUMPDEST SWAP1 POP PUSH1 0x20 MUL DUP2 ADD SWAP1 PUSH2 0x1CA5 SWAP2 SWAP1 PUSH2 0x3BD1 JUMP JUMPDEST DUP1 DUP1 PUSH1 0x1F ADD PUSH1 0x20 DUP1 SWAP2 DIV MUL PUSH1 0x20 ADD PUSH1 0x40 MLOAD SWAP1 DUP2 ADD PUSH1 0x40 MSTORE DUP1 SWAP4 SWAP3 SWAP2 SWAP1 DUP2 DUP2 MSTORE PUSH1 0x20 ADD DUP4 DUP4 DUP1 DUP3 DUP5 CALLDATACOPY PUSH1 0x0 SWAP3 ADD SWAP2 SWAP1 SWAP2 MSTORE POP PUSH2 0x2CEC SWAP3 POP POP POP JUMP JUMPDEST DUP3 DUP3 DUP2 MLOAD DUP2 LT PUSH2 0x1CF1 JUMPI PUSH2 0x1CF1 PUSH2 0x3AD8 JUMP JUMPDEST PUSH1 0x20 MUL PUSH1 0x20 ADD ADD DUP2 SWAP1 MSTORE POP DUP1 DUP1 PUSH2 0x1D07 SWAP1 PUSH2 0x3C1E JUMP JUMPDEST SWAP2 POP POP PUSH2 0x1C75 JUMP JUMPDEST POP SWAP3 SWAP2 POP POP JUMP JUMPDEST PUSH1 0x1 PUSH1 0x1 PUSH1 0xA0 SHL SUB DUP1 DUP4 AND PUSH1 0x0 SWAP1 DUP2 MSTORE PUSH1 0x3 PUSH1 0x20 MSTORE PUSH1 0x40 DUP2 KECCAK256 SLOAD SWAP1 SWAP2 DUP5 SWAP2 PUSH1 0x1 PUSH1 0x60 SHL SWAP1 DIV AND DUP1 PUSH2 0x1D50 JUMPI PUSH2 0x1D4B DUP4 CALLER PUSH2 0x2C11 JUMP JUMPDEST PUSH2 0x1D79 JUMP JUMPDEST CALLER PUSH1 0x1 PUSH1 0x1 PUSH1 0xA0 SHL SUB DUP3 AND EQ PUSH2 0x1D79 JUMPI PUSH1 0x40 MLOAD PUSH4 0x4CA88867 PUSH1 0xE0 SHL DUP2 MSTORE PUSH1 0x4 ADD PUSH1 0x40 MLOAD DUP1 SWAP2 SUB SWAP1 REVERT JUMPDEST PUSH1 0x0 PUSH2 0x1D92 PUSH1 0x0 DUP1 MLOAD PUSH1 0x20 PUSH2 0x3D7E DUP4 CODECOPY DUP2 MLOAD SWAP2 MSTORE PUSH2 0x1F76 JUMP JUMPDEST SWAP1 POP PUSH1 0x0 JUMPDEST DUP2 DUP2 LT ISZERO PUSH2 0x1E27 JUMPI PUSH2 0x1DB7 PUSH1 0x0 DUP1 MLOAD PUSH1 0x20 PUSH2 0x3D7E DUP4 CODECOPY DUP2 MLOAD SWAP2 MSTORE DUP3 PUSH2 0x180D JUMP JUMPDEST PUSH1 0x40 MLOAD PUSH4 0x383E6AAF PUSH1 0xE1 SHL DUP2 MSTORE PUSH1 0x1 PUSH1 0x1 PUSH1 0xA0 SHL SUB DUP10 DUP2 AND PUSH1 0x4 DUP4 ADD MSTORE SWAP2 SWAP1 SWAP2 AND SWAP1 PUSH4 0x707CD55E SWAP1 PUSH1 0x24 ADD PUSH1 0x0 PUSH1 0x40 MLOAD DUP1 DUP4 SUB DUP2 PUSH1 0x0 DUP8 DUP1 EXTCODESIZE ISZERO DUP1 ISZERO PUSH2 0x1DFC JUMPI PUSH1 0x0 DUP1 REVERT JUMPDEST POP GAS CALL ISZERO DUP1 ISZERO PUSH2 0x1E10 JUMPI RETURNDATASIZE PUSH1 0x0 DUP1 RETURNDATACOPY RETURNDATASIZE PUSH1 0x0 REVERT JUMPDEST POP POP POP POP DUP1 DUP1 PUSH2 0x1E1F SWAP1 PUSH2 0x3C1E JUMP JUMPDEST SWAP2 POP POP PUSH2 0x1D97 JUMP JUMPDEST POP PUSH2 0x1E31 DUP7 PUSH2 0xE7A JUMP JUMPDEST PUSH2 0x1E3E DUP7 PUSH2 0x8BA DUP9 PUSH2 0x25EA JUMP JUMPDEST PUSH1 0x1 PUSH1 0x1 PUSH1 0xA0 SHL SUB DUP7 DUP2 AND PUSH1 0x0 DUP2 DUP2 MSTORE PUSH1 0x3 PUSH1 0x20 SWAP1 DUP2 MSTORE PUSH1 0x40 SWAP2 DUP3 SWAP1 KECCAK256 DUP1 SLOAD PUSH12 0xFFFFFFFFFFFFFFFFFFFFFFFF AND PUSH1 0x1 PUSH1 0x60 SHL SWAP6 DUP12 AND SWAP6 DUP7 MUL OR SWAP1 SSTORE SWAP1 MLOAD SWAP3 DUP4 MSTORE SWAP1 SWAP2 PUSH32 0xC991529379552AF6D0789CC899D5180A270A4BC3B1A3892ADCAC3D95F93DDA1D SWAP2 ADD JUMPDEST PUSH1 0x40 MLOAD DUP1 SWAP2 SUB SWAP1 LOG2 POP POP POP POP POP POP JUMP JUMPDEST PUSH1 0x1 PUSH1 0x1 PUSH1 0xA0 SHL SUB DUP1 DUP4 AND PUSH1 0x0 SWAP1 DUP2 MSTORE PUSH1 0x3 PUSH1 0x20 MSTORE PUSH1 0x40 DUP2 KECCAK256 SLOAD SWAP1 SWAP2 DUP5 SWAP2 PUSH1 0x1 PUSH1 0x60 SHL SWAP1 DIV AND DUP1 PUSH2 0x1EEE JUMPI PUSH2 0x1EE9 DUP4 CALLER PUSH2 0x2C11 JUMP JUMPDEST PUSH2 0x1F17 JUMP JUMPDEST CALLER PUSH1 0x1 PUSH1 0x1 PUSH1 0xA0 SHL SUB DUP3 AND EQ PUSH2 0x1F17 JUMPI PUSH1 0x40 MLOAD PUSH4 0x4CA88867 PUSH1 0xE0 SHL DUP2 MSTORE PUSH1 0x4 ADD PUSH1 0x40 MLOAD DUP1 SWAP2 SUB SWAP1 REVERT JUMPDEST PUSH1 0x1 PUSH1 0x1 PUSH1 0xA0 SHL SUB DUP6 AND PUSH1 0x0 DUP2 DUP2 MSTORE PUSH1 0x3 PUSH1 0x20 MSTORE PUSH1 0x40 SWAP1 DUP2 SWAP1 KECCAK256 DUP1 SLOAD DUP8 ISZERO ISZERO PUSH2 0x100 MUL PUSH2 0xFF00 NOT SWAP1 SWAP2 AND OR SWAP1 SSTORE MLOAD PUSH32 0x624DD6809915867C3C11279C2699633040681F0E4EFB0FA9A193217A11903C60 SWAP1 PUSH2 0xB4B SWAP1 DUP8 ISZERO ISZERO DUP2 MSTORE PUSH1 0x20 ADD SWAP1 JUMP JUMPDEST PUSH1 0x0 DUP2 DUP2 MSTORE PUSH1 0x1 PUSH1 0x20 MSTORE PUSH1 0x40 DUP2 KECCAK256 PUSH2 0x958 SWAP1 PUSH2 0x2D11 JUMP JUMPDEST PUSH1 0x0 DUP1 MLOAD PUSH1 0x20 PUSH2 0x3D7E DUP4 CODECOPY DUP2 MLOAD SWAP2 MSTORE PUSH2 0x1FA5 DUP2 PUSH2 0x29FF JUMP JUMPDEST PUSH2 0x1FAF DUP4 DUP4 PUSH2 0x2A0C JUMP JUMPDEST DUP3 PUSH1 0x1 PUSH1 0x1 PUSH1 0xA0 SHL SUB AND PUSH32 0x71928AB56DD9FB6DF8072ADF5FEFB4D17ED280FA21652433FE96D7D6729BD328 PUSH2 0xDC7 DUP6 PUSH2 0x25EA JUMP JUMPDEST PUSH1 0x1 PUSH1 0x1 PUSH1 0xA0 SHL SUB DUP2 DUP2 AND PUSH1 0x0 SWAP1 DUP2 MSTORE PUSH1 0x3 PUSH1 0x20 DUP2 DUP2 MSTORE PUSH1 0x40 DUP1 DUP5 KECCAK256 DUP2 MLOAD PUSH2 0x100 DUP1 DUP3 ADD DUP5 MSTORE DUP3 SLOAD PUSH1 0xFF DUP1 DUP3 AND ISZERO ISZERO DUP5 MSTORE DUP3 DUP3 DIV AND ISZERO ISZERO DUP4 DUP8 ADD MSTORE PUSH3 0x10000 DUP1 DUP3 DIV PUSH2 0xFFFF SWAP1 DUP2 AND DUP6 DUP9 ADD MSTORE PUSH1 0x1 PUSH1 0x20 SHL DUP1 DUP5 DIV PUSH1 0x1 PUSH1 0x1 PUSH1 0x40 SHL SUB AND PUSH1 0x60 DUP1 DUP9 ADD SWAP2 SWAP1 SWAP2 MSTORE PUSH1 0x1 PUSH1 0x60 SHL SWAP1 SWAP5 DIV SWAP1 SWAP12 AND PUSH1 0x80 DUP1 DUP8 ADD SWAP2 SWAP1 SWAP2 MSTORE PUSH1 0x1 DUP8 ADD SLOAD PUSH1 0xA0 DUP1 DUP9 ADD SWAP2 SWAP1 SWAP2 MSTORE PUSH1 0x2 DUP9 ADD SLOAD PUSH1 0xC0 DUP1 DUP10 ADD SWAP2 SWAP1 SWAP2 MSTORE DUP10 MLOAD PUSH2 0x120 DUP2 ADD DUP12 MSTORE SWAP12 DUP10 ADD SLOAD DUP1 DUP6 AND DUP14 MSTORE SWAP5 DUP6 DIV DUP5 AND SWAP11 DUP13 ADD SWAP11 SWAP1 SWAP11 MSTORE SWAP12 DUP4 DIV DUP3 AND SWAP8 DUP11 ADD SWAP8 SWAP1 SWAP8 MSTORE PUSH1 0x1 PUSH1 0x30 SHL DUP3 DIV DUP2 AND SWAP3 DUP10 ADD SWAP3 SWAP1 SWAP3 MSTORE PUSH1 0x1 PUSH1 0x40 SHL SWAP1 DIV AND SWAP4 DUP7 ADD SWAP4 SWAP1 SWAP4 MSTORE PUSH1 0x4 DUP3 ADD SLOAD SWAP7 DUP6 ADD SWAP7 SWAP1 SWAP7 MSTORE PUSH1 0x5 DUP2 ADD SLOAD SWAP3 DUP5 ADD SWAP3 SWAP1 SWAP3 MSTORE PUSH1 0x6 DUP3 ADD SLOAD PUSH1 0xE0 DUP1 DUP6 ADD SWAP2 SWAP1 SWAP2 MSTORE PUSH1 0x7 SWAP1 SWAP3 ADD SLOAD SWAP1 DUP4 ADD MSTORE DUP4 ADD MSTORE DUP2 MLOAD SWAP1 SWAP2 SWAP1 DUP1 ISZERO PUSH2 0xB9C JUMPI POP PUSH1 0x20 ADD MLOAD ISZERO SWAP3 SWAP2 POP POP JUMP JUMPDEST PUSH1 0x0 PUSH2 0x2117 DUP2 PUSH2 0x29FF JUMP JUMPDEST PUSH1 0x2 SLOAD PUSH1 0xFF AND ISZERO PUSH2 0x2188 JUMPI PUSH1 0x0 JUMPDEST PUSH1 0x2 SLOAD PUSH1 0xFF SWAP1 DUP2 AND SWAP1 DUP3 AND LT ISZERO PUSH2 0x2186 JUMPI PUSH1 0xFF DUP2 AND PUSH1 0x0 SWAP1 DUP2 MSTORE PUSH1 0x4 PUSH1 0x20 MSTORE PUSH1 0x40 SWAP1 KECCAK256 SLOAD PUSH1 0x1 PUSH1 0x1 PUSH1 0xA0 SHL SUB DUP1 DUP6 AND SWAP2 AND SUB PUSH2 0x2174 JUMPI PUSH1 0x40 MLOAD PUSH4 0x2AE3F45D PUSH1 0xE1 SHL DUP2 MSTORE PUSH1 0x4 ADD PUSH1 0x40 MLOAD DUP1 SWAP2 SUB SWAP1 REVERT JUMPDEST DUP1 PUSH2 0x217E DUP2 PUSH2 0x3AEE JUMP JUMPDEST SWAP2 POP POP PUSH2 0x2125 JUMP JUMPDEST POP JUMPDEST PUSH1 0x2 DUP1 SLOAD PUSH1 0xFF SWAP1 DUP2 AND PUSH1 0x0 SWAP1 DUP2 MSTORE PUSH1 0x4 PUSH1 0x20 MSTORE PUSH1 0x40 DUP2 KECCAK256 DUP1 SLOAD PUSH1 0x1 PUSH1 0x1 PUSH1 0xA0 SHL SUB NOT AND PUSH1 0x1 PUSH1 0x1 PUSH1 0xA0 SHL SUB DUP8 AND OR SWAP1 SSTORE DUP3 SLOAD PUSH1 0x1 SWAP4 SWAP3 PUSH2 0x21CA SWAP2 DUP6 SWAP2 AND PUSH2 0x3C37 JUMP JUMPDEST SWAP3 POP PUSH2 0x100 EXP DUP2 SLOAD DUP2 PUSH1 0xFF MUL NOT AND SWAP1 DUP4 PUSH1 0xFF AND MUL OR SWAP1 SSTORE POP PUSH32 0xE473C74F34BE27C1464D6624F14A0D7FD4E301CBFA29C3EBA425D378C8A7EBE0 DUP3 PUSH1 0x40 MLOAD PUSH2 0xACE SWAP2 SWAP1 PUSH1 0x1 PUSH1 0x1 PUSH1 0xA0 SHL SUB SWAP2 SWAP1 SWAP2 AND DUP2 MSTORE PUSH1 0x20 ADD SWAP1 JUMP JUMPDEST PUSH1 0x0 DUP3 DUP2 MSTORE PUSH1 0x20 DUP2 SWAP1 MSTORE PUSH1 0x40 SWAP1 KECCAK256 PUSH1 0x1 ADD SLOAD PUSH2 0x223B DUP2 PUSH2 0x29FF JUMP JUMPDEST PUSH2 0xD76 DUP4 DUP4 PUSH2 0x2BEF JUMP JUMPDEST PUSH1 0x1 PUSH1 0x1 PUSH1 0xA0 SHL SUB DUP1 DUP3 AND PUSH1 0x0 SWAP1 DUP2 MSTORE PUSH1 0x3 PUSH1 0x20 MSTORE PUSH1 0x40 DUP2 KECCAK256 SLOAD SWAP1 SWAP2 PUSH1 0x1 PUSH1 0x60 SHL SWAP1 SWAP2 DIV AND DUP1 PUSH2 0x958 JUMPI PUSH2 0xB9C PUSH1 0x0 DUP1 PUSH2 0x180D JUMP JUMPDEST PUSH1 0x2 SLOAD PUSH1 0x60 SWAP1 DUP2 SWAP1 PUSH1 0x0 SWAP1 PUSH1 0xFF AND PUSH1 0x1 PUSH1 0x1 PUSH1 0x40 SHL SUB DUP2 GT ISZERO PUSH2 0x229F JUMPI PUSH2 0x229F PUSH2 0x3AC2 JUMP JUMPDEST PUSH1 0x40 MLOAD SWAP1 DUP1 DUP3 MSTORE DUP1 PUSH1 0x20 MUL PUSH1 0x20 ADD DUP3 ADD PUSH1 0x40 MSTORE DUP1 ISZERO PUSH2 0x22C8 JUMPI DUP2 PUSH1 0x20 ADD PUSH1 0x20 DUP3 MUL DUP1 CALLDATASIZE DUP4 CALLDATACOPY ADD SWAP1 POP JUMPDEST POP PUSH1 0x2 SLOAD SWAP1 SWAP2 POP PUSH1 0x0 SWAP1 PUSH1 0xFF AND PUSH1 0x1 PUSH1 0x1 PUSH1 0x40 SHL SUB DUP2 GT ISZERO PUSH2 0x22EC JUMPI PUSH2 0x22EC PUSH2 0x3AC2 JUMP JUMPDEST PUSH1 0x40 MLOAD SWAP1 DUP1 DUP3 MSTORE DUP1 PUSH1 0x20 MUL PUSH1 0x20 ADD DUP3 ADD PUSH1 0x40 MSTORE DUP1 ISZERO PUSH2 0x2315 JUMPI DUP2 PUSH1 0x20 ADD PUSH1 0x20 DUP3 MUL DUP1 CALLDATASIZE DUP4 CALLDATACOPY ADD SWAP1 POP JUMPDEST POP SWAP1 POP PUSH1 0x0 JUMPDEST PUSH1 0x2 SLOAD PUSH1 0xFF SWAP1 DUP2 AND SWAP1 DUP3 AND LT ISZERO PUSH2 0x23CF JUMPI PUSH1 0xFF DUP2 AND PUSH1 0x0 SWAP1 DUP2 MSTORE PUSH1 0x4 PUSH1 0x20 DUP2 DUP2 MSTORE PUSH1 0x40 DUP1 DUP5 KECCAK256 SLOAD PUSH1 0x1 PUSH1 0x1 PUSH1 0xA0 SHL SUB AND DUP1 DUP6 MSTORE PUSH1 0x3 SWAP1 SWAP3 MSTORE SWAP1 SWAP3 KECCAK256 SWAP1 DUP2 ADD SLOAD DUP1 ISZERO PUSH2 0x23B9 JUMPI DUP3 DUP7 DUP6 PUSH1 0xFF AND DUP2 MLOAD DUP2 LT PUSH2 0x2376 JUMPI PUSH2 0x2376 PUSH2 0x3AD8 JUMP JUMPDEST PUSH1 0x20 MUL PUSH1 0x20 ADD ADD SWAP1 PUSH1 0x1 PUSH1 0x1 PUSH1 0xA0 SHL SUB AND SWAP1 DUP2 PUSH1 0x1 PUSH1 0x1 PUSH1 0xA0 SHL SUB AND DUP2 MSTORE POP POP DUP1 DUP6 DUP6 PUSH1 0xFF AND DUP2 MLOAD DUP2 LT PUSH2 0x23AC JUMPI PUSH2 0x23AC PUSH2 0x3AD8 JUMP JUMPDEST PUSH1 0x20 MUL PUSH1 0x20 ADD ADD DUP2 DUP2 MSTORE POP POP JUMPDEST POP POP POP DUP1 DUP1 PUSH2 0x23C7 SWAP1 PUSH2 0x3AEE JUMP JUMPDEST SWAP2 POP POP PUSH2 0x231B JUMP JUMPDEST POP SWAP1 SWAP4 SWAP1 SWAP3 POP SWAP1 POP JUMP JUMPDEST PUSH1 0x1 PUSH1 0x1 PUSH1 0xA0 SHL SUB DUP1 DUP4 AND PUSH1 0x0 SWAP1 DUP2 MSTORE PUSH1 0x3 PUSH1 0x20 MSTORE PUSH1 0x40 DUP2 KECCAK256 SLOAD SWAP1 SWAP2 DUP5 SWAP2 PUSH1 0x1 PUSH1 0x60 SHL SWAP1 DIV AND DUP1 PUSH2 0x2413 JUMPI PUSH2 0x240E DUP4 CALLER PUSH2 0x2C11 JUMP JUMPDEST PUSH2 0x243C JUMP JUMPDEST CALLER PUSH1 0x1 PUSH1 0x1 PUSH1 0xA0 SHL SUB DUP3 AND EQ PUSH2 0x243C JUMPI PUSH1 0x40 MLOAD PUSH4 0x4CA88867 PUSH1 0xE0 SHL DUP2 MSTORE PUSH1 0x4 ADD PUSH1 0x40 MLOAD DUP1 SWAP2 SUB SWAP1 REVERT JUMPDEST PUSH1 0x0 PUSH2 0x2447 DUP7 PUSH2 0x25EA JUMP JUMPDEST SWAP1 POP DUP1 ISZERO PUSH2 0x256A JUMPI PUSH1 0x1 PUSH1 0x1 PUSH1 0xA0 SHL SUB DUP7 AND PUSH1 0x0 SWAP1 DUP2 MSTORE PUSH1 0x3 PUSH1 0x20 MSTORE PUSH1 0x40 SWAP1 KECCAK256 SLOAD PUSH2 0x100 SWAP1 DIV PUSH1 0xFF AND PUSH2 0x248D JUMPI PUSH1 0x40 MLOAD PUSH4 0x93B3A85D PUSH1 0xE0 SHL DUP2 MSTORE PUSH1 0x4 ADD PUSH1 0x40 MLOAD DUP1 SWAP2 SUB SWAP1 REVERT JUMPDEST PUSH1 0x0 PUSH2 0x24A6 PUSH1 0x0 DUP1 MLOAD PUSH1 0x20 PUSH2 0x3D7E DUP4 CODECOPY DUP2 MLOAD SWAP2 MSTORE PUSH2 0x1F76 JUMP JUMPDEST SWAP1 POP PUSH1 0x0 JUMPDEST DUP2 DUP2 LT ISZERO PUSH2 0x2567 JUMPI PUSH2 0x24CB PUSH1 0x0 DUP1 MLOAD PUSH1 0x20 PUSH2 0x3D7E DUP4 CODECOPY DUP2 MLOAD SWAP2 MSTORE DUP3 PUSH2 0x180D JUMP JUMPDEST PUSH1 0x40 MLOAD PUSH4 0x594043FD PUSH1 0xE0 SHL DUP2 MSTORE PUSH1 0x1 PUSH1 0x1 PUSH1 0xA0 SHL SUB DUP11 DUP2 AND PUSH1 0x4 DUP4 ADD MSTORE SWAP2 SWAP1 SWAP2 AND SWAP1 PUSH4 0x594043FD SWAP1 PUSH1 0x24 ADD PUSH1 0x20 PUSH1 0x40 MLOAD DUP1 DUP4 SUB DUP2 DUP7 GAS STATICCALL ISZERO DUP1 ISZERO PUSH2 0x2513 JUMPI RETURNDATASIZE PUSH1 0x0 DUP1 RETURNDATACOPY RETURNDATASIZE PUSH1 0x0 REVERT JUMPDEST POP POP POP POP PUSH1 0x40 MLOAD RETURNDATASIZE PUSH1 0x1F NOT PUSH1 0x1F DUP3 ADD AND DUP3 ADD DUP1 PUSH1 0x40 MSTORE POP DUP2 ADD SWAP1 PUSH2 0x2537 SWAP2 SWAP1 PUSH2 0x3C50 JUMP JUMPDEST ISZERO PUSH2 0x2555 JUMPI PUSH1 0x40 MLOAD PUSH4 0x55212B7 PUSH1 0xE5 SHL DUP2 MSTORE PUSH1 0x4 ADD PUSH1 0x40 MLOAD DUP1 SWAP2 SUB SWAP1 REVERT JUMPDEST DUP1 PUSH2 0x255F DUP2 PUSH2 0x3C1E JUMP JUMPDEST SWAP2 POP POP PUSH2 0x24AB JUMP JUMPDEST POP POP JUMPDEST DUP1 DUP6 GT ISZERO PUSH2 0x2576 JUMPI DUP1 SWAP5 POP JUMPDEST PUSH2 0x2581 CALLER DUP8 DUP8 PUSH2 0x29A7 JUMP JUMPDEST DUP6 PUSH1 0x1 PUSH1 0x1 PUSH1 0xA0 SHL SUB AND PUSH32 0x884EDAD9CE6FA2440D8A54CC123490EB96D2768479D49FF9C7366125A9424364 DUP7 PUSH1 0x40 MLOAD PUSH2 0x1EA4 SWAP2 DUP2 MSTORE PUSH1 0x20 ADD SWAP1 JUMP JUMPDEST PUSH1 0x1 PUSH1 0x1 PUSH1 0xA0 SHL SUB DUP2 AND PUSH1 0x0 SWAP1 DUP2 MSTORE PUSH1 0x3 PUSH1 0x20 MSTORE PUSH1 0x40 DUP2 KECCAK256 PUSH1 0x1 ADD SLOAD SWAP1 DUP2 SWAP1 SUB PUSH2 0x25E5 JUMPI POP PUSH2 0x2710 JUMPDEST SWAP2 SWAP1 POP JUMP JUMPDEST PUSH1 0x0 DUP1 PUSH1 0x1 PUSH1 0x1 PUSH1 0xA0 SHL SUB DUP4 AND PUSH2 0x2602 JUMPI POP SELFBALANCE PUSH2 0x266D JUMP JUMPDEST PUSH1 0x40 MLOAD PUSH4 0x70A08231 PUSH1 0xE0 SHL DUP2 MSTORE ADDRESS PUSH1 0x4 DUP3 ADD MSTORE PUSH1 0x1 PUSH1 0x1 PUSH1 0xA0 SHL SUB DUP5 AND SWAP1 PUSH4 0x70A08231 SWAP1 PUSH1 0x24 ADD PUSH1 0x20 PUSH1 0x40 MLOAD DUP1 DUP4 SUB DUP2 DUP7 GAS STATICCALL ISZERO DUP1 ISZERO PUSH2 0x2646 JUMPI RETURNDATASIZE PUSH1 0x0 DUP1 RETURNDATACOPY RETURNDATASIZE PUSH1 0x0 REVERT JUMPDEST POP POP POP POP PUSH1 0x40 MLOAD RETURNDATASIZE PUSH1 0x1F NOT PUSH1 0x1F DUP3 ADD AND DUP3 ADD DUP1 PUSH1 0x40 MSTORE POP DUP2 ADD SWAP1 PUSH2 0x266A SWAP2 SWAP1 PUSH2 0x3C6D JUMP JUMPDEST SWAP1 POP JUMPDEST PUSH1 0x1 PUSH1 0x1 PUSH1 0xA0 SHL SUB DUP4 AND PUSH1 0x0 SWAP1 DUP2 MSTORE PUSH1 0x3 PUSH1 0x20 DUP2 DUP2 MSTORE PUSH1 0x40 SWAP3 DUP4 SWAP1 KECCAK256 DUP4 MLOAD PUSH2 0x120 DUP2 ADD DUP6 MSTORE SWAP3 DUP2 ADD SLOAD PUSH2 0xFFFF DUP1 DUP3 AND DUP6 MSTORE PUSH3 0x10000 DUP3 DIV DUP2 AND SWAP4 DUP6 ADD SWAP4 SWAP1 SWAP4 MSTORE PUSH1 0x1 PUSH1 0x20 SHL DUP2 DIV DUP4 AND SWAP5 DUP5 ADD SWAP5 SWAP1 SWAP5 MSTORE PUSH1 0x1 PUSH1 0x30 SHL DUP5 DIV DUP3 AND PUSH1 0x60 DUP5 ADD MSTORE PUSH1 0x1 PUSH1 0x40 SHL SWAP1 SWAP4 DIV AND PUSH1 0x80 DUP3 ADD MSTORE PUSH1 0x4 DUP3 ADD SLOAD PUSH1 0xA0 DUP3 ADD DUP2 SWAP1 MSTORE PUSH1 0x5 DUP4 ADD SLOAD PUSH1 0xC0 DUP4 ADD DUP2 SWAP1 MSTORE PUSH1 0x6 DUP5 ADD SLOAD PUSH1 0xE0 DUP5 ADD DUP2 SWAP1 MSTORE PUSH1 0x7 SWAP1 SWAP5 ADD SLOAD PUSH2 0x100 DUP5 ADD DUP2 SWAP1 MSTORE SWAP3 SWAP4 SWAP2 PUSH2 0x2718 SWAP1 DUP7 PUSH2 0x3C86 JUMP JUMPDEST PUSH2 0x2722 SWAP2 SWAP1 PUSH2 0x3C86 JUMP JUMPDEST PUSH2 0x272C SWAP2 SWAP1 PUSH2 0x3C86 JUMP JUMPDEST PUSH2 0x2736 SWAP2 SWAP1 PUSH2 0x3C86 JUMP JUMPDEST SWAP5 SWAP4 POP POP POP POP JUMP JUMPDEST PUSH2 0x2748 DUP3 DUP3 PUSH2 0x1825 JUMP JUMPDEST PUSH2 0xE76 JUMPI PUSH1 0x0 DUP3 DUP2 MSTORE PUSH1 0x20 DUP2 DUP2 MSTORE PUSH1 0x40 DUP1 DUP4 KECCAK256 PUSH1 0x1 PUSH1 0x1 PUSH1 0xA0 SHL SUB DUP6 AND DUP5 MSTORE SWAP1 SWAP2 MSTORE SWAP1 KECCAK256 DUP1 SLOAD PUSH1 0xFF NOT AND PUSH1 0x1 OR SWAP1 SSTORE PUSH2 0x277E CALLER SWAP1 JUMP JUMPDEST PUSH1 0x1 PUSH1 0x1 PUSH1 0xA0 SHL SUB AND DUP2 PUSH1 0x1 PUSH1 0x1 PUSH1 0xA0 SHL SUB AND DUP4 PUSH32 0x2F8788117E7EFF1D82E926EC794901D17C78024A50270940304540A733656F0D PUSH1 0x40 MLOAD PUSH1 0x40 MLOAD DUP1 SWAP2 SUB SWAP1 LOG4 POP POP JUMP JUMPDEST PUSH1 0x0 PUSH2 0xB9C DUP4 PUSH1 0x1 PUSH1 0x1 PUSH1 0xA0 SHL SUB DUP5 AND PUSH2 0x2D1B JUMP JUMPDEST PUSH1 0x60 PUSH1 0x0 PUSH2 0x27E6 DUP4 PUSH1 0x2 PUSH2 0x39F4 JUMP JUMPDEST PUSH2 0x27F1 SWAP1 PUSH1 0x2 PUSH2 0x3C99 JUMP JUMPDEST PUSH1 0x1 PUSH1 0x1 PUSH1 0x40 SHL SUB DUP2 GT ISZERO PUSH2 0x2808 JUMPI PUSH2 0x2808 PUSH2 0x3AC2 JUMP JUMPDEST PUSH1 0x40 MLOAD SWAP1 DUP1 DUP3 MSTORE DUP1 PUSH1 0x1F ADD PUSH1 0x1F NOT AND PUSH1 0x20 ADD DUP3 ADD PUSH1 0x40 MSTORE DUP1 ISZERO PUSH2 0x2832 JUMPI PUSH1 0x20 DUP3 ADD DUP2 DUP1 CALLDATASIZE DUP4 CALLDATACOPY ADD SWAP1 POP JUMPDEST POP SWAP1 POP PUSH1 0x3 PUSH1 0xFC SHL DUP2 PUSH1 0x0 DUP2 MLOAD DUP2 LT PUSH2 0x284D JUMPI PUSH2 0x284D PUSH2 0x3AD8 JUMP JUMPDEST PUSH1 0x20 ADD ADD SWAP1 PUSH1 0x1 PUSH1 0x1 PUSH1 0xF8 SHL SUB NOT AND SWAP1 DUP2 PUSH1 0x0 BYTE SWAP1 MSTORE8 POP PUSH1 0xF PUSH1 0xFB SHL DUP2 PUSH1 0x1 DUP2 MLOAD DUP2 LT PUSH2 0x287C JUMPI PUSH2 0x287C PUSH2 0x3AD8 JUMP JUMPDEST PUSH1 0x20 ADD ADD SWAP1 PUSH1 0x1 PUSH1 0x1 PUSH1 0xF8 SHL SUB NOT AND SWAP1 DUP2 PUSH1 0x0 BYTE SWAP1 MSTORE8 POP PUSH1 0x0 PUSH2 0x28A0 DUP5 PUSH1 0x2 PUSH2 0x39F4 JUMP JUMPDEST PUSH2 0x28AB SWAP1 PUSH1 0x1 PUSH2 0x3C99 JUMP JUMPDEST SWAP1 POP JUMPDEST PUSH1 0x1 DUP2 GT ISZERO PUSH2 0x2923 JUMPI PUSH16 0x181899199A1A9B1B9C1CB0B131B232B3 PUSH1 0x81 SHL DUP6 PUSH1 0xF AND PUSH1 0x10 DUP2 LT PUSH2 0x28DF JUMPI PUSH2 0x28DF PUSH2 0x3AD8 JUMP JUMPDEST BYTE PUSH1 0xF8 SHL DUP3 DUP3 DUP2 MLOAD DUP2 LT PUSH2 0x28F5 JUMPI PUSH2 0x28F5 PUSH2 0x3AD8 JUMP JUMPDEST PUSH1 0x20 ADD ADD SWAP1 PUSH1 0x1 PUSH1 0x1 PUSH1 0xF8 SHL SUB NOT AND SWAP1 DUP2 PUSH1 0x0 BYTE SWAP1 MSTORE8 POP PUSH1 0x4 SWAP5 SWAP1 SWAP5 SHR SWAP4 PUSH2 0x291C DUP2 PUSH2 0x3CAC JUMP JUMPDEST SWAP1 POP PUSH2 0x28AE JUMP JUMPDEST POP DUP4 ISZERO PUSH2 0xB9C JUMPI PUSH1 0x40 MLOAD PUSH3 0x461BCD PUSH1 0xE5 SHL DUP2 MSTORE PUSH1 0x20 PUSH1 0x4 DUP3 ADD DUP2 SWAP1 MSTORE PUSH1 0x24 DUP3 ADD MSTORE PUSH32 0x537472696E67733A20686578206C656E67746820696E73756666696369656E74 PUSH1 0x44 DUP3 ADD MSTORE PUSH1 0x64 ADD PUSH2 0xC05 JUMP JUMPDEST PUSH1 0x0 PUSH1 0x1 PUSH1 0x1 PUSH1 0xE0 SHL SUB NOT DUP3 AND PUSH4 0x7965DB0B PUSH1 0xE0 SHL EQ DUP1 PUSH2 0x958 JUMPI POP PUSH4 0x1FFC9A7 PUSH1 0xE0 SHL PUSH1 0x1 PUSH1 0x1 PUSH1 0xE0 SHL SUB NOT DUP4 AND EQ PUSH2 0x958 JUMP JUMPDEST PUSH1 0x1 PUSH1 0x1 PUSH1 0xA0 SHL SUB DUP3 AND PUSH2 0x29EB JUMPI PUSH1 0x40 MLOAD PUSH1 0x1 PUSH1 0x1 PUSH1 0xA0 SHL SUB DUP5 AND SWAP1 DUP3 ISZERO PUSH2 0x8FC MUL SWAP1 DUP4 SWAP1 PUSH1 0x0 DUP2 DUP2 DUP2 DUP6 DUP9 DUP9 CALL SWAP4 POP POP POP POP ISZERO DUP1 ISZERO PUSH2 0xA41 JUMPI RETURNDATASIZE PUSH1 0x0 DUP1 RETURNDATACOPY RETURNDATASIZE PUSH1 0x0 REVERT JUMPDEST PUSH2 0xD76 PUSH1 0x1 PUSH1 0x1 PUSH1 0xA0 SHL SUB DUP4 AND DUP5 DUP4 PUSH2 0x2D6A JUMP JUMPDEST PUSH2 0x2A09 DUP2 CALLER PUSH2 0x2C11 JUMP JUMPDEST POP JUMP JUMPDEST PUSH1 0x1 PUSH1 0x1 PUSH1 0xA0 SHL SUB DUP3 AND PUSH1 0x0 SWAP1 DUP2 MSTORE PUSH1 0x3 PUSH1 0x20 DUP2 SWAP1 MSTORE PUSH1 0x40 DUP3 KECCAK256 ADD DUP1 SLOAD SWAP1 SWAP2 SWAP1 PUSH1 0x1 PUSH1 0x20 SHL SWAP1 DIV PUSH2 0xFFFF AND ISZERO PUSH2 0x2A7D JUMPI DUP2 SLOAD PUSH2 0x2710 SWAP1 PUSH2 0x2A57 SWAP1 PUSH1 0x1 PUSH1 0x20 SHL SWAP1 DIV PUSH2 0xFFFF AND DUP6 PUSH2 0x39F4 JUMP JUMPDEST PUSH2 0x2A61 SWAP2 SWAP1 PUSH2 0x3A13 JUMP JUMPDEST SWAP1 POP DUP1 DUP3 PUSH1 0x2 ADD PUSH1 0x0 DUP3 DUP3 SLOAD PUSH2 0x2A77 SWAP2 SWAP1 PUSH2 0x3C99 JUMP JUMPDEST SWAP1 SWAP2 SSTORE POP POP JUMPDEST DUP2 SLOAD PUSH1 0x0 SWAP1 PUSH2 0x2710 SWAP1 PUSH2 0x2A9A SWAP1 PUSH3 0x10000 SWAP1 DIV PUSH2 0xFFFF AND DUP7 PUSH2 0x39F4 JUMP JUMPDEST PUSH2 0x2AA4 SWAP2 SWAP1 PUSH2 0x3A13 JUMP JUMPDEST SWAP1 POP DUP1 DUP4 PUSH1 0x1 ADD PUSH1 0x0 DUP3 DUP3 SLOAD PUSH2 0x2ABA SWAP2 SWAP1 PUSH2 0x3C99 JUMP JUMPDEST SWAP1 SWAP2 SSTORE POP POP DUP3 SLOAD PUSH1 0x0 SWAP1 PUSH2 0x2710 SWAP1 PUSH2 0x2AD6 SWAP1 PUSH2 0xFFFF AND DUP8 PUSH2 0x39F4 JUMP JUMPDEST PUSH2 0x2AE0 SWAP2 SWAP1 PUSH2 0x3A13 JUMP JUMPDEST DUP5 SLOAD SWAP1 SWAP2 POP PUSH1 0x0 SWAP1 PUSH2 0x2710 SWAP1 PUSH2 0x2B01 SWAP1 PUSH1 0x1 PUSH1 0x30 SHL SWAP1 DIV PUSH2 0xFFFF AND DUP9 PUSH2 0x39F4 JUMP JUMPDEST PUSH2 0x2B0B SWAP2 SWAP1 PUSH2 0x3A13 JUMP JUMPDEST SWAP1 POP DUP1 DUP6 PUSH1 0x3 ADD PUSH1 0x0 DUP3 DUP3 SLOAD PUSH2 0x2B21 SWAP2 SWAP1 PUSH2 0x3C99 JUMP JUMPDEST SWAP1 SWAP2 SSTORE POP POP DUP5 SLOAD PUSH1 0x0 SWAP1 PUSH2 0x2710 SWAP1 PUSH2 0x2B44 SWAP1 PUSH1 0x1 PUSH1 0x40 SHL SWAP1 DIV PUSH2 0xFFFF AND DUP10 PUSH2 0x39F4 JUMP JUMPDEST PUSH2 0x2B4E SWAP2 SWAP1 PUSH2 0x3A13 JUMP JUMPDEST SWAP1 POP DUP1 DUP7 PUSH1 0x4 ADD PUSH1 0x0 DUP3 DUP3 SLOAD PUSH2 0x2B64 SWAP2 SWAP1 PUSH2 0x3C99 JUMP JUMPDEST SWAP1 SWAP2 SSTORE POP POP PUSH1 0x40 DUP1 MLOAD DUP5 DUP2 MSTORE PUSH1 0x20 DUP2 ADD DUP7 SWAP1 MSTORE SWAP1 DUP2 ADD DUP7 SWAP1 MSTORE PUSH1 0x60 DUP2 ADD DUP4 SWAP1 MSTORE PUSH1 0x80 DUP2 ADD DUP3 SWAP1 MSTORE PUSH1 0x1 PUSH1 0x1 PUSH1 0xA0 SHL SUB DUP10 AND SWAP1 PUSH32 0xC73E6F5BCD4395126567EAD7E4C14B7C52A5F0B9EABD3335A05E631646A127E3 SWAP1 PUSH1 0xA0 ADD PUSH1 0x40 MLOAD DUP1 SWAP2 SUB SWAP1 LOG2 POP POP POP POP POP POP POP POP JUMP JUMPDEST PUSH2 0x2BD7 DUP3 DUP3 PUSH2 0x273E JUMP JUMPDEST PUSH1 0x0 DUP3 DUP2 MSTORE PUSH1 0x1 PUSH1 0x20 MSTORE PUSH1 0x40 SWAP1 KECCAK256 PUSH2 0xD76 SWAP1 DUP3 PUSH2 0x27C2 JUMP JUMPDEST PUSH2 0x2BF9 DUP3 DUP3 PUSH2 0x2D9A JUMP JUMPDEST PUSH1 0x0 DUP3 DUP2 MSTORE PUSH1 0x1 PUSH1 0x20 MSTORE PUSH1 0x40 SWAP1 KECCAK256 PUSH2 0xD76 SWAP1 DUP3 PUSH2 0x2DFF JUMP JUMPDEST PUSH2 0x2C1B DUP3 DUP3 PUSH2 0x1825 JUMP JUMPDEST PUSH2 0xE76 JUMPI PUSH2 0x2C33 DUP2 PUSH1 0x1 PUSH1 0x1 PUSH1 0xA0 SHL SUB AND PUSH1 0x14 PUSH2 0x27D7 JUMP JUMPDEST PUSH2 0x2C3E DUP4 PUSH1 0x20 PUSH2 0x27D7 JUMP JUMPDEST PUSH1 0x40 MLOAD PUSH1 0x20 ADD PUSH2 0x2C4F SWAP3 SWAP2 SWAP1 PUSH2 0x3CC3 JUMP JUMPDEST PUSH1 0x40 DUP1 MLOAD PUSH1 0x1F NOT DUP2 DUP5 SUB ADD DUP2 MSTORE SWAP1 DUP3 SWAP1 MSTORE PUSH3 0x461BCD PUSH1 0xE5 SHL DUP3 MSTORE PUSH2 0xC05 SWAP2 PUSH1 0x4 ADD PUSH2 0x3D38 JUMP JUMPDEST PUSH1 0x40 MLOAD PUSH1 0x1 PUSH1 0x1 PUSH1 0xA0 SHL SUB DUP1 DUP6 AND PUSH1 0x24 DUP4 ADD MSTORE DUP4 AND PUSH1 0x44 DUP3 ADD MSTORE PUSH1 0x64 DUP2 ADD DUP3 SWAP1 MSTORE PUSH2 0xA41 SWAP1 DUP6 SWAP1 PUSH4 0x23B872DD PUSH1 0xE0 SHL SWAP1 PUSH1 0x84 ADD JUMPDEST PUSH1 0x40 DUP1 MLOAD PUSH1 0x1F NOT DUP2 DUP5 SUB ADD DUP2 MSTORE SWAP2 SWAP1 MSTORE PUSH1 0x20 DUP2 ADD DUP1 MLOAD PUSH1 0x1 PUSH1 0x1 PUSH1 0xE0 SHL SUB AND PUSH1 0x1 PUSH1 0x1 PUSH1 0xE0 SHL SUB NOT SWAP1 SWAP4 AND SWAP3 SWAP1 SWAP3 OR SWAP1 SWAP2 MSTORE PUSH2 0x2E14 JUMP JUMPDEST PUSH1 0x0 PUSH2 0xB9C DUP4 DUP4 PUSH2 0x2EE6 JUMP JUMPDEST PUSH1 0x60 PUSH2 0xB9C DUP4 DUP4 PUSH1 0x40 MLOAD DUP1 PUSH1 0x60 ADD PUSH1 0x40 MSTORE DUP1 PUSH1 0x27 DUP2 MSTORE PUSH1 0x20 ADD PUSH2 0x3D9E PUSH1 0x27 SWAP2 CODECOPY PUSH2 0x2F10 JUMP JUMPDEST PUSH1 0x0 PUSH2 0x958 DUP3 SLOAD SWAP1 JUMP JUMPDEST PUSH1 0x0 DUP2 DUP2 MSTORE PUSH1 0x1 DUP4 ADD PUSH1 0x20 MSTORE PUSH1 0x40 DUP2 KECCAK256 SLOAD PUSH2 0x2D62 JUMPI POP DUP2 SLOAD PUSH1 0x1 DUP2 DUP2 ADD DUP5 SSTORE PUSH1 0x0 DUP5 DUP2 MSTORE PUSH1 0x20 DUP1 DUP3 KECCAK256 SWAP1 SWAP4 ADD DUP5 SWAP1 SSTORE DUP5 SLOAD DUP5 DUP3 MSTORE DUP3 DUP7 ADD SWAP1 SWAP4 MSTORE PUSH1 0x40 SWAP1 KECCAK256 SWAP2 SWAP1 SWAP2 SSTORE PUSH2 0x958 JUMP JUMPDEST POP PUSH1 0x0 PUSH2 0x958 JUMP JUMPDEST PUSH1 0x40 MLOAD PUSH1 0x1 PUSH1 0x1 PUSH1 0xA0 SHL SUB DUP4 AND PUSH1 0x24 DUP3 ADD MSTORE PUSH1 0x44 DUP2 ADD DUP3 SWAP1 MSTORE PUSH2 0xD76 SWAP1 DUP5 SWAP1 PUSH4 0xA9059CBB PUSH1 0xE0 SHL SWAP1 PUSH1 0x64 ADD PUSH2 0x2CA9 JUMP JUMPDEST PUSH2 0x2DA4 DUP3 DUP3 PUSH2 0x1825 JUMP JUMPDEST ISZERO PUSH2 0xE76 JUMPI PUSH1 0x0 DUP3 DUP2 MSTORE PUSH1 0x20 DUP2 DUP2 MSTORE PUSH1 0x40 DUP1 DUP4 KECCAK256 PUSH1 0x1 PUSH1 0x1 PUSH1 0xA0 SHL SUB DUP6 AND DUP1 DUP6 MSTORE SWAP3 MSTORE DUP1 DUP4 KECCAK256 DUP1 SLOAD PUSH1 0xFF NOT AND SWAP1 SSTORE MLOAD CALLER SWAP3 DUP6 SWAP2 PUSH32 0xF6391F5C32D9C69D2A47EA670B442974B53935D1EDC7FD64EB21E047A839171B SWAP2 SWAP1 LOG4 POP POP JUMP JUMPDEST PUSH1 0x0 PUSH2 0xB9C DUP4 PUSH1 0x1 PUSH1 0x1 PUSH1 0xA0 SHL SUB DUP5 AND PUSH2 0x2FED JUMP JUMPDEST PUSH1 0x0 PUSH2 0x2E69 DUP3 PUSH1 0x40 MLOAD DUP1 PUSH1 0x40 ADD PUSH1 0x40 MSTORE DUP1 PUSH1 0x20 DUP2 MSTORE PUSH1 0x20 ADD PUSH32 0x5361666545524332303A206C6F772D6C6576656C2063616C6C206661696C6564 DUP2 MSTORE POP DUP6 PUSH1 0x1 PUSH1 0x1 PUSH1 0xA0 SHL SUB AND PUSH2 0x30E0 SWAP1 SWAP3 SWAP2 SWAP1 PUSH4 0xFFFFFFFF AND JUMP JUMPDEST DUP1 MLOAD SWAP1 SWAP2 POP ISZERO PUSH2 0xD76 JUMPI DUP1 DUP1 PUSH1 0x20 ADD SWAP1 MLOAD DUP2 ADD SWAP1 PUSH2 0x2E87 SWAP2 SWAP1 PUSH2 0x3C50 JUMP JUMPDEST PUSH2 0xD76 JUMPI PUSH1 0x40 MLOAD PUSH3 0x461BCD PUSH1 0xE5 SHL DUP2 MSTORE PUSH1 0x20 PUSH1 0x4 DUP3 ADD MSTORE PUSH1 0x2A PUSH1 0x24 DUP3 ADD MSTORE PUSH32 0x5361666545524332303A204552433230206F7065726174696F6E20646964206E PUSH1 0x44 DUP3 ADD MSTORE PUSH10 0x1BDD081CDD58D8D95959 PUSH1 0xB2 SHL PUSH1 0x64 DUP3 ADD MSTORE PUSH1 0x84 ADD PUSH2 0xC05 JUMP JUMPDEST PUSH1 0x0 DUP3 PUSH1 0x0 ADD DUP3 DUP2 SLOAD DUP2 LT PUSH2 0x2EFD JUMPI PUSH2 0x2EFD PUSH2 0x3AD8 JUMP JUMPDEST SWAP1 PUSH1 0x0 MSTORE PUSH1 0x20 PUSH1 0x0 KECCAK256 ADD SLOAD SWAP1 POP SWAP3 SWAP2 POP POP JUMP JUMPDEST PUSH1 0x60 PUSH1 0x1 PUSH1 0x1 PUSH1 0xA0 SHL SUB DUP5 AND EXTCODESIZE PUSH2 0x2F78 JUMPI PUSH1 0x40 MLOAD PUSH3 0x461BCD PUSH1 0xE5 SHL DUP2 MSTORE PUSH1 0x20 PUSH1 0x4 DUP3 ADD MSTORE PUSH1 0x26 PUSH1 0x24 DUP3 ADD MSTORE PUSH32 0x416464726573733A2064656C65676174652063616C6C20746F206E6F6E2D636F PUSH1 0x44 DUP3 ADD MSTORE PUSH6 0x1B9D1C9858DD PUSH1 0xD2 SHL PUSH1 0x64 DUP3 ADD MSTORE PUSH1 0x84 ADD PUSH2 0xC05 JUMP JUMPDEST PUSH1 0x0 DUP1 DUP6 PUSH1 0x1 PUSH1 0x1 PUSH1 0xA0 SHL SUB AND DUP6 PUSH1 0x40 MLOAD PUSH2 0x2F93 SWAP2 SWAP1 PUSH2 0x3D4B JUMP JUMPDEST PUSH1 0x0 PUSH1 0x40 MLOAD DUP1 DUP4 SUB DUP2 DUP6 GAS DELEGATECALL SWAP2 POP POP RETURNDATASIZE DUP1 PUSH1 0x0 DUP2 EQ PUSH2 0x2FCE JUMPI PUSH1 0x40 MLOAD SWAP2 POP PUSH1 0x1F NOT PUSH1 0x3F RETURNDATASIZE ADD AND DUP3 ADD PUSH1 0x40 MSTORE RETURNDATASIZE DUP3 MSTORE RETURNDATASIZE PUSH1 0x0 PUSH1 0x20 DUP5 ADD RETURNDATACOPY PUSH2 0x2FD3 JUMP JUMPDEST PUSH1 0x60 SWAP2 POP JUMPDEST POP SWAP2 POP SWAP2 POP PUSH2 0x2FE3 DUP3 DUP3 DUP7 PUSH2 0x30EF JUMP JUMPDEST SWAP7 SWAP6 POP POP POP POP POP POP JUMP JUMPDEST PUSH1 0x0 DUP2 DUP2 MSTORE PUSH1 0x1 DUP4 ADD PUSH1 0x20 MSTORE PUSH1 0x40 DUP2 KECCAK256 SLOAD DUP1 ISZERO PUSH2 0x30D6 JUMPI PUSH1 0x0 PUSH2 0x3011 PUSH1 0x1 DUP4 PUSH2 0x3C86 JUMP JUMPDEST DUP6 SLOAD SWAP1 SWAP2 POP PUSH1 0x0 SWAP1 PUSH2 0x3025 SWAP1 PUSH1 0x1 SWAP1 PUSH2 0x3C86 JUMP JUMPDEST SWAP1 POP DUP2 DUP2 EQ PUSH2 0x308A JUMPI PUSH1 0x0 DUP7 PUSH1 0x0 ADD DUP3 DUP2 SLOAD DUP2 LT PUSH2 0x3045 JUMPI PUSH2 0x3045 PUSH2 0x3AD8 JUMP JUMPDEST SWAP1 PUSH1 0x0 MSTORE PUSH1 0x20 PUSH1 0x0 KECCAK256 ADD SLOAD SWAP1 POP DUP1 DUP8 PUSH1 0x0 ADD DUP5 DUP2 SLOAD DUP2 LT PUSH2 0x3068 JUMPI PUSH2 0x3068 PUSH2 0x3AD8 JUMP JUMPDEST PUSH1 0x0 SWAP2 DUP3 MSTORE PUSH1 0x20 DUP1 DUP4 KECCAK256 SWAP1 SWAP2 ADD SWAP3 SWAP1 SWAP3 SSTORE SWAP2 DUP3 MSTORE PUSH1 0x1 DUP9 ADD SWAP1 MSTORE PUSH1 0x40 SWAP1 KECCAK256 DUP4 SWAP1 SSTORE JUMPDEST DUP6 SLOAD DUP7 SWAP1 DUP1 PUSH2 0x309B JUMPI PUSH2 0x309B PUSH2 0x3D67 JUMP JUMPDEST PUSH1 0x1 SWAP1 SUB DUP2 DUP2 SWAP1 PUSH1 0x0 MSTORE PUSH1 0x20 PUSH1 0x0 KECCAK256 ADD PUSH1 0x0 SWAP1 SSTORE SWAP1 SSTORE DUP6 PUSH1 0x1 ADD PUSH1 0x0 DUP7 DUP2 MSTORE PUSH1 0x20 ADD SWAP1 DUP2 MSTORE PUSH1 0x20 ADD PUSH1 0x0 KECCAK256 PUSH1 0x0 SWAP1 SSTORE PUSH1 0x1 SWAP4 POP POP POP POP PUSH2 0x958 JUMP JUMPDEST PUSH1 0x0 SWAP2 POP POP PUSH2 0x958 JUMP JUMPDEST PUSH1 0x60 PUSH2 0x2736 DUP5 DUP5 PUSH1 0x0 DUP6 PUSH2 0x3128 JUMP JUMPDEST PUSH1 0x60 DUP4 ISZERO PUSH2 0x30FE JUMPI POP DUP2 PUSH2 0xB9C JUMP JUMPDEST DUP3 MLOAD ISZERO PUSH2 0x310E JUMPI DUP3 MLOAD DUP1 DUP5 PUSH1 0x20 ADD REVERT JUMPDEST DUP2 PUSH1 0x40 MLOAD PUSH3 0x461BCD PUSH1 0xE5 SHL DUP2 MSTORE PUSH1 0x4 ADD PUSH2 0xC05 SWAP2 SWAP1 PUSH2 0x3D38 JUMP JUMPDEST PUSH1 0x60 DUP3 SELFBALANCE LT ISZERO PUSH2 0x3189 JUMPI PUSH1 0x40 MLOAD PUSH3 0x461BCD PUSH1 0xE5 SHL DUP2 MSTORE PUSH1 0x20 PUSH1 0x4 DUP3 ADD MSTORE PUSH1 0x26 PUSH1 0x24 DUP3 ADD MSTORE PUSH32 0x416464726573733A20696E73756666696369656E742062616C616E636520666F PUSH1 0x44 DUP3 ADD MSTORE PUSH6 0x1C8818D85B1B PUSH1 0xD2 SHL PUSH1 0x64 DUP3 ADD MSTORE PUSH1 0x84 ADD PUSH2 0xC05 JUMP JUMPDEST PUSH1 0x1 PUSH1 0x1 PUSH1 0xA0 SHL SUB DUP6 AND EXTCODESIZE PUSH2 0x31E0 JUMPI PUSH1 0x40 MLOAD PUSH3 0x461BCD PUSH1 0xE5 SHL DUP2 MSTORE PUSH1 0x20 PUSH1 0x4 DUP3 ADD MSTORE PUSH1 0x1D PUSH1 0x24 DUP3 ADD MSTORE PUSH32 0x416464726573733A2063616C6C20746F206E6F6E2D636F6E7472616374000000 PUSH1 0x44 DUP3 ADD MSTORE PUSH1 0x64 ADD PUSH2 0xC05 JUMP JUMPDEST PUSH1 0x0 DUP1 DUP7 PUSH1 0x1 PUSH1 0x1 PUSH1 0xA0 SHL SUB AND DUP6 DUP8 PUSH1 0x40 MLOAD PUSH2 0x31FC SWAP2 SWAP1 PUSH2 0x3D4B JUMP JUMPDEST PUSH1 0x0 PUSH1 0x40 MLOAD DUP1 DUP4 SUB DUP2 DUP6 DUP8 GAS CALL SWAP3 POP POP POP RETURNDATASIZE DUP1 PUSH1 0x0 DUP2 EQ PUSH2 0x3239 JUMPI PUSH1 0x40 MLOAD SWAP2 POP PUSH1 0x1F NOT PUSH1 0x3F RETURNDATASIZE ADD AND DUP3 ADD PUSH1 0x40 MSTORE RETURNDATASIZE DUP3 MSTORE RETURNDATASIZE PUSH1 0x0 PUSH1 0x20 DUP5 ADD RETURNDATACOPY PUSH2 0x323E JUMP JUMPDEST PUSH1 0x60 SWAP2 POP JUMPDEST POP SWAP2 POP SWAP2 POP PUSH2 0x324E DUP3 DUP3 DUP7 PUSH2 0x30EF JUMP JUMPDEST SWAP8 SWAP7 POP POP POP POP POP POP POP JUMP JUMPDEST PUSH1 0x40 MLOAD DUP1 PUSH1 0xA0 ADD PUSH1 0x40 MSTORE DUP1 PUSH1 0x0 PUSH1 0xFF AND DUP2 MSTORE PUSH1 0x20 ADD PUSH1 0x0 PUSH1 0x1 PUSH1 0x1 PUSH1 0xA0 SHL SUB AND DUP2 MSTORE PUSH1 0x20 ADD PUSH1 0x60 DUP2 MSTORE PUSH1 0x20 ADD PUSH1 0x60 DUP2 MSTORE PUSH1 0x20 ADD PUSH2 0x3311 PUSH1 0x40 DUP1 MLOAD PUSH2 0x100 DUP1 DUP3 ADD DUP4 MSTORE PUSH1 0x0 DUP1 DUP4 MSTORE PUSH1 0x20 DUP1 DUP5 ADD DUP3 SWAP1 MSTORE DUP4 DUP6 ADD DUP3 SWAP1 MSTORE PUSH1 0x60 DUP1 DUP6 ADD DUP4 SWAP1 MSTORE PUSH1 0x80 DUP1 DUP7 ADD DUP5 SWAP1 MSTORE PUSH1 0xA0 DUP1 DUP8 ADD DUP6 SWAP1 MSTORE PUSH1 0xC0 DUP1 DUP9 ADD DUP7 SWAP1 MSTORE DUP9 MLOAD PUSH2 0x120 DUP2 ADD DUP11 MSTORE DUP7 DUP2 MSTORE SWAP5 DUP6 ADD DUP7 SWAP1 MSTORE SWAP8 DUP5 ADD DUP6 SWAP1 MSTORE SWAP2 DUP4 ADD DUP5 SWAP1 MSTORE DUP3 ADD DUP4 SWAP1 MSTORE DUP2 ADD DUP3 SWAP1 MSTORE SWAP4 DUP5 ADD DUP2 SWAP1 MSTORE PUSH1 0xE0 DUP5 DUP2 ADD DUP3 SWAP1 MSTORE SWAP2 DUP5 ADD MSTORE SWAP1 SWAP2 SWAP1 DUP3 ADD MSTORE SWAP1 JUMP JUMPDEST SWAP1 MSTORE SWAP1 JUMP JUMPDEST PUSH1 0x0 PUSH1 0x20 DUP3 DUP5 SUB SLT ISZERO PUSH2 0x3328 JUMPI PUSH1 0x0 DUP1 REVERT JUMPDEST DUP2 CALLDATALOAD PUSH1 0x1 PUSH1 0x1 PUSH1 0xE0 SHL SUB NOT DUP2 AND DUP2 EQ PUSH2 0xB9C JUMPI PUSH1 0x0 DUP1 REVERT JUMPDEST PUSH1 0x1 PUSH1 0x1 PUSH1 0xA0 SHL SUB DUP2 AND DUP2 EQ PUSH2 0x2A09 JUMPI PUSH1 0x0 DUP1 REVERT JUMPDEST PUSH1 0x0 PUSH1 0x20 DUP3 DUP5 SUB SLT ISZERO PUSH2 0x3367 JUMPI PUSH1 0x0 DUP1 REVERT JUMPDEST DUP2 CALLDATALOAD PUSH2 0xB9C DUP2 PUSH2 0x3340 JUMP JUMPDEST PUSH1 0x0 DUP1 PUSH1 0x0 DUP1 PUSH1 0x80 DUP6 DUP8 SUB SLT ISZERO PUSH2 0x3388 JUMPI PUSH1 0x0 DUP1 REVERT JUMPDEST DUP5 CALLDATALOAD PUSH2 0x3393 DUP2 PUSH2 0x3340 JUMP JUMPDEST SWAP4 POP PUSH1 0x20 DUP6 ADD CALLDATALOAD PUSH2 0x33A3 DUP2 PUSH2 0x3340 JUMP JUMPDEST SWAP4 SWAP7 SWAP4 SWAP6 POP POP POP POP PUSH1 0x40 DUP3 ADD CALLDATALOAD SWAP2 PUSH1 0x60 ADD CALLDATALOAD SWAP1 JUMP JUMPDEST PUSH1 0x0 PUSH1 0x20 DUP3 DUP5 SUB SLT ISZERO PUSH2 0x33CA JUMPI PUSH1 0x0 DUP1 REVERT JUMPDEST POP CALLDATALOAD SWAP2 SWAP1 POP JUMP JUMPDEST PUSH1 0x0 DUP1 PUSH1 0x40 DUP4 DUP6 SUB SLT ISZERO PUSH2 0x33E4 JUMPI PUSH1 0x0 DUP1 REVERT JUMPDEST DUP3 CALLDATALOAD PUSH2 0x33EF DUP2 PUSH2 0x3340 JUMP JUMPDEST SWAP5 PUSH1 0x20 SWAP4 SWAP1 SWAP4 ADD CALLDATALOAD SWAP4 POP POP POP JUMP JUMPDEST DUP1 CALLDATALOAD PUSH2 0xFFFF DUP2 AND DUP2 EQ PUSH2 0x25E5 JUMPI PUSH1 0x0 DUP1 REVERT JUMPDEST PUSH1 0x0 DUP1 PUSH1 0x0 DUP1 PUSH1 0x0 DUP1 PUSH1 0xC0 DUP8 DUP10 SUB SLT ISZERO PUSH2 0x3428 JUMPI PUSH1 0x0 DUP1 REVERT JUMPDEST DUP7 CALLDATALOAD PUSH2 0x3433 DUP2 PUSH2 0x3340 JUMP JUMPDEST SWAP6 POP PUSH2 0x3441 PUSH1 0x20 DUP9 ADD PUSH2 0x33FD JUMP JUMPDEST SWAP5 POP PUSH2 0x344F PUSH1 0x40 DUP9 ADD PUSH2 0x33FD JUMP JUMPDEST SWAP4 POP PUSH2 0x345D PUSH1 0x60 DUP9 ADD PUSH2 0x33FD JUMP JUMPDEST SWAP3 POP PUSH2 0x346B PUSH1 0x80 DUP9 ADD PUSH2 0x33FD JUMP JUMPDEST SWAP2 POP PUSH2 0x3479 PUSH1 0xA0 DUP9 ADD PUSH2 0x33FD JUMP JUMPDEST SWAP1 POP SWAP3 SWAP6 POP SWAP3 SWAP6 POP SWAP3 SWAP6 JUMP JUMPDEST PUSH1 0x0 DUP1 PUSH1 0x40 DUP4 DUP6 SUB SLT ISZERO PUSH2 0x3498 JUMPI PUSH1 0x0 DUP1 REVERT JUMPDEST DUP3 CALLDATALOAD SWAP2 POP PUSH1 0x20 DUP4 ADD CALLDATALOAD PUSH2 0x34AA DUP2 PUSH2 0x3340 JUMP JUMPDEST DUP1 SWAP2 POP POP SWAP3 POP SWAP3 SWAP1 POP JUMP JUMPDEST PUSH1 0x0 DUP1 PUSH1 0x20 DUP4 DUP6 SUB SLT ISZERO PUSH2 0x34C8 JUMPI PUSH1 0x0 DUP1 REVERT JUMPDEST DUP3 CALLDATALOAD PUSH1 0x1 PUSH1 0x1 PUSH1 0x40 SHL SUB DUP1 DUP3 GT ISZERO PUSH2 0x34DF JUMPI PUSH1 0x0 DUP1 REVERT JUMPDEST DUP2 DUP6 ADD SWAP2 POP DUP6 PUSH1 0x1F DUP4 ADD SLT PUSH2 0x34F3 JUMPI PUSH1 0x0 DUP1 REVERT JUMPDEST DUP2 CALLDATALOAD DUP2 DUP2 GT ISZERO PUSH2 0x3502 JUMPI PUSH1 0x0 DUP1 REVERT JUMPDEST DUP7 PUSH1 0x20 DUP3 DUP6 ADD ADD GT ISZERO PUSH2 0x3514 JUMPI PUSH1 0x0 DUP1 REVERT JUMPDEST PUSH1 0x20 SWAP3 SWAP1 SWAP3 ADD SWAP7 SWAP2 SWAP6 POP SWAP1 SWAP4 POP POP POP POP JUMP JUMPDEST PUSH1 0x0 DUP1 PUSH1 0x40 DUP4 DUP6 SUB SLT ISZERO PUSH2 0x3539 JUMPI PUSH1 0x0 DUP1 REVERT JUMPDEST DUP3 CALLDATALOAD PUSH2 0x3544 DUP2 PUSH2 0x3340 JUMP JUMPDEST SWAP2 POP PUSH2 0x3552 PUSH1 0x20 DUP5 ADD PUSH2 0x33FD JUMP JUMPDEST SWAP1 POP SWAP3 POP SWAP3 SWAP1 POP JUMP JUMPDEST PUSH1 0x0 DUP1 PUSH1 0x40 DUP4 DUP6 SUB SLT ISZERO PUSH2 0x356E JUMPI PUSH1 0x0 DUP1 REVERT JUMPDEST DUP3 CALLDATALOAD PUSH2 0x3579 DUP2 PUSH2 0x3340 JUMP JUMPDEST SWAP2 POP PUSH1 0x20 DUP4 ADD CALLDATALOAD PUSH1 0x1 PUSH1 0x1 PUSH1 0x40 SHL SUB DUP2 AND DUP2 EQ PUSH2 0x34AA JUMPI PUSH1 0x0 DUP1 REVERT JUMPDEST PUSH1 0x0 JUMPDEST DUP4 DUP2 LT ISZERO PUSH2 0x35B0 JUMPI DUP2 DUP2 ADD MLOAD DUP4 DUP3 ADD MSTORE PUSH1 0x20 ADD PUSH2 0x3598 JUMP JUMPDEST POP POP PUSH1 0x0 SWAP2 ADD MSTORE JUMP JUMPDEST PUSH1 0x0 DUP2 MLOAD DUP1 DUP5 MSTORE PUSH2 0x35D1 DUP2 PUSH1 0x20 DUP7 ADD PUSH1 0x20 DUP7 ADD PUSH2 0x3595 JUMP JUMPDEST PUSH1 0x1F ADD PUSH1 0x1F NOT AND SWAP3 SWAP1 SWAP3 ADD PUSH1 0x20 ADD SWAP3 SWAP2 POP POP JUMP JUMPDEST DUP3 ISZERO ISZERO DUP2 MSTORE PUSH1 0x40 PUSH1 0x20 DUP3 ADD MSTORE PUSH1 0x0 PUSH2 0x2736 PUSH1 0x40 DUP4 ADD DUP5 PUSH2 0x35B9 JUMP JUMPDEST PUSH1 0x40 DUP1 DUP3 MSTORE DUP4 MLOAD SWAP1 DUP3 ADD DUP2 SWAP1 MSTORE PUSH1 0x0 SWAP1 PUSH1 0x20 SWAP1 PUSH1 0x60 DUP5 ADD SWAP1 DUP3 DUP8 ADD DUP5 JUMPDEST DUP3 DUP2 LT ISZERO PUSH2 0x3642 JUMPI DUP2 MLOAD PUSH1 0x1 PUSH1 0x1 PUSH1 0xA0 SHL SUB AND DUP5 MSTORE SWAP3 DUP5 ADD SWAP3 SWAP1 DUP5 ADD SWAP1 PUSH1 0x1 ADD PUSH2 0x361D JUMP JUMPDEST POP POP POP DUP4 DUP2 SUB DUP3 DUP6 ADD MSTORE DUP5 MLOAD DUP1 DUP3 MSTORE DUP6 DUP4 ADD SWAP2 DUP4 ADD SWAP1 PUSH1 0x0 JUMPDEST DUP2 DUP2 LT ISZERO PUSH2 0x3677 JUMPI DUP4 MLOAD DUP4 MSTORE SWAP3 DUP5 ADD SWAP3 SWAP2 DUP5 ADD SWAP2 PUSH1 0x1 ADD PUSH2 0x365B JUMP JUMPDEST POP SWAP1 SWAP8 SWAP7 POP POP POP POP POP POP POP JUMP JUMPDEST DUP1 ISZERO ISZERO DUP2 EQ PUSH2 0x2A09 JUMPI PUSH1 0x0 DUP1 REVERT JUMPDEST PUSH1 0x0 DUP1 PUSH1 0x40 DUP4 DUP6 SUB SLT ISZERO PUSH2 0x36A5 JUMPI PUSH1 0x0 DUP1 REVERT JUMPDEST DUP3 CALLDATALOAD PUSH2 0x36B0 DUP2 PUSH2 0x3340 JUMP JUMPDEST SWAP2 POP PUSH1 0x20 DUP4 ADD CALLDATALOAD PUSH2 0x34AA DUP2 PUSH2 0x3684 JUMP JUMPDEST PUSH1 0x0 DUP1 PUSH1 0x40 DUP4 DUP6 SUB SLT ISZERO PUSH2 0x36D3 JUMPI PUSH1 0x0 DUP1 REVERT JUMPDEST POP POP DUP1 CALLDATALOAD SWAP3 PUSH1 0x20 SWAP1 SWAP2 ADD CALLDATALOAD SWAP2 POP JUMP JUMPDEST PUSH2 0xFFFF DUP1 DUP3 MLOAD AND DUP4 MSTORE DUP1 PUSH1 0x20 DUP4 ADD MLOAD AND PUSH1 0x20 DUP5 ADD MSTORE DUP1 PUSH1 0x40 DUP4 ADD MLOAD AND PUSH1 0x40 DUP5 ADD MSTORE POP PUSH1 0x60 DUP2 ADD MLOAD PUSH2 0x3719 PUSH1 0x60 DUP5 ADD DUP3 PUSH2 0xFFFF AND SWAP1 MSTORE JUMP JUMPDEST POP PUSH1 0x80 DUP2 ADD MLOAD PUSH2 0x372F PUSH1 0x80 DUP5 ADD DUP3 PUSH2 0xFFFF AND SWAP1 MSTORE JUMP JUMPDEST POP PUSH1 0xA0 DUP2 DUP2 ADD MLOAD SWAP1 DUP4 ADD MSTORE PUSH1 0xC0 DUP1 DUP3 ADD MLOAD SWAP1 DUP4 ADD MSTORE PUSH1 0xE0 DUP1 DUP3 ADD MLOAD SWAP1 DUP4 ADD MSTORE PUSH2 0x100 SWAP1 DUP2 ADD MLOAD SWAP2 ADD MSTORE JUMP JUMPDEST PUSH1 0x0 PUSH1 0x20 DUP1 DUP4 ADD DUP2 DUP5 MSTORE DUP1 DUP6 MLOAD DUP1 DUP4 MSTORE PUSH1 0x40 SWAP3 POP DUP3 DUP7 ADD SWAP2 POP DUP3 DUP2 PUSH1 0x5 SHL DUP8 ADD ADD DUP5 DUP9 ADD PUSH1 0x0 JUMPDEST DUP4 DUP2 LT ISZERO PUSH2 0x387C JUMPI DUP9 DUP4 SUB PUSH1 0x3F NOT ADD DUP6 MSTORE DUP2 MLOAD DUP1 MLOAD PUSH1 0xFF AND DUP5 MSTORE DUP8 DUP2 ADD MLOAD PUSH1 0x1 PUSH1 0x1 PUSH1 0xA0 SHL SUB AND DUP9 DUP6 ADD MSTORE DUP7 DUP2 ADD MLOAD PUSH2 0x280 DUP9 DUP7 ADD DUP2 SWAP1 MSTORE SWAP1 PUSH2 0x37C6 DUP3 DUP8 ADD DUP3 PUSH2 0x35B9 JUMP JUMPDEST SWAP2 POP POP PUSH1 0x60 DUP1 DUP4 ADD MLOAD DUP7 DUP4 SUB DUP3 DUP9 ADD MSTORE PUSH2 0x37E0 DUP4 DUP3 PUSH2 0x35B9 JUMP JUMPDEST SWAP3 POP POP PUSH1 0x80 DUP1 DUP5 ADD MLOAD SWAP4 POP DUP4 MLOAD ISZERO ISZERO DUP2 DUP9 ADD MSTORE DUP11 DUP5 ADD MLOAD PUSH1 0xA0 DUP2 ISZERO ISZERO DUP2 DUP11 ADD MSTORE DUP12 DUP7 ADD MLOAD SWAP2 POP PUSH1 0xC0 PUSH2 0xFFFF DUP4 AND DUP2 DUP12 ADD MSTORE DUP5 DUP8 ADD MLOAD SWAP5 POP PUSH1 0xE0 SWAP3 POP PUSH2 0x382F DUP4 DUP12 ADD DUP7 PUSH1 0x1 PUSH1 0x1 PUSH1 0x40 SHL SUB AND SWAP1 MSTORE JUMP JUMPDEST SWAP3 DUP7 ADD MLOAD PUSH1 0x1 PUSH1 0x1 PUSH1 0xA0 SHL SUB AND PUSH2 0x100 DUP11 ADD MSTORE DUP6 ADD MLOAD PUSH2 0x120 DUP10 ADD MSTORE SWAP1 DUP5 ADD MLOAD PUSH2 0x140 DUP9 ADD MSTORE SWAP1 SWAP3 ADD MLOAD SWAP2 POP PUSH2 0x3869 PUSH2 0x160 DUP7 ADD DUP4 PUSH2 0x36E2 JUMP JUMPDEST SWAP6 DUP9 ADD SWAP6 SWAP4 POP POP SWAP1 DUP7 ADD SWAP1 PUSH1 0x1 ADD PUSH2 0x3781 JUMP JUMPDEST POP SWAP1 SWAP9 SWAP8 POP POP POP POP POP POP POP POP JUMP JUMPDEST PUSH1 0x0 DUP1 PUSH1 0x20 DUP4 DUP6 SUB SLT ISZERO PUSH2 0x389D JUMPI PUSH1 0x0 DUP1 REVERT JUMPDEST DUP3 CALLDATALOAD PUSH1 0x1 PUSH1 0x1 PUSH1 0x40 SHL SUB DUP1 DUP3 GT ISZERO PUSH2 0x38B4 JUMPI PUSH1 0x0 DUP1 REVERT JUMPDEST DUP2 DUP6 ADD SWAP2 POP DUP6 PUSH1 0x1F DUP4 ADD SLT PUSH2 0x38C8 JUMPI PUSH1 0x0 DUP1 REVERT JUMPDEST DUP2 CALLDATALOAD DUP2 DUP2 GT ISZERO PUSH2 0x38D7 JUMPI PUSH1 0x0 DUP1 REVERT JUMPDEST DUP7 PUSH1 0x20 DUP3 PUSH1 0x5 SHL DUP6 ADD ADD GT ISZERO PUSH2 0x3514 JUMPI PUSH1 0x0 DUP1 REVERT JUMPDEST PUSH1 0x0 PUSH1 0x20 DUP1 DUP4 ADD DUP2 DUP5 MSTORE DUP1 DUP6 MLOAD DUP1 DUP4 MSTORE PUSH1 0x40 DUP7 ADD SWAP2 POP PUSH1 0x40 DUP2 PUSH1 0x5 SHL DUP8 ADD ADD SWAP3 POP DUP4 DUP8 ADD PUSH1 0x0 JUMPDEST DUP3 DUP2 LT ISZERO PUSH2 0x3941 JUMPI PUSH1 0x3F NOT DUP9 DUP7 SUB ADD DUP5 MSTORE PUSH2 0x392F DUP6 DUP4 MLOAD PUSH2 0x35B9 JUMP JUMPDEST SWAP5 POP SWAP3 DUP6 ADD SWAP3 SWAP1 DUP6 ADD SWAP1 PUSH1 0x1 ADD PUSH2 0x3913 JUMP JUMPDEST POP SWAP3 SWAP8 SWAP7 POP POP POP POP POP POP POP JUMP JUMPDEST PUSH1 0x0 DUP1 PUSH1 0x40 DUP4 DUP6 SUB SLT ISZERO PUSH2 0x3961 JUMPI PUSH1 0x0 DUP1 REVERT JUMPDEST DUP3 CALLDATALOAD PUSH2 0x396C DUP2 PUSH2 0x3340 JUMP JUMPDEST SWAP2 POP PUSH1 0x20 DUP4 ADD CALLDATALOAD PUSH2 0x34AA DUP2 PUSH2 0x3340 JUMP JUMPDEST DUP9 ISZERO ISZERO DUP2 MSTORE DUP8 ISZERO ISZERO PUSH1 0x20 DUP3 ADD MSTORE PUSH2 0xFFFF DUP8 AND PUSH1 0x40 DUP3 ADD MSTORE PUSH1 0x1 PUSH1 0x1 PUSH1 0x40 SHL SUB DUP7 AND PUSH1 0x60 DUP3 ADD MSTORE PUSH1 0x1 PUSH1 0x1 PUSH1 0xA0 SHL SUB DUP6 AND PUSH1 0x80 DUP3 ADD MSTORE PUSH1 0xA0 DUP2 ADD DUP5 SWAP1 MSTORE PUSH1 0xC0 DUP2 ADD DUP4 SWAP1 MSTORE PUSH2 0x200 DUP2 ADD PUSH2 0x39D1 PUSH1 0xE0 DUP4 ADD DUP5 PUSH2 0x36E2 JUMP JUMPDEST SWAP10 SWAP9 POP POP POP POP POP POP POP POP POP JUMP JUMPDEST PUSH4 0x4E487B71 PUSH1 0xE0 SHL PUSH1 0x0 MSTORE PUSH1 0x11 PUSH1 0x4 MSTORE PUSH1 0x24 PUSH1 0x0 REVERT JUMPDEST PUSH1 0x0 DUP2 PUSH1 0x0 NOT DIV DUP4 GT DUP3 ISZERO ISZERO AND ISZERO PUSH2 0x3A0E JUMPI PUSH2 0x3A0E PUSH2 0x39DE JUMP JUMPDEST POP MUL SWAP1 JUMP JUMPDEST PUSH1 0x0 DUP3 PUSH2 0x3A30 JUMPI PUSH4 0x4E487B71 PUSH1 0xE0 SHL PUSH1 0x0 MSTORE PUSH1 0x12 PUSH1 0x4 MSTORE PUSH1 0x24 PUSH1 0x0 REVERT JUMPDEST POP DIV SWAP1 JUMP JUMPDEST PUSH2 0xFFFF DUP2 DUP2 AND DUP4 DUP3 AND ADD SWAP1 DUP1 DUP3 GT ISZERO PUSH2 0x1D0F JUMPI PUSH2 0x1D0F PUSH2 0x39DE JUMP JUMPDEST PUSH1 0x0 DUP1 PUSH1 0x40 DUP4 DUP6 SUB SLT ISZERO PUSH2 0x3A63 JUMPI PUSH1 0x0 DUP1 REVERT JUMPDEST DUP3 CALLDATALOAD PUSH1 0x1 DUP2 LT PUSH2 0x396C JUMPI PUSH1 0x0 DUP1 REVERT JUMPDEST PUSH4 0x4E487B71 PUSH1 0xE0 SHL PUSH1 0x0 MSTORE PUSH1 0x21 PUSH1 0x4 MSTORE PUSH1 0x24 PUSH1 0x0 REVERT JUMPDEST PUSH1 0x40 DUP2 ADD PUSH1 0x1 DUP5 LT PUSH2 0x3AAA JUMPI PUSH4 0x4E487B71 PUSH1 0xE0 SHL PUSH1 0x0 MSTORE PUSH1 0x21 PUSH1 0x4 MSTORE PUSH1 0x24 PUSH1 0x0 REVERT JUMPDEST SWAP3 DUP2 MSTORE PUSH1 0x1 PUSH1 0x1 PUSH1 0xA0 SHL SUB SWAP2 SWAP1 SWAP2 AND PUSH1 0x20 SWAP1 SWAP2 ADD MSTORE SWAP1 JUMP JUMPDEST PUSH4 0x4E487B71 PUSH1 0xE0 SHL PUSH1 0x0 MSTORE PUSH1 0x41 PUSH1 0x4 MSTORE PUSH1 0x24 PUSH1 0x0 REVERT JUMPDEST PUSH4 0x4E487B71 PUSH1 0xE0 SHL PUSH1 0x0 MSTORE PUSH1 0x32 PUSH1 0x4 MSTORE PUSH1 0x24 PUSH1 0x0 REVERT JUMPDEST PUSH1 0x0 PUSH1 0xFF DUP3 AND PUSH1 0xFF DUP2 SUB PUSH2 0x3B04 JUMPI PUSH2 0x3B04 PUSH2 0x39DE JUMP JUMPDEST PUSH1 0x1 ADD SWAP3 SWAP2 POP POP JUMP JUMPDEST PUSH1 0x0 PUSH1 0x20 DUP3 DUP5 SUB SLT ISZERO PUSH2 0x3B1F JUMPI PUSH1 0x0 DUP1 REVERT JUMPDEST DUP2 MLOAD PUSH1 0xFF DUP2 AND DUP2 EQ PUSH2 0xB9C JUMPI PUSH1 0x0 DUP1 REVERT JUMPDEST PUSH1 0x0 PUSH1 0x20 DUP3 DUP5 SUB SLT ISZERO PUSH2 0x3B42 JUMPI PUSH1 0x0 DUP1 REVERT JUMPDEST DUP2 MLOAD PUSH1 0x1 PUSH1 0x1 PUSH1 0x40 SHL SUB DUP1 DUP3 GT ISZERO PUSH2 0x3B59 JUMPI PUSH1 0x0 DUP1 REVERT JUMPDEST DUP2 DUP5 ADD SWAP2 POP DUP5 PUSH1 0x1F DUP4 ADD SLT PUSH2 0x3B6D JUMPI PUSH1 0x0 DUP1 REVERT JUMPDEST DUP2 MLOAD DUP2 DUP2 GT ISZERO PUSH2 0x3B7F JUMPI PUSH2 0x3B7F PUSH2 0x3AC2 JUMP JUMPDEST PUSH1 0x40 MLOAD PUSH1 0x1F DUP3 ADD PUSH1 0x1F NOT SWAP1 DUP2 AND PUSH1 0x3F ADD AND DUP2 ADD SWAP1 DUP4 DUP3 GT DUP2 DUP4 LT OR ISZERO PUSH2 0x3BA7 JUMPI PUSH2 0x3BA7 PUSH2 0x3AC2 JUMP JUMPDEST DUP2 PUSH1 0x40 MSTORE DUP3 DUP2 MSTORE DUP8 PUSH1 0x20 DUP5 DUP8 ADD ADD GT ISZERO PUSH2 0x3BC0 JUMPI PUSH1 0x0 DUP1 REVERT JUMPDEST PUSH2 0x324E DUP4 PUSH1 0x20 DUP4 ADD PUSH1 0x20 DUP9 ADD PUSH2 0x3595 JUMP JUMPDEST PUSH1 0x0 DUP1 DUP4 CALLDATALOAD PUSH1 0x1E NOT DUP5 CALLDATASIZE SUB ADD DUP2 SLT PUSH2 0x3BE8 JUMPI PUSH1 0x0 DUP1 REVERT JUMPDEST DUP4 ADD DUP1 CALLDATALOAD SWAP2 POP PUSH1 0x1 PUSH1 0x1 PUSH1 0x40 SHL SUB DUP3 GT ISZERO PUSH2 0x3C02 JUMPI PUSH1 0x0 DUP1 REVERT JUMPDEST PUSH1 0x20 ADD SWAP2 POP CALLDATASIZE DUP2 SWAP1 SUB DUP3 SGT ISZERO PUSH2 0x3C17 JUMPI PUSH1 0x0 DUP1 REVERT JUMPDEST SWAP3 POP SWAP3 SWAP1 POP JUMP JUMPDEST PUSH1 0x0 PUSH1 0x1 DUP3 ADD PUSH2 0x3C30 JUMPI PUSH2 0x3C30 PUSH2 0x39DE JUMP JUMPDEST POP PUSH1 0x1 ADD SWAP1 JUMP JUMPDEST PUSH1 0xFF DUP2 DUP2 AND DUP4 DUP3 AND ADD SWAP1 DUP2 GT ISZERO PUSH2 0x958 JUMPI PUSH2 0x958 PUSH2 0x39DE JUMP JUMPDEST PUSH1 0x0 PUSH1 0x20 DUP3 DUP5 SUB SLT ISZERO PUSH2 0x3C62 JUMPI PUSH1 0x0 DUP1 REVERT JUMPDEST DUP2 MLOAD PUSH2 0xB9C DUP2 PUSH2 0x3684 JUMP JUMPDEST PUSH1 0x0 PUSH1 0x20 DUP3 DUP5 SUB SLT ISZERO PUSH2 0x3C7F JUMPI PUSH1 0x0 DUP1 REVERT JUMPDEST POP MLOAD SWAP2 SWAP1 POP JUMP JUMPDEST DUP2 DUP2 SUB DUP2 DUP2 GT ISZERO PUSH2 0x958 JUMPI PUSH2 0x958 PUSH2 0x39DE JUMP JUMPDEST DUP1 DUP3 ADD DUP1 DUP3 GT ISZERO PUSH2 0x958 JUMPI PUSH2 0x958 PUSH2 0x39DE JUMP JUMPDEST PUSH1 0x0 DUP2 PUSH2 0x3CBB JUMPI PUSH2 0x3CBB PUSH2 0x39DE JUMP JUMPDEST POP PUSH1 0x0 NOT ADD SWAP1 JUMP JUMPDEST PUSH32 0x416363657373436F6E74726F6C3A206163636F756E7420000000000000000000 DUP2 MSTORE PUSH1 0x0 DUP4 MLOAD PUSH2 0x3CFB DUP2 PUSH1 0x17 DUP6 ADD PUSH1 0x20 DUP9 ADD PUSH2 0x3595 JUMP JUMPDEST PUSH17 0x1034B99036B4B9B9B4B733903937B6329 PUSH1 0x7D SHL PUSH1 0x17 SWAP2 DUP5 ADD SWAP2 DUP3 ADD MSTORE DUP4 MLOAD PUSH2 0x3D2C DUP2 PUSH1 0x28 DUP5 ADD PUSH1 0x20 DUP9 ADD PUSH2 0x3595 JUMP JUMPDEST ADD PUSH1 0x28 ADD SWAP5 SWAP4 POP POP POP POP JUMP JUMPDEST PUSH1 0x20 DUP2 MSTORE PUSH1 0x0 PUSH2 0xB9C PUSH1 0x20 DUP4 ADD DUP5 PUSH2 0x35B9 JUMP JUMPDEST PUSH1 0x0 DUP3 MLOAD PUSH2 0x3D5D DUP2 DUP5 PUSH1 0x20 DUP8 ADD PUSH2 0x3595 JUMP JUMPDEST SWAP2 SWAP1 SWAP2 ADD SWAP3 SWAP2 POP POP JUMP JUMPDEST PUSH4 0x4E487B71 PUSH1 0xE0 SHL PUSH1 0x0 MSTORE PUSH1 0x31 PUSH1 0x4 MSTORE PUSH1 0x24 PUSH1 0x0 REVERT INVALID PUSH11 0x64BAF327D646D1BCA72653 0xE2 LOG0 PUSH22 0xD15FD6AC6D8CBD7F6EE03FC55875E0FA884164647265 PUSH20 0x733A206C6F772D6C6576656C2064656C65676174 PUSH6 0x2063616C6C20 PUSH7 0x61696C6564A264 PUSH10 0x706673582212203B57CB 0xCD LOG0 0xE5 PUSH23 0x3310D825AE30509C502E1E16161C02865B9F6B520FFDE8 0xCB EXTCODECOPY PUSH5 0x736F6C6343 STOP ADDMOD LT STOP CALLER "},"methodIdentifiers":{"DEFAULT_ADMIN_ROLE()":"a217fddf","GAME_ROLE()":"ab400706","SWIRLMASTER_ROLE()":"f6ae2204","accountFees(address,uint256)":"ca7a8769","addToken(address)":"d48bfca7","cashIn(address,uint256)":"3138809d","checkUpkeep(bytes)":"6e04ff0d","deposit(address,uint256)":"47e7ef24","getBalance(address)":"f8b2cb4f","getDividends()":"ed442e14","getMaxBetAmount(address,uint256)":"278b39de","getMinBetAmount(address)":"f6b2a2f1","getRoleAdmin(bytes32)":"248a9ca3","getRoleMember(bytes32,uint256)":"9010d07c","getRoleMemberCount(bytes32)":"ca15c873","getTokenOwner(address)":"dc17c9ca","getTokens()":"aa6ca808","getVRFSubId(address)":"279e3415","grantRole(bytes32,address)":"2f2ff15d","harvestDividends()":"802ad8fb","hasRole(bytes32,address)":"91d14854","isAllowedToken(address)":"cbe230c3","multicall(bytes[])":"ac9650d8","payout(address,address,uint256,uint256)":"1f615023","performUpkeep(bytes)":"4585e33b","renounceRole(bytes32,address)":"36568abe","revokeRole(bytes32,address)":"d547741f","setAllowedToken(address,bool)":"8aaa2284","setBalanceRisk(address,uint16)":"56f0406d","setHouseEdgeSplit(address,uint16,uint16,uint16,uint16,uint16)":"2ee99d3e","setMinPartnerTransferAmount(address,uint256)":"659bdfc6","setPausedToken(address,bool)":"c437afde","setTeamWallet(address)":"1525ff7d","setTokenMinBetAmount(address,uint256)":"4297dcbe","setTokenPartner(address,address)":"bc3ec383","setTokenVRFSubId(address,uint64)":"6dfa8e52","supportsInterface(bytes4)":"01ffc9a7","teamWallet()":"59927044","tokens(address)":"e4860339","treasury()":"61d027b3","withdraw(address,uint256)":"f3fef3a3","withdrawHouseEdgeAmount(address)":"0ae30cb0","withdrawPartnerAmount(address)":"38c64d2f"}}}}}