{
  "_format": "hh-sol-artifact-1",
  "contractName": "Bank",
  "sourceName": "contracts/bank/Bank.sol",
  "abi": [
    {
      "inputs": [
        {
          "internalType": "address",
          "name": "treasuryAddress",
          "type": "address"
        },
        {
          "internalType": "address",
          "name": "teamWalletAddress",
          "type": "address"
        }
      ],
      "stateMutability": "nonpayable",
      "type": "constructor"
    },
    {
      "inputs": [],
      "name": "AccessDenied",
      "type": "error"
    },
    {
      "inputs": [],
      "name": "TokenExists",
      "type": "error"
    },
    {
      "inputs": [],
      "name": "TokenHasPendingBets",
      "type": "error"
    },
    {
      "inputs": [],
      "name": "TokenNotPaused",
      "type": "error"
    },
    {
      "inputs": [],
      "name": "WrongAddress",
      "type": "error"
    },
    {
      "inputs": [
        {
          "internalType": "uint16",
          "name": "splitSum",
          "type": "uint16"
        }
      ],
      "name": "WrongHouseEdgeSplit",
      "type": "error"
    },
    {
      "anonymous": false,
      "inputs": [
        {
          "indexed": true,
          "internalType": "address",
          "name": "token",
          "type": "address"
        },
        {
          "indexed": false,
          "internalType": "uint256",
          "name": "newBalance",
          "type": "uint256"
        },
        {
          "indexed": false,
          "internalType": "uint256",
          "name": "fees",
          "type": "uint256"
        }
      ],
      "name": "AccountFees",
      "type": "event"
    },
    {
      "anonymous": false,
      "inputs": [
        {
          "indexed": false,
          "internalType": "address",
          "name": "token",
          "type": "address"
        }
      ],
      "name": "AddToken",
      "type": "event"
    },
    {
      "anonymous": false,
      "inputs": [
        {
          "indexed": true,
          "internalType": "address",
          "name": "token",
          "type": "address"
        },
        {
          "indexed": false,
          "internalType": "uint256",
          "name": "bank",
          "type": "uint256"
        },
        {
          "indexed": false,
          "internalType": "uint256",
          "name": "dividend",
          "type": "uint256"
        },
        {
          "indexed": false,
          "internalType": "uint256",
          "name": "partner",
          "type": "uint256"
        },
        {
          "indexed": false,
          "internalType": "uint256",
          "name": "treasury",
          "type": "uint256"
        },
        {
          "indexed": false,
          "internalType": "uint256",
          "name": "team",
          "type": "uint256"
        }
      ],
      "name": "AllocateHouseEdgeAmount",
      "type": "event"
    },
    {
      "anonymous": false,
      "inputs": [
        {
          "indexed": true,
          "internalType": "address",
          "name": "token",
          "type": "address"
        },
        {
          "indexed": false,
          "internalType": "uint256",
          "name": "newBalance",
          "type": "uint256"
        },
        {
          "indexed": false,
          "internalType": "uint256",
          "name": "amount",
          "type": "uint256"
        }
      ],
      "name": "CashIn",
      "type": "event"
    },
    {
      "anonymous": false,
      "inputs": [
        {
          "indexed": true,
          "internalType": "address",
          "name": "token",
          "type": "address"
        },
        {
          "indexed": false,
          "internalType": "uint256",
          "name": "amount",
          "type": "uint256"
        }
      ],
      "name": "Deposit",
      "type": "event"
    },
    {
      "anonymous": false,
      "inputs": [
        {
          "indexed": true,
          "internalType": "address",
          "name": "token",
          "type": "address"
        },
        {
          "indexed": false,
          "internalType": "uint256",
          "name": "amount",
          "type": "uint256"
        }
      ],
      "name": "HarvestDividend",
      "type": "event"
    },
    {
      "anonymous": false,
      "inputs": [
        {
          "indexed": true,
          "internalType": "address",
          "name": "token",
          "type": "address"
        },
        {
          "indexed": false,
          "internalType": "uint256",
          "name": "treasuryAmount",
          "type": "uint256"
        },
        {
          "indexed": false,
          "internalType": "uint256",
          "name": "teamAmount",
          "type": "uint256"
        }
      ],
      "name": "HouseEdgeDistribution",
      "type": "event"
    },
    {
      "anonymous": false,
      "inputs": [
        {
          "indexed": true,
          "internalType": "address",
          "name": "token",
          "type": "address"
        },
        {
          "indexed": false,
          "internalType": "uint256",
          "name": "partnerAmount",
          "type": "uint256"
        }
      ],
      "name": "HouseEdgePartnerDistribution",
      "type": "event"
    },
    {
      "anonymous": false,
      "inputs": [
        {
          "indexed": true,
          "internalType": "address",
          "name": "token",
          "type": "address"
        },
        {
          "indexed": false,
          "internalType": "uint256",
          "name": "newBalance",
          "type": "uint256"
        },
        {
          "indexed": false,
          "internalType": "uint256",
          "name": "profit",
          "type": "uint256"
        }
      ],
      "name": "Payout",
      "type": "event"
    },
    {
      "anonymous": false,
      "inputs": [
        {
          "indexed": true,
          "internalType": "bytes32",
          "name": "role",
          "type": "bytes32"
        },
        {
          "indexed": true,
          "internalType": "bytes32",
          "name": "previousAdminRole",
          "type": "bytes32"
        },
        {
          "indexed": true,
          "internalType": "bytes32",
          "name": "newAdminRole",
          "type": "bytes32"
        }
      ],
      "name": "RoleAdminChanged",
      "type": "event"
    },
    {
      "anonymous": false,
      "inputs": [
        {
          "indexed": true,
          "internalType": "bytes32",
          "name": "role",
          "type": "bytes32"
        },
        {
          "indexed": true,
          "internalType": "address",
          "name": "account",
          "type": "address"
        },
        {
          "indexed": true,
          "internalType": "address",
          "name": "sender",
          "type": "address"
        }
      ],
      "name": "RoleGranted",
      "type": "event"
    },
    {
      "anonymous": false,
      "inputs": [
        {
          "indexed": true,
          "internalType": "bytes32",
          "name": "role",
          "type": "bytes32"
        },
        {
          "indexed": true,
          "internalType": "address",
          "name": "account",
          "type": "address"
        },
        {
          "indexed": true,
          "internalType": "address",
          "name": "sender",
          "type": "address"
        }
      ],
      "name": "RoleRevoked",
      "type": "event"
    },
    {
      "anonymous": false,
      "inputs": [
        {
          "indexed": true,
          "internalType": "address",
          "name": "token",
          "type": "address"
        },
        {
          "indexed": false,
          "internalType": "bool",
          "name": "allowed",
          "type": "bool"
        }
      ],
      "name": "SetAllowedToken",
      "type": "event"
    },
    {
      "anonymous": false,
      "inputs": [
        {
          "indexed": true,
          "internalType": "address",
          "name": "token",
          "type": "address"
        },
        {
          "indexed": false,
          "internalType": "uint16",
          "name": "balanceRisk",
          "type": "uint16"
        }
      ],
      "name": "SetBalanceRisk",
      "type": "event"
    },
    {
      "anonymous": false,
      "inputs": [
        {
          "indexed": true,
          "internalType": "address",
          "name": "token",
          "type": "address"
        },
        {
          "indexed": false,
          "internalType": "uint256",
          "name": "minPartnerTransferAmount",
          "type": "uint256"
        }
      ],
      "name": "SetMinPartnerTransferAmount",
      "type": "event"
    },
    {
      "anonymous": false,
      "inputs": [
        {
          "indexed": true,
          "internalType": "address",
          "name": "token",
          "type": "address"
        },
        {
          "indexed": false,
          "internalType": "bool",
          "name": "paused",
          "type": "bool"
        }
      ],
      "name": "SetPausedToken",
      "type": "event"
    },
    {
      "anonymous": false,
      "inputs": [
        {
          "indexed": false,
          "internalType": "address",
          "name": "teamWallet",
          "type": "address"
        }
      ],
      "name": "SetTeamWallet",
      "type": "event"
    },
    {
      "anonymous": false,
      "inputs": [
        {
          "indexed": true,
          "internalType": "address",
          "name": "token",
          "type": "address"
        },
        {
          "indexed": false,
          "internalType": "uint16",
          "name": "bank",
          "type": "uint16"
        },
        {
          "indexed": false,
          "internalType": "uint16",
          "name": "dividend",
          "type": "uint16"
        },
        {
          "indexed": false,
          "internalType": "uint16",
          "name": "partner",
          "type": "uint16"
        },
        {
          "indexed": false,
          "internalType": "uint16",
          "name": "treasury",
          "type": "uint16"
        },
        {
          "indexed": false,
          "internalType": "uint16",
          "name": "team",
          "type": "uint16"
        }
      ],
      "name": "SetTokenHouseEdgeSplit",
      "type": "event"
    },
    {
      "anonymous": false,
      "inputs": [
        {
          "indexed": true,
          "internalType": "address",
          "name": "token",
          "type": "address"
        },
        {
          "indexed": false,
          "internalType": "uint256",
          "name": "minBetAmount",
          "type": "uint256"
        }
      ],
      "name": "SetTokenMinBetAmount",
      "type": "event"
    },
    {
      "anonymous": false,
      "inputs": [
        {
          "indexed": true,
          "internalType": "address",
          "name": "token",
          "type": "address"
        },
        {
          "indexed": false,
          "internalType": "address",
          "name": "partner",
          "type": "address"
        }
      ],
      "name": "SetTokenPartner",
      "type": "event"
    },
    {
      "anonymous": false,
      "inputs": [
        {
          "indexed": true,
          "internalType": "address",
          "name": "token",
          "type": "address"
        },
        {
          "indexed": false,
          "internalType": "uint64",
          "name": "subId",
          "type": "uint64"
        }
      ],
      "name": "SetTokenVRFSubId",
      "type": "event"
    },
    {
      "anonymous": false,
      "inputs": [
        {
          "indexed": true,
          "internalType": "address",
          "name": "token",
          "type": "address"
        },
        {
          "indexed": false,
          "internalType": "uint256",
          "name": "amount",
          "type": "uint256"
        }
      ],
      "name": "Withdraw",
      "type": "event"
    },
    {
      "inputs": [],
      "name": "DEFAULT_ADMIN_ROLE",
      "outputs": [
        {
          "internalType": "bytes32",
          "name": "",
          "type": "bytes32"
        }
      ],
      "stateMutability": "view",
      "type": "function"
    },
    {
      "inputs": [],
      "name": "GAME_ROLE",
      "outputs": [
        {
          "internalType": "bytes32",
          "name": "",
          "type": "bytes32"
        }
      ],
      "stateMutability": "view",
      "type": "function"
    },
    {
      "inputs": [],
      "name": "SWIRLMASTER_ROLE",
      "outputs": [
        {
          "internalType": "bytes32",
          "name": "",
          "type": "bytes32"
        }
      ],
      "stateMutability": "view",
      "type": "function"
    },
    {
      "inputs": [
        {
          "internalType": "address",
          "name": "token",
          "type": "address"
        },
        {
          "internalType": "uint256",
          "name": "fees",
          "type": "uint256"
        }
      ],
      "name": "accountFees",
      "outputs": [],
      "stateMutability": "payable",
      "type": "function"
    },
    {
      "inputs": [
        {
          "internalType": "address",
          "name": "token",
          "type": "address"
        }
      ],
      "name": "addToken",
      "outputs": [],
      "stateMutability": "nonpayable",
      "type": "function"
    },
    {
      "inputs": [
        {
          "internalType": "address",
          "name": "tokenAddress",
          "type": "address"
        },
        {
          "internalType": "uint256",
          "name": "amount",
          "type": "uint256"
        }
      ],
      "name": "cashIn",
      "outputs": [],
      "stateMutability": "payable",
      "type": "function"
    },
    {
      "inputs": [
        {
          "internalType": "bytes",
          "name": "checkData",
          "type": "bytes"
        }
      ],
      "name": "checkUpkeep",
      "outputs": [
        {
          "internalType": "bool",
          "name": "upkeepNeeded",
          "type": "bool"
        },
        {
          "internalType": "bytes",
          "name": "performData",
          "type": "bytes"
        }
      ],
      "stateMutability": "view",
      "type": "function"
    },
    {
      "inputs": [
        {
          "internalType": "address",
          "name": "token",
          "type": "address"
        },
        {
          "internalType": "uint256",
          "name": "amount",
          "type": "uint256"
        }
      ],
      "name": "deposit",
      "outputs": [],
      "stateMutability": "payable",
      "type": "function"
    },
    {
      "inputs": [
        {
          "internalType": "address",
          "name": "token",
          "type": "address"
        }
      ],
      "name": "getBalance",
      "outputs": [
        {
          "internalType": "uint256",
          "name": "",
          "type": "uint256"
        }
      ],
      "stateMutability": "view",
      "type": "function"
    },
    {
      "inputs": [],
      "name": "getDividends",
      "outputs": [
        {
          "internalType": "address[]",
          "name": "",
          "type": "address[]"
        },
        {
          "internalType": "uint256[]",
          "name": "",
          "type": "uint256[]"
        }
      ],
      "stateMutability": "view",
      "type": "function"
    },
    {
      "inputs": [
        {
          "internalType": "address",
          "name": "token",
          "type": "address"
        },
        {
          "internalType": "uint256",
          "name": "multiplier",
          "type": "uint256"
        }
      ],
      "name": "getMaxBetAmount",
      "outputs": [
        {
          "internalType": "uint256",
          "name": "",
          "type": "uint256"
        }
      ],
      "stateMutability": "view",
      "type": "function"
    },
    {
      "inputs": [
        {
          "internalType": "address",
          "name": "token",
          "type": "address"
        }
      ],
      "name": "getMinBetAmount",
      "outputs": [
        {
          "internalType": "uint256",
          "name": "minBetAmount",
          "type": "uint256"
        }
      ],
      "stateMutability": "view",
      "type": "function"
    },
    {
      "inputs": [
        {
          "internalType": "bytes32",
          "name": "role",
          "type": "bytes32"
        }
      ],
      "name": "getRoleAdmin",
      "outputs": [
        {
          "internalType": "bytes32",
          "name": "",
          "type": "bytes32"
        }
      ],
      "stateMutability": "view",
      "type": "function"
    },
    {
      "inputs": [
        {
          "internalType": "bytes32",
          "name": "role",
          "type": "bytes32"
        },
        {
          "internalType": "uint256",
          "name": "index",
          "type": "uint256"
        }
      ],
      "name": "getRoleMember",
      "outputs": [
        {
          "internalType": "address",
          "name": "",
          "type": "address"
        }
      ],
      "stateMutability": "view",
      "type": "function"
    },
    {
      "inputs": [
        {
          "internalType": "bytes32",
          "name": "role",
          "type": "bytes32"
        }
      ],
      "name": "getRoleMemberCount",
      "outputs": [
        {
          "internalType": "uint256",
          "name": "",
          "type": "uint256"
        }
      ],
      "stateMutability": "view",
      "type": "function"
    },
    {
      "inputs": [
        {
          "internalType": "address",
          "name": "token",
          "type": "address"
        }
      ],
      "name": "getTokenOwner",
      "outputs": [
        {
          "internalType": "address",
          "name": "",
          "type": "address"
        }
      ],
      "stateMutability": "view",
      "type": "function"
    },
    {
      "inputs": [],
      "name": "getTokens",
      "outputs": [
        {
          "components": [
            {
              "internalType": "uint8",
              "name": "decimals",
              "type": "uint8"
            },
            {
              "internalType": "address",
              "name": "tokenAddress",
              "type": "address"
            },
            {
              "internalType": "string",
              "name": "name",
              "type": "string"
            },
            {
              "internalType": "string",
              "name": "symbol",
              "type": "string"
            },
            {
              "components": [
                {
                  "internalType": "bool",
                  "name": "allowed",
                  "type": "bool"
                },
                {
                  "internalType": "bool",
                  "name": "paused",
                  "type": "bool"
                },
                {
                  "internalType": "uint16",
                  "name": "balanceRisk",
                  "type": "uint16"
                },
                {
                  "internalType": "uint64",
                  "name": "VRFSubId",
                  "type": "uint64"
                },
                {
                  "internalType": "address",
                  "name": "partner",
                  "type": "address"
                },
                {
                  "internalType": "uint256",
                  "name": "minBetAmount",
                  "type": "uint256"
                },
                {
                  "internalType": "uint256",
                  "name": "minPartnerTransferAmount",
                  "type": "uint256"
                },
                {
                  "components": [
                    {
                      "internalType": "uint16",
                      "name": "bank",
                      "type": "uint16"
                    },
                    {
                      "internalType": "uint16",
                      "name": "dividend",
                      "type": "uint16"
                    },
                    {
                      "internalType": "uint16",
                      "name": "partner",
                      "type": "uint16"
                    },
                    {
                      "internalType": "uint16",
                      "name": "treasury",
                      "type": "uint16"
                    },
                    {
                      "internalType": "uint16",
                      "name": "team",
                      "type": "uint16"
                    },
                    {
                      "internalType": "uint256",
                      "name": "dividendAmount",
                      "type": "uint256"
                    },
                    {
                      "internalType": "uint256",
                      "name": "partnerAmount",
                      "type": "uint256"
                    },
                    {
                      "internalType": "uint256",
                      "name": "treasuryAmount",
                      "type": "uint256"
                    },
                    {
                      "internalType": "uint256",
                      "name": "teamAmount",
                      "type": "uint256"
                    }
                  ],
                  "internalType": "struct Bank.HouseEdgeSplit",
                  "name": "houseEdgeSplit",
                  "type": "tuple"
                }
              ],
              "internalType": "struct Bank.Token",
              "name": "token",
              "type": "tuple"
            }
          ],
          "internalType": "struct Bank.TokenMetadata[]",
          "name": "",
          "type": "tuple[]"
        }
      ],
      "stateMutability": "view",
      "type": "function"
    },
    {
      "inputs": [
        {
          "internalType": "address",
          "name": "token",
          "type": "address"
        }
      ],
      "name": "getVRFSubId",
      "outputs": [
        {
          "internalType": "uint64",
          "name": "",
          "type": "uint64"
        }
      ],
      "stateMutability": "view",
      "type": "function"
    },
    {
      "inputs": [
        {
          "internalType": "bytes32",
          "name": "role",
          "type": "bytes32"
        },
        {
          "internalType": "address",
          "name": "account",
          "type": "address"
        }
      ],
      "name": "grantRole",
      "outputs": [],
      "stateMutability": "nonpayable",
      "type": "function"
    },
    {
      "inputs": [],
      "name": "harvestDividends",
      "outputs": [
        {
          "internalType": "address[]",
          "name": "",
          "type": "address[]"
        },
        {
          "internalType": "uint256[]",
          "name": "",
          "type": "uint256[]"
        }
      ],
      "stateMutability": "nonpayable",
      "type": "function"
    },
    {
      "inputs": [
        {
          "internalType": "bytes32",
          "name": "role",
          "type": "bytes32"
        },
        {
          "internalType": "address",
          "name": "account",
          "type": "address"
        }
      ],
      "name": "hasRole",
      "outputs": [
        {
          "internalType": "bool",
          "name": "",
          "type": "bool"
        }
      ],
      "stateMutability": "view",
      "type": "function"
    },
    {
      "inputs": [
        {
          "internalType": "address",
          "name": "tokenAddress",
          "type": "address"
        }
      ],
      "name": "isAllowedToken",
      "outputs": [
        {
          "internalType": "bool",
          "name": "",
          "type": "bool"
        }
      ],
      "stateMutability": "view",
      "type": "function"
    },
    {
      "inputs": [
        {
          "internalType": "bytes[]",
          "name": "data",
          "type": "bytes[]"
        }
      ],
      "name": "multicall",
      "outputs": [
        {
          "internalType": "bytes[]",
          "name": "results",
          "type": "bytes[]"
        }
      ],
      "stateMutability": "nonpayable",
      "type": "function"
    },
    {
      "inputs": [
        {
          "internalType": "address payable",
          "name": "user",
          "type": "address"
        },
        {
          "internalType": "address",
          "name": "token",
          "type": "address"
        },
        {
          "internalType": "uint256",
          "name": "profit",
          "type": "uint256"
        },
        {
          "internalType": "uint256",
          "name": "fees",
          "type": "uint256"
        }
      ],
      "name": "payout",
      "outputs": [],
      "stateMutability": "payable",
      "type": "function"
    },
    {
      "inputs": [
        {
          "internalType": "bytes",
          "name": "performData",
          "type": "bytes"
        }
      ],
      "name": "performUpkeep",
      "outputs": [],
      "stateMutability": "nonpayable",
      "type": "function"
    },
    {
      "inputs": [
        {
          "internalType": "bytes32",
          "name": "role",
          "type": "bytes32"
        },
        {
          "internalType": "address",
          "name": "account",
          "type": "address"
        }
      ],
      "name": "renounceRole",
      "outputs": [],
      "stateMutability": "nonpayable",
      "type": "function"
    },
    {
      "inputs": [
        {
          "internalType": "bytes32",
          "name": "role",
          "type": "bytes32"
        },
        {
          "internalType": "address",
          "name": "account",
          "type": "address"
        }
      ],
      "name": "revokeRole",
      "outputs": [],
      "stateMutability": "nonpayable",
      "type": "function"
    },
    {
      "inputs": [
        {
          "internalType": "address",
          "name": "token",
          "type": "address"
        },
        {
          "internalType": "bool",
          "name": "allowed",
          "type": "bool"
        }
      ],
      "name": "setAllowedToken",
      "outputs": [],
      "stateMutability": "nonpayable",
      "type": "function"
    },
    {
      "inputs": [
        {
          "internalType": "address",
          "name": "token",
          "type": "address"
        },
        {
          "internalType": "uint16",
          "name": "balanceRisk",
          "type": "uint16"
        }
      ],
      "name": "setBalanceRisk",
      "outputs": [],
      "stateMutability": "nonpayable",
      "type": "function"
    },
    {
      "inputs": [
        {
          "internalType": "address",
          "name": "token",
          "type": "address"
        },
        {
          "internalType": "uint16",
          "name": "bank",
          "type": "uint16"
        },
        {
          "internalType": "uint16",
          "name": "dividend",
          "type": "uint16"
        },
        {
          "internalType": "uint16",
          "name": "partner",
          "type": "uint16"
        },
        {
          "internalType": "uint16",
          "name": "_treasury",
          "type": "uint16"
        },
        {
          "internalType": "uint16",
          "name": "team",
          "type": "uint16"
        }
      ],
      "name": "setHouseEdgeSplit",
      "outputs": [],
      "stateMutability": "nonpayable",
      "type": "function"
    },
    {
      "inputs": [
        {
          "internalType": "address",
          "name": "token",
          "type": "address"
        },
        {
          "internalType": "uint256",
          "name": "minPartnerTransferAmount",
          "type": "uint256"
        }
      ],
      "name": "setMinPartnerTransferAmount",
      "outputs": [],
      "stateMutability": "nonpayable",
      "type": "function"
    },
    {
      "inputs": [
        {
          "internalType": "address",
          "name": "token",
          "type": "address"
        },
        {
          "internalType": "bool",
          "name": "paused",
          "type": "bool"
        }
      ],
      "name": "setPausedToken",
      "outputs": [],
      "stateMutability": "nonpayable",
      "type": "function"
    },
    {
      "inputs": [
        {
          "internalType": "address",
          "name": "_teamWallet",
          "type": "address"
        }
      ],
      "name": "setTeamWallet",
      "outputs": [],
      "stateMutability": "nonpayable",
      "type": "function"
    },
    {
      "inputs": [
        {
          "internalType": "address",
          "name": "token",
          "type": "address"
        },
        {
          "internalType": "uint256",
          "name": "tokenMinBetAmount",
          "type": "uint256"
        }
      ],
      "name": "setTokenMinBetAmount",
      "outputs": [],
      "stateMutability": "nonpayable",
      "type": "function"
    },
    {
      "inputs": [
        {
          "internalType": "address",
          "name": "token",
          "type": "address"
        },
        {
          "internalType": "address",
          "name": "partner",
          "type": "address"
        }
      ],
      "name": "setTokenPartner",
      "outputs": [],
      "stateMutability": "nonpayable",
      "type": "function"
    },
    {
      "inputs": [
        {
          "internalType": "address",
          "name": "token",
          "type": "address"
        },
        {
          "internalType": "uint64",
          "name": "subId",
          "type": "uint64"
        }
      ],
      "name": "setTokenVRFSubId",
      "outputs": [],
      "stateMutability": "nonpayable",
      "type": "function"
    },
    {
      "inputs": [
        {
          "internalType": "bytes4",
          "name": "interfaceId",
          "type": "bytes4"
        }
      ],
      "name": "supportsInterface",
      "outputs": [
        {
          "internalType": "bool",
          "name": "",
          "type": "bool"
        }
      ],
      "stateMutability": "view",
      "type": "function"
    },
    {
      "inputs": [],
      "name": "teamWallet",
      "outputs": [
        {
          "internalType": "address",
          "name": "",
          "type": "address"
        }
      ],
      "stateMutability": "view",
      "type": "function"
    },
    {
      "inputs": [
        {
          "internalType": "address",
          "name": "",
          "type": "address"
        }
      ],
      "name": "tokens",
      "outputs": [
        {
          "internalType": "bool",
          "name": "allowed",
          "type": "bool"
        },
        {
          "internalType": "bool",
          "name": "paused",
          "type": "bool"
        },
        {
          "internalType": "uint16",
          "name": "balanceRisk",
          "type": "uint16"
        },
        {
          "internalType": "uint64",
          "name": "VRFSubId",
          "type": "uint64"
        },
        {
          "internalType": "address",
          "name": "partner",
          "type": "address"
        },
        {
          "internalType": "uint256",
          "name": "minBetAmount",
          "type": "uint256"
        },
        {
          "internalType": "uint256",
          "name": "minPartnerTransferAmount",
          "type": "uint256"
        },
        {
          "components": [
            {
              "internalType": "uint16",
              "name": "bank",
              "type": "uint16"
            },
            {
              "internalType": "uint16",
              "name": "dividend",
              "type": "uint16"
            },
            {
              "internalType": "uint16",
              "name": "partner",
              "type": "uint16"
            },
            {
              "internalType": "uint16",
              "name": "treasury",
              "type": "uint16"
            },
            {
              "internalType": "uint16",
              "name": "team",
              "type": "uint16"
            },
            {
              "internalType": "uint256",
              "name": "dividendAmount",
              "type": "uint256"
            },
            {
              "internalType": "uint256",
              "name": "partnerAmount",
              "type": "uint256"
            },
            {
              "internalType": "uint256",
              "name": "treasuryAmount",
              "type": "uint256"
            },
            {
              "internalType": "uint256",
              "name": "teamAmount",
              "type": "uint256"
            }
          ],
          "internalType": "struct Bank.HouseEdgeSplit",
          "name": "houseEdgeSplit",
          "type": "tuple"
        }
      ],
      "stateMutability": "view",
      "type": "function"
    },
    {
      "inputs": [],
      "name": "treasury",
      "outputs": [
        {
          "internalType": "address",
          "name": "",
          "type": "address"
        }
      ],
      "stateMutability": "view",
      "type": "function"
    },
    {
      "inputs": [
        {
          "internalType": "address",
          "name": "token",
          "type": "address"
        },
        {
          "internalType": "uint256",
          "name": "amount",
          "type": "uint256"
        }
      ],
      "name": "withdraw",
      "outputs": [],
      "stateMutability": "nonpayable",
      "type": "function"
    },
    {
      "inputs": [
        {
          "internalType": "address",
          "name": "tokenAddress",
          "type": "address"
        }
      ],
      "name": "withdrawHouseEdgeAmount",
      "outputs": [],
      "stateMutability": "nonpayable",
      "type": "function"
    },
    {
      "inputs": [
        {
          "internalType": "address",
          "name": "tokenAddress",
          "type": "address"
        }
      ],
      "name": "withdrawPartnerAmount",
      "outputs": [],
      "stateMutability": "nonpayable",
      "type": "function"
    }
  ],
  "bytecode": "0x60a06040523480156200001157600080fd5b50604051620044c9380380620044c983398101604081905262000034916200050c565b6001600160a01b0382166200005c57604051630d23cf4160e11b815260040160405180910390fd5b6001600160a01b0382166080526200007660003362000089565b620000818162000099565b5050620006ac565b6200009582826200012e565b5050565b6000620000a68162000171565b6001600160a01b038216620000ce57604051630d23cf4160e11b815260040160405180910390fd5b60028054610100600160a81b0319166101006001600160a01b038581168202929092179283905560405192041681527fc6a5dd316fe9d0339f2769deab7e31f64c8f5b101ffd85dfc9a83dbeaf2e69da9060200160405180910390a15050565b6200014582826200018060201b6200273e1760201c565b60008281526001602090815260409091206200016c918390620027c262000220821b17901c565b505050565b6200017d813362000240565b50565b6000828152602081815260408083206001600160a01b038516845290915290205460ff1662000095576000828152602081815260408083206001600160a01b03851684529091529020805460ff19166001179055620001dc3390565b6001600160a01b0316816001600160a01b0316837f2f8788117e7eff1d82e926ec794901d17c78024a50270940304540a733656f0d60405160405180910390a45050565b600062000237836001600160a01b038416620002e4565b90505b92915050565b6000828152602081815260408083206001600160a01b038516845290915290205460ff1662000095576200028a816001600160a01b031660146200033660201b620027d71760201c565b620002a0836020620027d762000336821b17811c565b604051602001620002b39291906200056a565b60408051601f198184030181529082905262461bcd60e51b8252620002db91600401620005e3565b60405180910390fd5b60008181526001830160205260408120546200032d575081546001818101845560008481526020808220909301849055845484825282860190935260409020919091556200023a565b5060006200023a565b60606000620003478360026200062e565b6200035490600262000650565b6001600160401b038111156200036e576200036e62000666565b6040519080825280601f01601f19166020018201604052801562000399576020820181803683370190505b509050600360fc1b81600081518110620003b757620003b76200067c565b60200101906001600160f81b031916908160001a905350600f60fb1b81600181518110620003e957620003e96200067c565b60200101906001600160f81b031916908160001a90535060006200040f8460026200062e565b6200041c90600162000650565b90505b60018111156200049e576f181899199a1a9b1b9c1cb0b131b232b360811b85600f16601081106200045457620004546200067c565b1a60f81b8282815181106200046d576200046d6200067c565b60200101906001600160f81b031916908160001a90535060049490941c93620004968162000692565b90506200041f565b508315620002375760405162461bcd60e51b815260206004820181905260248201527f537472696e67733a20686578206c656e67746820696e73756666696369656e746044820152606401620002db565b80516001600160a01b03811681146200050757600080fd5b919050565b600080604083850312156200052057600080fd5b6200052b83620004ef565b91506200053b60208401620004ef565b90509250929050565b60005b838110156200056157818101518382015260200162000547565b50506000910152565b7f416363657373436f6e74726f6c3a206163636f756e7420000000000000000000815260008351620005a481601785016020880162000544565b7001034b99036b4b9b9b4b733903937b6329607d1b6017918401918201528351620005d781602884016020880162000544565b01602801949350505050565b60208152600082518060208401526200060481604085016020870162000544565b601f01601f19169190910160400192915050565b634e487b7160e01b600052601160045260246000fd5b60008160001904831182151516156200064b576200064b62000618565b500290565b808201808211156200023a576200023a62000618565b634e487b7160e01b600052604160045260246000fd5b634e487b7160e01b600052603260045260246000fd5b600081620006a457620006a462000618565b506000190190565b608051613dfa620006cf600039600081816104fc015261099b0152613dfa6000f3fe60806040526004361061025c5760003560e01c8063802ad8fb11610144578063ca7a8769116100b6578063e48603391161007a578063e486033914610788578063ed442e141461088a578063f3fef3a31461089f578063f6ae2204146108bf578063f6b2a2f1146108f3578063f8b2cb4f1461091357600080fd5b8063ca7a8769146106f5578063cbe230c314610708578063d48bfca714610728578063d547741f14610748578063dc17c9ca1461076857600080fd5b8063aa6ca80811610108578063aa6ca80814610624578063ab40070614610646578063ac9650d814610668578063bc3ec38314610695578063c437afde146106b5578063ca15c873146106d557600080fd5b8063802ad8fb1461058c5780638aaa2284146105af5780639010d07c146105cf57806391d14854146105ef578063a217fddf1461060f57600080fd5b806336568abe116101dd57806356f0406d116101a157806356f0406d1461048d57806359927044146104ad57806361d027b3146104ea578063659bdfc61461051e5780636dfa8e521461053e5780636e04ff0d1461055e57600080fd5b806336568abe146103fa57806338c64d2f1461041a5780634297dcbe1461043a5780634585e33b1461045a57806347e7ef241461047a57600080fd5b8063278b39de11610224578063278b39de14610329578063279e3415146103495780632ee99d3e146103a75780632f2ff15d146103c75780633138809d146103e757600080fd5b806301ffc9a7146102615780630ae30cb0146102965780631525ff7d146102b85780631f615023146102d8578063248a9ca3146102eb575b600080fd5b34801561026d57600080fd5b5061028161027c366004613316565b610933565b60405190151581526020015b60405180910390f35b3480156102a257600080fd5b506102b66102b1366004613355565b61095e565b005b3480156102c457600080fd5b506102b66102d3366004613355565b610a47565b6102b66102e6366004613372565b610ada565b3480156102f757600080fd5b5061031b6103063660046133b8565b60009081526020819052604090206001015490565b60405190815260200161028d565b34801561033557600080fd5b5061031b6103443660046133d1565b610b5a565b34801561035557600080fd5b5061038f610364366004613355565b6001600160a01b0316600090815260036020526040902054600160201b90046001600160401b031690565b6040516001600160401b03909116815260200161028d565b3480156103b357600080fd5b506102b66103c236600461340f565b610ba3565b3480156103d357600080fd5b506102b66103e2366004613485565b610d51565b6102b66103f53660046133d1565b610d7b565b34801561040657600080fd5b506102b6610415366004613485565b610dfc565b34801561042657600080fd5b506102b6610435366004613355565b610e7a565b34801561044657600080fd5b506102b66104553660046133d1565b610f1a565b34801561046657600080fd5b506102b66104753660046134b5565b610fcd565b6102b66104883660046133d1565b611131565b34801561049957600080fd5b506102b66104a8366004613526565b6111fa565b3480156104b957600080fd5b506002546104d29061010090046001600160a01b031681565b6040516001600160a01b03909116815260200161028d565b3480156104f657600080fd5b506104d27f000000000000000000000000000000000000000000000000000000000000000081565b34801561052a57600080fd5b506102b66105393660046133d1565b6112c2565b34801561054a57600080fd5b506102b661055936600461355b565b611375565b34801561056a57600080fd5b5061057e6105793660046134b5565b61144b565b60405161028d9291906135e5565b34801561059857600080fd5b506105a16115cd565b60405161028d929190613600565b3480156105bb57600080fd5b506102b66105ca366004613692565b6117aa565b3480156105db57600080fd5b506104d26105ea3660046136c0565b61180d565b3480156105fb57600080fd5b5061028161060a366004613485565b611825565b34801561061b57600080fd5b5061031b600081565b34801561063057600080fd5b5061063961184e565b60405161028d919061375a565b34801561065257600080fd5b5061031b600080516020613d7e83398151915281565b34801561067457600080fd5b5061068861068336600461388a565b611c22565b60405161028d91906138ec565b3480156106a157600080fd5b506102b66106b036600461394e565b611d16565b3480156106c157600080fd5b506102b66106d0366004613692565b611eb4565b3480156106e157600080fd5b5061031b6106f03660046133b8565b611f76565b6102b66107033660046133d1565b611f8d565b34801561071457600080fd5b50610281610723366004613355565b611fe3565b34801561073457600080fd5b506102b6610743366004613355565b61210c565b34801561075457600080fd5b506102b6610763366004613485565b612220565b34801561077457600080fd5b506104d2610783366004613355565b612245565b34801561079457600080fd5b506108766107a3366004613355565b6003602081815260009283526040928390208054600182015460028301548651610120810188529584015461ffff808216885262010000808304821697890197909752600160201b808304821699890199909952600160301b820481166060890152600160401b90910481166080880152600485015460a0880152600585015460c0880152600685015460e08801526007909401546101008088019190915260ff808516989185041696958404909416949383046001600160401b031693600160601b9093046001600160a01b03169288565b60405161028d98979695949392919061397c565b34801561089657600080fd5b506105a161227a565b3480156108ab57600080fd5b506102b66108ba3660046133d1565b6123d9565b3480156108cb57600080fd5b5061031b7f39780592ddb1e73f2a037f166ec57ba042082746f5c0b9fe56ea386e00369a9881565b3480156108ff57600080fd5b5061031b61090e366004613355565b6125bc565b34801561091f57600080fd5b5061031b61092e366004613355565b6125ea565b60006001600160e01b03198216635a05180f60e01b1480610958575061095882612972565b92915050565b6001600160a01b03811660009081526003602081905260409091206006810154600782015491909201919081156109c157600060038401556109c17f000000000000000000000000000000000000000000000000000000000000000085846129a7565b80156109ea57600060048401556002546109ea9061010090046001600160a01b031685836129a7565b811515806109f757508015155b15610a415760408051838152602081018390526001600160a01b038616917f0146f1701c23c89f761280798d36d6c4e3acb349438456f5da8f83a2f5dd8cdc910160405180910390a25b50505050565b6000610a52816129ff565b6001600160a01b038216610a7957604051630d23cf4160e11b815260040160405180910390fd5b60028054610100600160a81b0319166101006001600160a01b038581168202929092179283905560405192041681527fc6a5dd316fe9d0339f2769deab7e31f64c8f5b101ffd85dfc9a83dbeaf2e69da906020015b60405180910390a15050565b600080516020613d7e833981519152610af2816129ff565b610afc8483612a0c565b610b078585856129a7565b836001600160a01b03167f634235fcf5af0adbca1a405ec65f6f6c08f55e1f379c2c45cd10f23cb29e0e31610b3b866125ea565b6040805191825260208201879052015b60405180910390a25050505050565b6001600160a01b038216600090815260036020526040812054829062010000900461ffff16610b88856125ea565b610b9291906139f4565b610b9c9190613a13565b9392505050565b6000610bae816129ff565b6000838584610bbd898b613a35565b610bc79190613a35565b610bd19190613a35565b610bdb9190613a35565b90508061ffff1661271014610c0e576040516318410e1160e21b815261ffff821660048201526024015b60405180910390fd5b6000600360008a6001600160a01b03166001600160a01b031681526020019081526020016000206003019050878160000160006101000a81548161ffff021916908361ffff160217905550868160000160026101000a81548161ffff021916908361ffff160217905550858160000160046101000a81548161ffff021916908361ffff160217905550848160000160066101000a81548161ffff021916908361ffff160217905550838160000160086101000a81548161ffff021916908361ffff160217905550886001600160a01b03167f87512489f5b5226512d8f1bfede20d9e809ff4042f028da79c833ed04baa83978989898989604051610d3e95949392919061ffff95861681529385166020850152918416604084015283166060830152909116608082015260a00190565b60405180910390a2505050505050505050565b600082815260208190526040902060010154610d6c816129ff565b610d768383612bcd565b505050565b600080516020613d7e833981519152610d93816129ff565b826001600160a01b03167f812b76b477469edc716929cbf7ed54e3d9c1a68d8b9f8290dbabcda54d96fcbe610dc7856125ea565b6001600160a01b03861615610ddc5784610dde565b345b604080519283526020830191909152015b60405180910390a2505050565b6001600160a01b0381163314610e6c5760405162461bcd60e51b815260206004820152602f60248201527f416363657373436f6e74726f6c3a2063616e206f6e6c792072656e6f756e636560448201526e103937b632b9903337b91039b2b63360891b6064820152608401610c05565b610e768282612bef565b5050565b6001600160a01b038116600090815260036020526040902060058101548015801590610eb657508154600160601b90046001600160a01b031615155b15610d7657600060058301558154610edf90600160601b90046001600160a01b031684836129a7565b826001600160a01b03167f1aa0fc6b9bc54a055d93b640b2c7313e0bd2944482e0b6b5fec7048bbdaacd8182604051610def91815260200190565b6001600160a01b0380831660009081526003602052604081205490918491600160601b90041680610f5457610f4f8333612c11565b610f7d565b336001600160a01b03821614610f7d57604051634ca8886760e01b815260040160405180910390fd5b6001600160a01b03851660008181526003602052604090819020600101869055517f8b4a07860448b613116df3f175c837980eceaca7d1dc5143c46a20ab31ec00f990610b4b9087815260200190565b600080610fdc83850185613a50565b6001600160a01b03818116600090815260036020818152604080842081516101008082018452825460ff80821615158452828204161515838701526201000080820461ffff90811685880152600160201b8084046001600160401b0316606080880191909152600160601b909404909b16608080870191909152600187015460a080880191909152600288015460c080890191909152895161012081018b529b8901548085168d5294850484169a8c019a909a529b83048216978a0197909752600160301b8204811692890192909252600160401b90041693860193909352600482015496850196909652600581015492840192909252600682015460e080850191909152600790920154908301528301529294509092509083801561110457611104613a72565b14801561111c57508060c001518160e0015160c00151115b1561112a5761112a82610e7a565b5050505050565b6001600160a01b0380831660009081526003602052604081205490918491600160601b9004168061116b576111668333612c11565b611194565b336001600160a01b0382161461119457604051634ca8886760e01b815260040160405180910390fd5b6001600160a01b0385166111aa573493506111bf565b6111bf6001600160a01b038616333087612c75565b846001600160a01b03167fe1fffcc4923d04b559f4d29a8bfc6cda04eb5b0d3c460751c2402c5c5cc9109c85604051610b4b91815260200190565b6001600160a01b0380831660009081526003602052604081205490918491600160601b900416806112345761122f8333612c11565b61125d565b336001600160a01b0382161461125d57604051634ca8886760e01b815260040160405180910390fd5b6001600160a01b038516600081815260036020908152604091829020805463ffff000019166201000061ffff8a169081029190911790915591519182527f68288b0936dd994d19323ee940b2703e7bf46fae2552319d60dc1239ba52ec689101610b4b565b6001600160a01b0380831660009081526003602052604081205490918491600160601b900416806112fc576112f78333612c11565b611325565b336001600160a01b0382161461132557604051634ca8886760e01b815260040160405180910390fd5b6001600160a01b03851660008181526003602052604090819020600201869055517fc299d8f578e9777556514dc79b1c053fe9912dbc8424518c97262734a96e809590610b4b9087815260200190565b6001600160a01b0380831660009081526003602052604081205490918491600160601b900416806113af576113aa8333612c11565b6113d8565b336001600160a01b038216146113d857604051634ca8886760e01b815260040160405180910390fd5b6001600160a01b03851660008181526003602090815260409182902080546bffffffffffffffff000000001916600160201b6001600160401b038a169081029190911790915591519182527fae367543cf47ca7e51a9f3f92711553aa33777847f719f7e2821ea8d846ed0e19101610b4b565b60006060818061145d85870187613a50565b9092509050600082801561147357611473613a72565b036115c4576001600160a01b0381811660009081526003602081815260409283902083516101008082018652825460ff80821615158452828204161515838601526201000080820461ffff908116858a0152600160201b8084046001600160401b0316606080880191909152600160601b909404909a16608080870191909152600187015460a080880191909152600288015460c08089019182528c5161012081018e529b8a01548086168d5295860485169a8c019a909a529b840483169a8a019a909a52600160301b8304821693890193909352600160401b90910416908601526004830154958501959095526005820154928401928352600682015460e0808601919091526007909201549484019490945283019190915291519151909110156115c2576001945082826040516020016115b0929190613a88565b60405160208183030381529060405293505b505b50509250929050565b6060807f39780592ddb1e73f2a037f166ec57ba042082746f5c0b9fe56ea386e00369a986115fa816129ff565b60025460009060ff166001600160401b0381111561161a5761161a613ac2565b604051908082528060200260200182016040528015611643578160200160208202803683370190505b5060025490915060009060ff166001600160401b0381111561166757611667613ac2565b604051908082528060200260200182016040528015611690578160200160208202803683370190505b50905060005b60025460ff908116908216101561179f5760ff81166000908152600460208181526040808420546001600160a01b0316808552600390925290922090810154801561178957600060048301556116ed3384836129a7565b826001600160a01b03167fca64dbcaf91abfb066e7a5163f1d135f8f48f2cbdb0395e3b35cc278ebbd340b8260405161172891815260200190565b60405180910390a282868560ff168151811061174657611746613ad8565b60200260200101906001600160a01b031690816001600160a01b03168152505080858560ff168151811061177c5761177c613ad8565b6020026020010181815250505b505050808061179790613aee565b915050611696565b509093509150509091565b60006117b5816129ff565b6001600160a01b038316600081815260036020908152604091829020805460ff191686151590811790915591519182527fe589eb036e62c07e307aa4d441bd39c81e8bd86f349eaacb0caa06b1477f7f9a9101610def565b6000828152600160205260408120610b9c9083612ce0565b6000918252602082815260408084206001600160a01b0393909316845291905290205460ff1690565b60025460609060009060ff166001600160401b0381111561187157611871613ac2565b6040519080825280602002602001820160405280156118aa57816020015b611897613259565b81526020019060019003908161188f5790505b50905060005b60025460ff9081169082161015611c1c5760ff8181166000908152600460208181526040808420546001600160a01b03908116808652600380855295839020835161010080820186528254808b1615158352818104909a1615158288015262010000808b0461ffff90811684890152600160201b808d046001600160401b0316606080870191909152600160601b909d04909716608080860191909152600186015460a080870191909152600287015460c0808801919091528a5161012081018c529d8801548085168f5294850484169b8e019b909b529783048216988c0198909852600160301b820481169b8b019b909b52600160401b9004909916948801949094529485015491860191909152600584015492850192909252600683015460e08086019190915260079093015494840194909452908301919091529081611a82576040518060a00160405280601260ff168152602001836001600160a01b031681526020016040518060400160405280600381526020016208aa8960eb1b81525081526020016040518060400160405280600381526020016208aa8960eb1b815250815260200182815250848460ff1681518110611a7257611a72613ad8565b6020026020010181905250611c07565b60008290506040518060a00160405280826001600160a01b031663313ce5676040518163ffffffff1660e01b8152600401602060405180830381865afa158015611ad0573d6000803e3d6000fd5b505050506040513d601f19601f82011682018060405250810190611af49190613b0d565b60ff168152602001846001600160a01b03168152602001826001600160a01b03166306fdde036040518163ffffffff1660e01b8152600401600060405180830381865afa158015611b49573d6000803e3d6000fd5b505050506040513d6000823e601f3d908101601f19168201604052611b719190810190613b30565b8152602001826001600160a01b03166395d89b416040518163ffffffff1660e01b8152600401600060405180830381865afa158015611bb4573d6000803e3d6000fd5b505050506040513d6000823e601f3d908101601f19168201604052611bdc9190810190613b30565b815260200183815250858560ff1681518110611bfa57611bfa613ad8565b6020026020010181905250505b50508080611c1490613aee565b9150506118b0565b50919050565b6060816001600160401b03811115611c3c57611c3c613ac2565b604051908082528060200260200182016040528015611c6f57816020015b6060815260200190600190039081611c5a5790505b50905060005b82811015611d0f57611cdf30858584818110611c9357611c93613ad8565b9050602002810190611ca59190613bd1565b8080601f016020809104026020016040519081016040528093929190818152602001838380828437600092019190915250612cec92505050565b828281518110611cf157611cf1613ad8565b60200260200101819052508080611d0790613c1e565b915050611c75565b5092915050565b6001600160a01b0380831660009081526003602052604081205490918491600160601b90041680611d5057611d4b8333612c11565b611d79565b336001600160a01b03821614611d7957604051634ca8886760e01b815260040160405180910390fd5b6000611d92600080516020613d7e833981519152611f76565b905060005b81811015611e2757611db7600080516020613d7e8339815191528261180d565b60405163383e6aaf60e11b81526001600160a01b038981166004830152919091169063707cd55e90602401600060405180830381600087803b158015611dfc57600080fd5b505af1158015611e10573d6000803e3d6000fd5b505050508080611e1f90613c1e565b915050611d97565b50611e3186610e7a565b611e3e866108ba886125ea565b6001600160a01b0386811660008181526003602090815260409182902080546bffffffffffffffffffffffff16600160601b958b16958602179055905192835290917fc991529379552af6d0789cc899d5180a270a4bc3b1a3892adcac3d95f93dda1d91015b60405180910390a2505050505050565b6001600160a01b0380831660009081526003602052604081205490918491600160601b90041680611eee57611ee98333612c11565b611f17565b336001600160a01b03821614611f1757604051634ca8886760e01b815260040160405180910390fd5b6001600160a01b0385166000818152600360205260409081902080548715156101000261ff0019909116179055517f624dd6809915867c3c11279c2699633040681f0e4efb0fa9a193217a11903c6090610b4b90871515815260200190565b600081815260016020526040812061095890612d11565b600080516020613d7e833981519152611fa5816129ff565b611faf8383612a0c565b826001600160a01b03167f71928ab56dd9fb6df8072adf5fefb4d17ed280fa21652433fe96d7d6729bd328610dc7856125ea565b6001600160a01b03818116600090815260036020818152604080842081516101008082018452825460ff80821615158452828204161515838701526201000080820461ffff90811685880152600160201b8084046001600160401b0316606080880191909152600160601b909404909b16608080870191909152600187015460a080880191909152600288015460c080890191909152895161012081018b529b8901548085168d5294850484169a8c019a909a529b83048216978a0197909752600160301b8204811692890192909252600160401b90041693860193909352600482015496850196909652600581015492840192909252600682015460e0808501919091526007909201549083015283015281519091908015610b9c5750602001511592915050565b6000612117816129ff565b60025460ff16156121885760005b60025460ff90811690821610156121865760ff81166000908152600460205260409020546001600160a01b0380851691160361217457604051632ae3f45d60e11b815260040160405180910390fd5b8061217e81613aee565b915050612125565b505b6002805460ff908116600090815260046020526040812080546001600160a01b0319166001600160a01b0387161790558254600193926121ca91859116613c37565b92506101000a81548160ff021916908360ff1602179055507fe473c74f34be27c1464d6624f14a0d7fd4e301cbfa29c3eba425d378c8a7ebe082604051610ace91906001600160a01b0391909116815260200190565b60008281526020819052604090206001015461223b816129ff565b610d768383612bef565b6001600160a01b038082166000908152600360205260408120549091600160601b909104168061095857610b9c60008061180d565b600254606090819060009060ff166001600160401b0381111561229f5761229f613ac2565b6040519080825280602002602001820160405280156122c8578160200160208202803683370190505b5060025490915060009060ff166001600160401b038111156122ec576122ec613ac2565b604051908082528060200260200182016040528015612315578160200160208202803683370190505b50905060005b60025460ff90811690821610156123cf5760ff81166000908152600460208181526040808420546001600160a01b031680855260039092529092209081015480156123b95782868560ff168151811061237657612376613ad8565b60200260200101906001600160a01b031690816001600160a01b03168152505080858560ff16815181106123ac576123ac613ad8565b6020026020010181815250505b50505080806123c790613aee565b91505061231b565b5090939092509050565b6001600160a01b0380831660009081526003602052604081205490918491600160601b900416806124135761240e8333612c11565b61243c565b336001600160a01b0382161461243c57604051634ca8886760e01b815260040160405180910390fd5b6000612447866125ea565b9050801561256a576001600160a01b038616600090815260036020526040902054610100900460ff1661248d576040516393b3a85d60e01b815260040160405180910390fd5b60006124a6600080516020613d7e833981519152611f76565b905060005b81811015612567576124cb600080516020613d7e8339815191528261180d565b60405163594043fd60e01b81526001600160a01b038a81166004830152919091169063594043fd90602401602060405180830381865afa158015612513573d6000803e3d6000fd5b505050506040513d601f19601f820116820180604052508101906125379190613c50565b156125555760405163055212b760e51b815260040160405180910390fd5b8061255f81613c1e565b9150506124ab565b50505b80851115612576578094505b6125813387876129a7565b856001600160a01b03167f884edad9ce6fa2440d8a54cc123490eb96d2768479d49ff9c7366125a942436486604051611ea491815260200190565b6001600160a01b038116600090815260036020526040812060010154908190036125e557506127105b919050565b6000806001600160a01b03831661260257504761266d565b6040516370a0823160e01b81523060048201526001600160a01b038416906370a0823190602401602060405180830381865afa158015612646573d6000803e3d6000fd5b505050506040513d601f19601f8201168201806040525081019061266a9190613c6d565b90505b6001600160a01b0383166000908152600360208181526040928390208351610120810185529281015461ffff8082168552620100008204811693850193909352600160201b8104831694840194909452600160301b840482166060840152600160401b909304166080820152600482015460a08201819052600583015460c08301819052600684015460e0840181905260079094015461010084018190529293916127189086613c86565b6127229190613c86565b61272c9190613c86565b6127369190613c86565b949350505050565b6127488282611825565b610e76576000828152602081815260408083206001600160a01b03851684529091529020805460ff1916600117905561277e3390565b6001600160a01b0316816001600160a01b0316837f2f8788117e7eff1d82e926ec794901d17c78024a50270940304540a733656f0d60405160405180910390a45050565b6000610b9c836001600160a01b038416612d1b565b606060006127e68360026139f4565b6127f1906002613c99565b6001600160401b0381111561280857612808613ac2565b6040519080825280601f01601f191660200182016040528015612832576020820181803683370190505b509050600360fc1b8160008151811061284d5761284d613ad8565b60200101906001600160f81b031916908160001a905350600f60fb1b8160018151811061287c5761287c613ad8565b60200101906001600160f81b031916908160001a90535060006128a08460026139f4565b6128ab906001613c99565b90505b6001811115612923576f181899199a1a9b1b9c1cb0b131b232b360811b85600f16601081106128df576128df613ad8565b1a60f81b8282815181106128f5576128f5613ad8565b60200101906001600160f81b031916908160001a90535060049490941c9361291c81613cac565b90506128ae565b508315610b9c5760405162461bcd60e51b815260206004820181905260248201527f537472696e67733a20686578206c656e67746820696e73756666696369656e746044820152606401610c05565b60006001600160e01b03198216637965db0b60e01b148061095857506301ffc9a760e01b6001600160e01b0319831614610958565b6001600160a01b0382166129eb576040516001600160a01b0384169082156108fc029083906000818181858888f19350505050158015610a41573d6000803e3d6000fd5b610d766001600160a01b0383168483612d6a565b612a098133612c11565b50565b6001600160a01b03821660009081526003602081905260408220018054909190600160201b900461ffff1615612a7d57815461271090612a5790600160201b900461ffff16856139f4565b612a619190613a13565b905080826002016000828254612a779190613c99565b90915550505b815460009061271090612a9a9062010000900461ffff16866139f4565b612aa49190613a13565b905080836001016000828254612aba9190613c99565b9091555050825460009061271090612ad69061ffff16876139f4565b612ae09190613a13565b845490915060009061271090612b0190600160301b900461ffff16886139f4565b612b0b9190613a13565b905080856003016000828254612b219190613c99565b9091555050845460009061271090612b4490600160401b900461ffff16896139f4565b612b4e9190613a13565b905080866004016000828254612b649190613c99565b9091555050604080518481526020810186905290810186905260608101839052608081018290526001600160a01b038916907fc73e6f5bcd4395126567ead7e4c14b7c52a5f0b9eabd3335a05e631646a127e39060a00160405180910390a25050505050505050565b612bd7828261273e565b6000828152600160205260409020610d7690826127c2565b612bf98282612d9a565b6000828152600160205260409020610d769082612dff565b612c1b8282611825565b610e7657612c33816001600160a01b031660146127d7565b612c3e8360206127d7565b604051602001612c4f929190613cc3565b60408051601f198184030181529082905262461bcd60e51b8252610c0591600401613d38565b6040516001600160a01b0380851660248301528316604482015260648101829052610a419085906323b872dd60e01b906084015b60408051601f198184030181529190526020810180516001600160e01b03166001600160e01b031990931692909217909152612e14565b6000610b9c8383612ee6565b6060610b9c8383604051806060016040528060278152602001613d9e60279139612f10565b6000610958825490565b6000818152600183016020526040812054612d6257508154600181810184556000848152602080822090930184905584548482528286019093526040902091909155610958565b506000610958565b6040516001600160a01b038316602482015260448101829052610d7690849063a9059cbb60e01b90606401612ca9565b612da48282611825565b15610e76576000828152602081815260408083206001600160a01b0385168085529252808320805460ff1916905551339285917ff6391f5c32d9c69d2a47ea670b442974b53935d1edc7fd64eb21e047a839171b9190a45050565b6000610b9c836001600160a01b038416612fed565b6000612e69826040518060400160405280602081526020017f5361666545524332303a206c6f772d6c6576656c2063616c6c206661696c6564815250856001600160a01b03166130e09092919063ffffffff16565b805190915015610d765780806020019051810190612e879190613c50565b610d765760405162461bcd60e51b815260206004820152602a60248201527f5361666545524332303a204552433230206f7065726174696f6e20646964206e6044820152691bdd081cdd58d8d9595960b21b6064820152608401610c05565b6000826000018281548110612efd57612efd613ad8565b9060005260206000200154905092915050565b60606001600160a01b0384163b612f785760405162461bcd60e51b815260206004820152602660248201527f416464726573733a2064656c65676174652063616c6c20746f206e6f6e2d636f6044820152651b9d1c9858dd60d21b6064820152608401610c05565b600080856001600160a01b031685604051612f939190613d4b565b600060405180830381855af49150503d8060008114612fce576040519150601f19603f3d011682016040523d82523d6000602084013e612fd3565b606091505b5091509150612fe38282866130ef565b9695505050505050565b600081815260018301602052604081205480156130d6576000613011600183613c86565b855490915060009061302590600190613c86565b905081811461308a57600086600001828154811061304557613045613ad8565b906000526020600020015490508087600001848154811061306857613068613ad8565b6000918252602080832090910192909255918252600188019052604090208390555b855486908061309b5761309b613d67565b600190038181906000526020600020016000905590558560010160008681526020019081526020016000206000905560019350505050610958565b6000915050610958565b60606127368484600085613128565b606083156130fe575081610b9c565b82511561310e5782518084602001fd5b8160405162461bcd60e51b8152600401610c059190613d38565b6060824710156131895760405162461bcd60e51b815260206004820152602660248201527f416464726573733a20696e73756666696369656e742062616c616e636520666f6044820152651c8818d85b1b60d21b6064820152608401610c05565b6001600160a01b0385163b6131e05760405162461bcd60e51b815260206004820152601d60248201527f416464726573733a2063616c6c20746f206e6f6e2d636f6e74726163740000006044820152606401610c05565b600080866001600160a01b031685876040516131fc9190613d4b565b60006040518083038185875af1925050503d8060008114613239576040519150601f19603f3d011682016040523d82523d6000602084013e61323e565b606091505b509150915061324e8282866130ef565b979650505050505050565b6040518060a00160405280600060ff16815260200160006001600160a01b031681526020016060815260200160608152602001613311604080516101008082018352600080835260208084018290528385018290526060808501839052608080860184905260a080870185905260c0808801869052885161012081018a528681529485018690529784018590529183018490528201839052810182905293840181905260e08481018290529184015290919082015290565b905290565b60006020828403121561332857600080fd5b81356001600160e01b031981168114610b9c57600080fd5b6001600160a01b0381168114612a0957600080fd5b60006020828403121561336757600080fd5b8135610b9c81613340565b6000806000806080858703121561338857600080fd5b843561339381613340565b935060208501356133a381613340565b93969395505050506040820135916060013590565b6000602082840312156133ca57600080fd5b5035919050565b600080604083850312156133e457600080fd5b82356133ef81613340565b946020939093013593505050565b803561ffff811681146125e557600080fd5b60008060008060008060c0878903121561342857600080fd5b863561343381613340565b9550613441602088016133fd565b945061344f604088016133fd565b935061345d606088016133fd565b925061346b608088016133fd565b915061347960a088016133fd565b90509295509295509295565b6000806040838503121561349857600080fd5b8235915060208301356134aa81613340565b809150509250929050565b600080602083850312156134c857600080fd5b82356001600160401b03808211156134df57600080fd5b818501915085601f8301126134f357600080fd5b81358181111561350257600080fd5b86602082850101111561351457600080fd5b60209290920196919550909350505050565b6000806040838503121561353957600080fd5b823561354481613340565b9150613552602084016133fd565b90509250929050565b6000806040838503121561356e57600080fd5b823561357981613340565b915060208301356001600160401b03811681146134aa57600080fd5b60005b838110156135b0578181015183820152602001613598565b50506000910152565b600081518084526135d1816020860160208601613595565b601f01601f19169290920160200192915050565b821515815260406020820152600061273660408301846135b9565b604080825283519082018190526000906020906060840190828701845b828110156136425781516001600160a01b03168452928401929084019060010161361d565b5050508381038285015284518082528583019183019060005b818110156136775783518352928401929184019160010161365b565b5090979650505050505050565b8015158114612a0957600080fd5b600080604083850312156136a557600080fd5b82356136b081613340565b915060208301356134aa81613684565b600080604083850312156136d357600080fd5b50508035926020909101359150565b61ffff808251168352806020830151166020840152806040830151166040840152506060810151613719606084018261ffff169052565b50608081015161372f608084018261ffff169052565b5060a0818101519083015260c0808201519083015260e0808201519083015261010090810151910152565b60006020808301818452808551808352604092508286019150828160051b87010184880160005b8381101561387c57888303603f190185528151805160ff168452878101516001600160a01b03168885015286810151610280888601819052906137c6828701826135b9565b915050606080830151868303828801526137e083826135b9565b925050608080840151935083511515818801528a84015160a0811515818a01528b860151915060c061ffff8316818b015284870151945060e0925061382f838b01866001600160401b03169052565b928601516001600160a01b03166101008a0152850151610120890152908401516101408801529092015191506138696101608601836136e2565b9588019593505090860190600101613781565b509098975050505050505050565b6000806020838503121561389d57600080fd5b82356001600160401b03808211156138b457600080fd5b818501915085601f8301126138c857600080fd5b8135818111156138d757600080fd5b8660208260051b850101111561351457600080fd5b6000602080830181845280855180835260408601915060408160051b870101925083870160005b8281101561394157603f1988860301845261392f8583516135b9565b94509285019290850190600101613913565b5092979650505050505050565b6000806040838503121561396157600080fd5b823561396c81613340565b915060208301356134aa81613340565b8815158152871515602082015261ffff871660408201526001600160401b03861660608201526001600160a01b038516608082015260a0810184905260c0810183905261020081016139d160e08301846136e2565b9998505050505050505050565b634e487b7160e01b600052601160045260246000fd5b6000816000190483118215151615613a0e57613a0e6139de565b500290565b600082613a3057634e487b7160e01b600052601260045260246000fd5b500490565b61ffff818116838216019080821115611d0f57611d0f6139de565b60008060408385031215613a6357600080fd5b82356001811061396c57600080fd5b634e487b7160e01b600052602160045260246000fd5b6040810160018410613aaa57634e487b7160e01b600052602160045260246000fd5b9281526001600160a01b039190911660209091015290565b634e487b7160e01b600052604160045260246000fd5b634e487b7160e01b600052603260045260246000fd5b600060ff821660ff8103613b0457613b046139de565b60010192915050565b600060208284031215613b1f57600080fd5b815160ff81168114610b9c57600080fd5b600060208284031215613b4257600080fd5b81516001600160401b0380821115613b5957600080fd5b818401915084601f830112613b6d57600080fd5b815181811115613b7f57613b7f613ac2565b604051601f8201601f19908116603f01168101908382118183101715613ba757613ba7613ac2565b81604052828152876020848701011115613bc057600080fd5b61324e836020830160208801613595565b6000808335601e19843603018112613be857600080fd5b8301803591506001600160401b03821115613c0257600080fd5b602001915036819003821315613c1757600080fd5b9250929050565b600060018201613c3057613c306139de565b5060010190565b60ff8181168382160190811115610958576109586139de565b600060208284031215613c6257600080fd5b8151610b9c81613684565b600060208284031215613c7f57600080fd5b5051919050565b81810381811115610958576109586139de565b80820180821115610958576109586139de565b600081613cbb57613cbb6139de565b506000190190565b7f416363657373436f6e74726f6c3a206163636f756e7420000000000000000000815260008351613cfb816017850160208801613595565b7001034b99036b4b9b9b4b733903937b6329607d1b6017918401918201528351613d2c816028840160208801613595565b01602801949350505050565b602081526000610b9c60208301846135b9565b60008251613d5d818460208701613595565b9190910192915050565b634e487b7160e01b600052603160045260246000fdfe6a64baf327d646d1bca72653e2a075d15fd6ac6d8cbd7f6ee03fc55875e0fa88416464726573733a206c6f772d6c6576656c2064656c65676174652063616c6c206661696c6564a26469706673582212203b57cbcda0e5763310d825ae30509c502e1e16161c02865b9f6b520ffde8cb3c64736f6c63430008100033",
  "linkReferences": {},
  "deployedLinkReferences": {}
}