{
  "_format": "hh-sol-artifact-1",
  "contractName": "BraveGallosToken",
  "sourceName": "contracts/BraveGallosToken.sol",
  "abi": [
    {
      "inputs": [],
      "stateMutability": "nonpayable",
      "type": "constructor"
    },
    {
      "anonymous": false,
      "inputs": [
        {
          "indexed": true,
          "internalType": "address",
          "name": "owner",
          "type": "address"
        },
        {
          "indexed": true,
          "internalType": "address",
          "name": "spender",
          "type": "address"
        },
        {
          "indexed": false,
          "internalType": "uint256",
          "name": "value",
          "type": "uint256"
        }
      ],
      "name": "Approval",
      "type": "event"
    },
    {
      "anonymous": false,
      "inputs": [
        {
          "indexed": true,
          "internalType": "address",
          "name": "previousOwner",
          "type": "address"
        },
        {
          "indexed": true,
          "internalType": "address",
          "name": "newOwner",
          "type": "address"
        }
      ],
      "name": "OwnershipTransferred",
      "type": "event"
    },
    {
      "anonymous": false,
      "inputs": [
        {
          "indexed": true,
          "internalType": "address",
          "name": "from",
          "type": "address"
        },
        {
          "indexed": true,
          "internalType": "address",
          "name": "to",
          "type": "address"
        },
        {
          "indexed": false,
          "internalType": "uint256",
          "name": "value",
          "type": "uint256"
        }
      ],
      "name": "Transfer",
      "type": "event"
    },
    {
      "inputs": [
        {
          "internalType": "address",
          "name": "owner",
          "type": "address"
        },
        {
          "internalType": "address",
          "name": "spender",
          "type": "address"
        }
      ],
      "name": "allowance",
      "outputs": [
        {
          "internalType": "uint256",
          "name": "",
          "type": "uint256"
        }
      ],
      "stateMutability": "view",
      "type": "function"
    },
    {
      "inputs": [
        {
          "internalType": "address",
          "name": "spender",
          "type": "address"
        },
        {
          "internalType": "uint256",
          "name": "amount",
          "type": "uint256"
        }
      ],
      "name": "approve",
      "outputs": [
        {
          "internalType": "bool",
          "name": "",
          "type": "bool"
        }
      ],
      "stateMutability": "nonpayable",
      "type": "function"
    },
    {
      "inputs": [
        {
          "internalType": "address",
          "name": "account",
          "type": "address"
        }
      ],
      "name": "balanceOf",
      "outputs": [
        {
          "internalType": "uint256",
          "name": "",
          "type": "uint256"
        }
      ],
      "stateMutability": "view",
      "type": "function"
    },
    {
      "inputs": [],
      "name": "decimals",
      "outputs": [
        {
          "internalType": "uint8",
          "name": "",
          "type": "uint8"
        }
      ],
      "stateMutability": "view",
      "type": "function"
    },
    {
      "inputs": [
        {
          "internalType": "address",
          "name": "spender",
          "type": "address"
        },
        {
          "internalType": "uint256",
          "name": "subtractedValue",
          "type": "uint256"
        }
      ],
      "name": "decreaseAllowance",
      "outputs": [
        {
          "internalType": "bool",
          "name": "",
          "type": "bool"
        }
      ],
      "stateMutability": "nonpayable",
      "type": "function"
    },
    {
      "inputs": [],
      "name": "getOwner",
      "outputs": [
        {
          "internalType": "address",
          "name": "",
          "type": "address"
        }
      ],
      "stateMutability": "view",
      "type": "function"
    },
    {
      "inputs": [
        {
          "internalType": "address",
          "name": "spender",
          "type": "address"
        },
        {
          "internalType": "uint256",
          "name": "addedValue",
          "type": "uint256"
        }
      ],
      "name": "increaseAllowance",
      "outputs": [
        {
          "internalType": "bool",
          "name": "",
          "type": "bool"
        }
      ],
      "stateMutability": "nonpayable",
      "type": "function"
    },
    {
      "inputs": [
        {
          "internalType": "bytes[]",
          "name": "data",
          "type": "bytes[]"
        }
      ],
      "name": "multicall",
      "outputs": [
        {
          "internalType": "bytes[]",
          "name": "results",
          "type": "bytes[]"
        }
      ],
      "stateMutability": "nonpayable",
      "type": "function"
    },
    {
      "inputs": [],
      "name": "name",
      "outputs": [
        {
          "internalType": "string",
          "name": "",
          "type": "string"
        }
      ],
      "stateMutability": "view",
      "type": "function"
    },
    {
      "inputs": [],
      "name": "owner",
      "outputs": [
        {
          "internalType": "address",
          "name": "",
          "type": "address"
        }
      ],
      "stateMutability": "view",
      "type": "function"
    },
    {
      "inputs": [],
      "name": "renounceOwnership",
      "outputs": [],
      "stateMutability": "nonpayable",
      "type": "function"
    },
    {
      "inputs": [],
      "name": "symbol",
      "outputs": [
        {
          "internalType": "string",
          "name": "",
          "type": "string"
        }
      ],
      "stateMutability": "view",
      "type": "function"
    },
    {
      "inputs": [],
      "name": "totalSupply",
      "outputs": [
        {
          "internalType": "uint256",
          "name": "",
          "type": "uint256"
        }
      ],
      "stateMutability": "view",
      "type": "function"
    },
    {
      "inputs": [
        {
          "internalType": "address",
          "name": "to",
          "type": "address"
        },
        {
          "internalType": "uint256",
          "name": "amount",
          "type": "uint256"
        }
      ],
      "name": "transfer",
      "outputs": [
        {
          "internalType": "bool",
          "name": "",
          "type": "bool"
        }
      ],
      "stateMutability": "nonpayable",
      "type": "function"
    },
    {
      "inputs": [
        {
          "internalType": "address",
          "name": "from",
          "type": "address"
        },
        {
          "internalType": "address",
          "name": "to",
          "type": "address"
        },
        {
          "internalType": "uint256",
          "name": "amount",
          "type": "uint256"
        }
      ],
      "name": "transferFrom",
      "outputs": [
        {
          "internalType": "bool",
          "name": "",
          "type": "bool"
        }
      ],
      "stateMutability": "nonpayable",
      "type": "function"
    },
    {
      "inputs": [
        {
          "internalType": "address",
          "name": "newOwner",
          "type": "address"
        }
      ],
      "name": "transferOwnership",
      "outputs": [],
      "stateMutability": "nonpayable",
      "type": "function"
    }
  ],
  "bytecode": "0x60806040523480156200001157600080fd5b506040518060400160405280601381526020017f42726176652047616c6c6f7320546f6b656e2000000000000000000000000000815250604051806040016040528060038152602001621091d560ea1b815250816003908162000075919062000285565b50600462000084828262000285565b505050620000a16200009b620000c060201b60201c565b620000c4565b620000ba336c01431e0fae6d7217caa000000062000116565b62000379565b3390565b600580546001600160a01b038381166001600160a01b0319831681179093556040519116919082907f8be0079c531659141344cd1fd0a4f28419497f9722a3daafe3b4186f6b6457e090600090a35050565b6001600160a01b038216620001715760405162461bcd60e51b815260206004820152601f60248201527f45524332303a206d696e7420746f20746865207a65726f206164647265737300604482015260640160405180910390fd5b806002600082825462000185919062000351565b90915550506001600160a01b038216600081815260208181526040808320805486019055518481527fddf252ad1be2c89b69c2b068fc378daa952ba7f163c4a11628f55a4df523b3ef910160405180910390a35050565b505050565b634e487b7160e01b600052604160045260246000fd5b600181811c908216806200020c57607f821691505b6020821081036200022d57634e487b7160e01b600052602260045260246000fd5b50919050565b601f821115620001dc57600081815260208120601f850160051c810160208610156200025c5750805b601f850160051c820191505b818110156200027d5782815560010162000268565b505050505050565b81516001600160401b03811115620002a157620002a1620001e1565b620002b981620002b28454620001f7565b8462000233565b602080601f831160018114620002f15760008415620002d85750858301515b600019600386901b1c1916600185901b1785556200027d565b600085815260208120601f198616915b82811015620003225788860151825594840194600190910190840162000301565b5085821015620003415787850151600019600388901b60f8161c191681555b5050505050600190811b01905550565b808201808211156200037357634e487b7160e01b600052601160045260246000fd5b92915050565b610e7080620003896000396000f3fe608060405234801561001057600080fd5b50600436106101005760003560e01c8063893d20e811610097578063a9059cbb11610066578063a9059cbb1461020c578063ac9650d81461021f578063dd62ed3e1461023f578063f2fde38b1461025257600080fd5b8063893d20e8146101c05780638da5cb5b146101e057806395d89b41146101f1578063a457c2d7146101f957600080fd5b8063313ce567116100d3578063313ce5671461016b578063395093511461017a57806370a082311461018d578063715018a6146101b657600080fd5b806306fdde0314610105578063095ea7b31461012357806318160ddd1461014657806323b872dd14610158575b600080fd5b61010d610265565b60405161011a9190610b47565b60405180910390f35b610136610131366004610b76565b6102f7565b604051901515815260200161011a565b6002545b60405190815260200161011a565b610136610166366004610ba0565b610311565b6040516012815260200161011a565b610136610188366004610b76565b610335565b61014a61019b366004610bdc565b6001600160a01b031660009081526020819052604090205490565b6101be610357565b005b6101c861036b565b6040516001600160a01b03909116815260200161011a565b6005546001600160a01b03166101c8565b61010d610384565b610136610207366004610b76565b610393565b61013661021a366004610b76565b610413565b61023261022d366004610bf7565b610421565b60405161011a9190610c6c565b61014a61024d366004610cce565b610516565b6101be610260366004610bdc565b610541565b60606003805461027490610d01565b80601f01602080910402602001604051908101604052809291908181526020018280546102a090610d01565b80156102ed5780601f106102c2576101008083540402835291602001916102ed565b820191906000526020600020905b8154815290600101906020018083116102d057829003601f168201915b5050505050905090565b6000336103058185856105ba565b60019150505b92915050565b60003361031f8582856106de565b61032a858585610758565b506001949350505050565b6000336103058185856103488383610516565b6103529190610d51565b6105ba565b61035f6108fc565b6103696000610956565b565b600061037f6005546001600160a01b031690565b905090565b60606004805461027490610d01565b600033816103a18286610516565b9050838110156104065760405162461bcd60e51b815260206004820152602560248201527f45524332303a2064656372656173656420616c6c6f77616e63652062656c6f77604482015264207a65726f60d81b60648201526084015b60405180910390fd5b61032a82868684036105ba565b600033610305818585610758565b60608167ffffffffffffffff81111561043c5761043c610d64565b60405190808252806020026020018201604052801561046f57816020015b606081526020019060019003908161045a5790505b50905060005b8281101561050f576104df3085858481811061049357610493610d7a565b90506020028101906104a59190610d90565b8080601f0160208091040260200160405190810160405280939291908181526020018383808284376000920191909152506109a892505050565b8282815181106104f1576104f1610d7a565b6020026020010181905250808061050790610dde565b915050610475565b5092915050565b6001600160a01b03918216600090815260016020908152604080832093909416825291909152205490565b6105496108fc565b6001600160a01b0381166105ae5760405162461bcd60e51b815260206004820152602660248201527f4f776e61626c653a206e6577206f776e657220697320746865207a65726f206160448201526564647265737360d01b60648201526084016103fd565b6105b781610956565b50565b6001600160a01b03831661061c5760405162461bcd60e51b8152602060048201526024808201527f45524332303a20617070726f76652066726f6d20746865207a65726f206164646044820152637265737360e01b60648201526084016103fd565b6001600160a01b03821661067d5760405162461bcd60e51b815260206004820152602260248201527f45524332303a20617070726f766520746f20746865207a65726f206164647265604482015261737360f01b60648201526084016103fd565b6001600160a01b0383811660008181526001602090815260408083209487168084529482529182902085905590518481527f8c5be1e5ebec7d5bd14f71427d1e84f3dd0314c0f7b2291e5b200ac8c7c3b925910160405180910390a3505050565b60006106ea8484610516565b9050600019811461075257818110156107455760405162461bcd60e51b815260206004820152601d60248201527f45524332303a20696e73756666696369656e7420616c6c6f77616e636500000060448201526064016103fd565b61075284848484036105ba565b50505050565b6001600160a01b0383166107bc5760405162461bcd60e51b815260206004820152602560248201527f45524332303a207472616e736665722066726f6d20746865207a65726f206164604482015264647265737360d81b60648201526084016103fd565b6001600160a01b03821661081e5760405162461bcd60e51b815260206004820152602360248201527f45524332303a207472616e7366657220746f20746865207a65726f206164647260448201526265737360e81b60648201526084016103fd565b6001600160a01b038316600090815260208190526040902054818110156108965760405162461bcd60e51b815260206004820152602660248201527f45524332303a207472616e7366657220616d6f756e7420657863656564732062604482015265616c616e636560d01b60648201526084016103fd565b6001600160a01b03848116600081815260208181526040808320878703905593871680835291849020805487019055925185815290927fddf252ad1be2c89b69c2b068fc378daa952ba7f163c4a11628f55a4df523b3ef910160405180910390a3610752565b6005546001600160a01b031633146103695760405162461bcd60e51b815260206004820181905260248201527f4f776e61626c653a2063616c6c6572206973206e6f7420746865206f776e657260448201526064016103fd565b600580546001600160a01b038381166001600160a01b0319831681179093556040519116919082907f8be0079c531659141344cd1fd0a4f28419497f9722a3daafe3b4186f6b6457e090600090a35050565b60606109cd8383604051806060016040528060278152602001610e14602791396109d4565b9392505050565b6060600080856001600160a01b0316856040516109f19190610df7565b600060405180830381855af49150503d8060008114610a2c576040519150601f19603f3d011682016040523d82523d6000602084013e610a31565b606091505b5091509150610a4286838387610a4c565b9695505050505050565b60608315610abb578251600003610ab4576001600160a01b0385163b610ab45760405162461bcd60e51b815260206004820152601d60248201527f416464726573733a2063616c6c20746f206e6f6e2d636f6e747261637400000060448201526064016103fd565b5081610ac5565b610ac58383610acd565b949350505050565b815115610add5781518083602001fd5b8060405162461bcd60e51b81526004016103fd9190610b47565b60005b83811015610b12578181015183820152602001610afa565b50506000910152565b60008151808452610b33816020860160208601610af7565b601f01601f19169290920160200192915050565b6020815260006109cd6020830184610b1b565b80356001600160a01b0381168114610b7157600080fd5b919050565b60008060408385031215610b8957600080fd5b610b9283610b5a565b946020939093013593505050565b600080600060608486031215610bb557600080fd5b610bbe84610b5a565b9250610bcc60208501610b5a565b9150604084013590509250925092565b600060208284031215610bee57600080fd5b6109cd82610b5a565b60008060208385031215610c0a57600080fd5b823567ffffffffffffffff80821115610c2257600080fd5b818501915085601f830112610c3657600080fd5b813581811115610c4557600080fd5b8660208260051b8501011115610c5a57600080fd5b60209290920196919550909350505050565b6000602080830181845280855180835260408601915060408160051b870101925083870160005b82811015610cc157603f19888603018452610caf858351610b1b565b94509285019290850190600101610c93565b5092979650505050505050565b60008060408385031215610ce157600080fd5b610cea83610b5a565b9150610cf860208401610b5a565b90509250929050565b600181811c90821680610d1557607f821691505b602082108103610d3557634e487b7160e01b600052602260045260246000fd5b50919050565b634e487b7160e01b600052601160045260246000fd5b8082018082111561030b5761030b610d3b565b634e487b7160e01b600052604160045260246000fd5b634e487b7160e01b600052603260045260246000fd5b6000808335601e19843603018112610da757600080fd5b83018035915067ffffffffffffffff821115610dc257600080fd5b602001915036819003821315610dd757600080fd5b9250929050565b600060018201610df057610df0610d3b565b5060010190565b60008251610e09818460208701610af7565b919091019291505056fe416464726573733a206c6f772d6c6576656c2064656c65676174652063616c6c206661696c6564a2646970667358221220f8689f3763963a916dd8c831f6b2de581445622a21263a562b98f72654c805ea64736f6c63430008100033",
  "linkReferences": {},
  "deployedLinkReferences": {}
}